{
  "_format": "hh-sol-artifact-1",
  "contractName": "Voting",
  "sourceName": "contracts/voting.sol",
  "abi": [
    {
      "anonymous": false,
      "inputs": [
        {
          "indexed": false,
          "internalType": "uint256",
          "name": "pollID",
          "type": "uint256"
        },
        {
          "indexed": false,
          "internalType": "address",
          "name": "creator",
          "type": "address"
        },
        {
          "indexed": false,
          "internalType": "string",
          "name": "question",
          "type": "string"
        }
      ],
      "name": "PollCreated",
      "type": "event"
    },
    {
      "anonymous": false,
      "inputs": [
        {
          "indexed": false,
          "internalType": "address",
          "name": "voter",
          "type": "address"
        },
        {
          "indexed": false,
          "internalType": "uint256",
          "name": "pollID",
          "type": "uint256"
        },
        {
          "indexed": false,
          "internalType": "uint256[]",
          "name": "answerIDs",
          "type": "uint256[]"
        }
      ],
      "name": "Voted",
      "type": "event"
    },
    {
      "inputs": [],
      "name": "MAX_ANSWERS",
      "outputs": [
        {
          "internalType": "uint256",
          "name": "",
          "type": "uint256"
        }
      ],
      "stateMutability": "view",
      "type": "function"
    },
    {
      "inputs": [],
      "name": "MAX_ANSWER_LENGTH",
      "outputs": [
        {
          "internalType": "uint256",
          "name": "",
          "type": "uint256"
        }
      ],
      "stateMutability": "view",
      "type": "function"
    },
    {
      "inputs": [],
      "name": "MAX_QUESTION_LENGTH",
      "outputs": [
        {
          "internalType": "uint256",
          "name": "",
          "type": "uint256"
        }
      ],
      "stateMutability": "view",
      "type": "function"
    },
    {
      "inputs": [
        {
          "internalType": "string",
          "name": "_question",
          "type": "string"
        },
        {
          "internalType": "string[]",
          "name": "_answers",
          "type": "string[]"
        },
        {
          "internalType": "bool",
          "name": "_multipleChoices",
          "type": "bool"
        },
        {
          "internalType": "uint256",
          "name": "_duration",
          "type": "uint256"
        }
      ],
      "name": "createPoll",
      "outputs": [],
      "stateMutability": "nonpayable",
      "type": "function"
    },
    {
      "inputs": [],
      "name": "getActivePolls",
      "outputs": [
        {
          "internalType": "uint256[]",
          "name": "",
          "type": "uint256[]"
        }
      ],
      "stateMutability": "view",
      "type": "function"
    },
    {
      "inputs": [
        {
          "internalType": "uint256",
          "name": "_pollID",
          "type": "uint256"
        }
      ],
      "name": "getPollInfo",
      "outputs": [
        {
          "internalType": "address",
          "name": "creator",
          "type": "address"
        },
        {
          "internalType": "uint256",
          "name": "startTime",
          "type": "uint256"
        },
        {
          "internalType": "uint256",
          "name": "endTime",
          "type": "uint256"
        },
        {
          "internalType": "string",
          "name": "question",
          "type": "string"
        },
        {
          "internalType": "string[]",
          "name": "answers",
          "type": "string[]"
        },
        {
          "internalType": "bool",
          "name": "multipleChoices",
          "type": "bool"
        }
      ],
      "stateMutability": "view",
      "type": "function"
    },
    {
      "inputs": [
        {
          "internalType": "uint256",
          "name": "_pollID",
          "type": "uint256"
        }
      ],
      "name": "getResults",
      "outputs": [
        {
          "internalType": "uint256[]",
          "name": "",
          "type": "uint256[]"
        }
      ],
      "stateMutability": "view",
      "type": "function"
    },
    {
      "inputs": [
        {
          "internalType": "uint256",
          "name": "_pollID",
          "type": "uint256"
        },
        {
          "internalType": "address",
          "name": "_user",
          "type": "address"
        }
      ],
      "name": "getUserVotes",
      "outputs": [
        {
          "internalType": "uint256[]",
          "name": "",
          "type": "uint256[]"
        }
      ],
      "stateMutability": "view",
      "type": "function"
    },
    {
      "inputs": [],
      "name": "nextPollID",
      "outputs": [
        {
          "internalType": "uint256",
          "name": "",
          "type": "uint256"
        }
      ],
      "stateMutability": "view",
      "type": "function"
    },
    {
      "inputs": [
        {
          "internalType": "uint256",
          "name": "",
          "type": "uint256"
        }
      ],
      "name": "polls",
      "outputs": [
        {
          "internalType": "uint256",
          "name": "pollID",
          "type": "uint256"
        },
        {
          "internalType": "address",
          "name": "creator",
          "type": "address"
        },
        {
          "internalType": "uint256",
          "name": "startTime",
          "type": "uint256"
        },
        {
          "internalType": "uint256",
          "name": "endTime",
          "type": "uint256"
        },
        {
          "internalType": "string",
          "name": "question",
          "type": "string"
        },
        {
          "internalType": "bool",
          "name": "multipleChoices",
          "type": "bool"
        }
      ],
      "stateMutability": "view",
      "type": "function"
    },
    {
      "inputs": [
        {
          "internalType": "uint256",
          "name": "_pollID",
          "type": "uint256"
        },
        {
          "internalType": "uint256[]",
          "name": "_answerIDs",
          "type": "uint256[]"
        }
      ],
      "name": "vote",
      "outputs": [],
      "stateMutability": "nonpayable",
      "type": "function"
    }
  ],
  "bytecode": "0x6080604052348015600f57600080fd5b506121f18061001f6000396000f3fe608060405234801561001057600080fd5b50600436106100a85760003560e01c806381a60c0d1161007157806381a60c0d14610156578063ac2f007414610186578063b04e283e146101bb578063d29f70e8146101d9578063e8abfd94146101f7578063fd3a832914610227576100a8565b80622ce0a5146100ad57806329b8f44a146100c957806363a9492f146100fe578063701c73721461011c5780637055d3681461013a575b600080fd5b6100c760048036038101906100c2919061122d565b610245565b005b6100e360048036038101906100de91906112d1565b6104fe565b6040516100f5969594939291906114e8565b60405180910390f35b610106610722565b6040516101139190611615565b60405180910390f35b610124610828565b6040516101319190611637565b60405180910390f35b610154600480360381019061014f9190611715565b61082d565b005b610170600480360381019061016b91906112d1565b610b85565b60405161017d9190611615565b60405180910390f35b6101a0600480360381019061019b91906112d1565b610c50565b6040516101b296959493929190611771565b60405180910390f35b6101c3610d41565b6040516101d09190611637565b60405180910390f35b6101e1610d47565b6040516101ee9190611637565b60405180910390f35b610211600480360381019061020c9190611805565b610d4d565b60405161021e9190611615565b60405180910390f35b61022f610df8565b60405161023c9190611637565b60405180910390f35b60008585905011801561025d57506101008585905011155b61029c576040517f08c379a000000000000000000000000000000000000000000000000000000000815260040161029390611891565b60405180910390fd5b600183511180156102af57506050835111155b6102ee576040517f08c379a00000000000000000000000000000000000000000000000000000000081526004016102e5906118fd565b60405180910390fd5b60008111610331576040517f08c379a000000000000000000000000000000000000000000000000000000000815260040161032890611969565b60405180910390fd5b60005b83518110156103d057600084828151811061035257610351611989565b5b6020026020010151511180156103845750606484828151811061037857610377611989565b5b60200260200101515111155b6103c3576040517f08c379a00000000000000000000000000000000000000000000000000000000081526004016103ba90611a04565b60405180910390fd5b8080600101915050610334565b506000806000600154815260200190815260200160002090506001548160000181905550338160010160006101000a81548173ffffffffffffffffffffffffffffffffffffffff021916908373ffffffffffffffffffffffffffffffffffffffff160217905550428160020181905550814261044c9190611a53565b81600301819055508585826004019182610467929190611c9e565b5083816005019080519060200190610480929190610dfd565b50828160060160006101000a81548160ff021916908315150217905550600160008154809291906104b090611d6e565b91905055507f7cf84e937b660a86b8d03903abf94c2e2976b2273da8dfbef2d89b7ac560463e81600001543388886040516104ee9493929190611de3565b60405180910390a1505050505050565b600080600060608060008060008089815260200190815260200160002090506000816002015403610564576040517f08c379a000000000000000000000000000000000000000000000000000000000815260040161055b90611e6f565b60405180910390fd5b8060010160009054906101000a900473ffffffffffffffffffffffffffffffffffffffff168160020154826003015483600401846005018560060160009054906101000a900460ff168280546105b990611ac1565b80601f01602080910402602001604051908101604052809291908181526020018280546105e590611ac1565b80156106325780601f1061060757610100808354040283529160200191610632565b820191906000526020600020905b81548152906001019060200180831161061557829003601f168201915b5050505050925081805480602002602001604051908101604052809291908181526020016000905b8282101561070657838290600052602060002001805461067990611ac1565b80601f01602080910402602001604051908101604052809291908181526020018280546106a590611ac1565b80156106f25780601f106106c7576101008083540402835291602001916106f2565b820191906000526020600020905b8154815290600101906020018083116106d557829003601f168201915b50505050508152602001906001019061065a565b5050505091509650965096509650965096505091939550919395565b60606000805b60015481101561076a5742600080838152602001908152602001600020600301541061075d57818061075990611d6e565b9250505b8080600101915050610728565b5060008167ffffffffffffffff81111561078757610786610fae565b5b6040519080825280602002602001820160405280156107b55781602001602082028036833780820191505090505b5090506000805b60015481101561081e5742600080838152602001908152602001600020600301541061081157808383815181106107f6576107f5611989565b5b602002602001018181525050818061080d90611d6e565b9250505b80806001019150506107bc565b5081935050505090565b605081565b8160008060008381526020019081526020016000209050600081600201540361088b576040517f08c379a000000000000000000000000000000000000000000000000000000000815260040161088290611e6f565b60405180910390fd5b42816003015410156108d2576040517f08c379a00000000000000000000000000000000000000000000000000000000081526004016108c990611edb565b60405180910390fd5b4281600201541115610919576040517f08c379a000000000000000000000000000000000000000000000000000000000815260040161091090611f47565b60405180910390fd5b6000806000868152602001908152602001600020905060008160080160003373ffffffffffffffffffffffffffffffffffffffff1673ffffffffffffffffffffffffffffffffffffffff16815260200190815260200160002080549050146109b6576040517f08c379a00000000000000000000000000000000000000000000000000000000081526004016109ad90611fb3565b60405180910390fd5b8060060160009054906101000a900460ff16610a11576001845114610a10576040517f08c379a0000000000000000000000000000000000000000000000000000000008152600401610a079061201f565b60405180910390fd5b5b60005b8451811015610a8d578160050180549050858281518110610a3857610a37611989565b5b602002602001015110610a80576040517f08c379a0000000000000000000000000000000000000000000000000000000008152600401610a779061208b565b60405180910390fd5b8080600101915050610a14565b50838160080160003373ffffffffffffffffffffffffffffffffffffffff1673ffffffffffffffffffffffffffffffffffffffff1681526020019081526020016000209080519060200190610ae3929190610e56565b5060005b8451811015610b4257816007016000868381518110610b0957610b08611989565b5b602002602001015181526020019081526020016000206000815480929190610b3090611d6e565b91905055508080600101915050610ae7565b507f871b62f932d6ef8afa59aed962334ae3a32efd388f7ec8932a67b7e47ae7795a338686604051610b76939291906120ab565b60405180910390a15050505050565b6060600080600084815260200190815260200160002090506000816005018054905067ffffffffffffffff811115610bc057610bbf610fae565b5b604051908082528060200260200182016040528015610bee5781602001602082028036833780820191505090505b50905060005b8260050180549050811015610c455782600701600082815260200190815260200160002054828281518110610c2c57610c2b611989565b5b6020026020010181815250508080600101915050610bf4565b508092505050919050565b60006020528060005260406000206000915090508060000154908060010160009054906101000a900473ffffffffffffffffffffffffffffffffffffffff1690806002015490806003015490806004018054610cab90611ac1565b80601f0160208091040260200160405190810160405280929190818152602001828054610cd790611ac1565b8015610d245780601f10610cf957610100808354040283529160200191610d24565b820191906000526020600020905b815481529060010190602001808311610d0757829003601f168201915b5050505050908060060160009054906101000a900460ff16905086565b60015481565b61010081565b606060008084815260200190815260200160002060080160008373ffffffffffffffffffffffffffffffffffffffff1673ffffffffffffffffffffffffffffffffffffffff168152602001908152602001600020805480602002602001604051908101604052809291908181526020018280548015610deb57602002820191906000526020600020905b815481526020019060010190808311610dd7575b5050505050905092915050565b606481565b828054828255906000526020600020908101928215610e45579160200282015b82811115610e44578251829081610e3491906120e9565b5091602001919060010190610e1d565b5b509050610e529190610ea3565b5090565b828054828255906000526020600020908101928215610e92579160200282015b82811115610e91578251825591602001919060010190610e76565b5b509050610e9f9190610ec7565b5090565b5b80821115610ec35760008181610eba9190610ee4565b50600101610ea4565b5090565b5b80821115610ee0576000816000905550600101610ec8565b5090565b508054610ef090611ac1565b6000825580601f10610f025750610f21565b601f016020900490600052602060002090810190610f209190610ec7565b5b50565b6000604051905090565b600080fd5b600080fd5b600080fd5b600080fd5b600080fd5b60008083601f840112610f5d57610f5c610f38565b5b8235905067ffffffffffffffff811115610f7a57610f79610f3d565b5b602083019150836001820283011115610f9657610f95610f42565b5b9250929050565b6000601f19601f8301169050919050565b7f4e487b7100000000000000000000000000000000000000000000000000000000600052604160045260246000fd5b610fe682610f9d565b810181811067ffffffffffffffff8211171561100557611004610fae565b5b80604052505050565b6000611018610f24565b90506110248282610fdd565b919050565b600067ffffffffffffffff82111561104457611043610fae565b5b602082029050602081019050919050565b600080fd5b600067ffffffffffffffff82111561107557611074610fae565b5b61107e82610f9d565b9050602081019050919050565b82818337600083830152505050565b60006110ad6110a88461105a565b61100e565b9050828152602081018484840111156110c9576110c8611055565b5b6110d484828561108b565b509392505050565b600082601f8301126110f1576110f0610f38565b5b813561110184826020860161109a565b91505092915050565b600061111d61111884611029565b61100e565b905080838252602082019050602084028301858111156111405761113f610f42565b5b835b8181101561118757803567ffffffffffffffff81111561116557611164610f38565b5b80860161117289826110dc565b85526020850194505050602081019050611142565b5050509392505050565b600082601f8301126111a6576111a5610f38565b5b81356111b684826020860161110a565b91505092915050565b60008115159050919050565b6111d4816111bf565b81146111df57600080fd5b50565b6000813590506111f1816111cb565b92915050565b6000819050919050565b61120a816111f7565b811461121557600080fd5b50565b60008135905061122781611201565b92915050565b60008060008060006080868803121561124957611248610f2e565b5b600086013567ffffffffffffffff81111561126757611266610f33565b5b61127388828901610f47565b9550955050602086013567ffffffffffffffff81111561129657611295610f33565b5b6112a288828901611191565b93505060406112b3888289016111e2565b92505060606112c488828901611218565b9150509295509295909350565b6000602082840312156112e7576112e6610f2e565b5b60006112f584828501611218565b91505092915050565b600073ffffffffffffffffffffffffffffffffffffffff82169050919050565b6000611329826112fe565b9050919050565b6113398161131e565b82525050565b611348816111f7565b82525050565b600081519050919050565b600082825260208201905092915050565b60005b8381101561138857808201518184015260208101905061136d565b60008484015250505050565b600061139f8261134e565b6113a98185611359565b93506113b981856020860161136a565b6113c281610f9d565b840191505092915050565b600081519050919050565b600082825260208201905092915050565b6000819050602082019050919050565b600082825260208201905092915050565b60006114158261134e565b61141f81856113f9565b935061142f81856020860161136a565b61143881610f9d565b840191505092915050565b600061144f838361140a565b905092915050565b6000602082019050919050565b600061146f826113cd565b61147981856113d8565b93508360208202850161148b856113e9565b8060005b858110156114c757848403895281516114a88582611443565b94506114b383611457565b925060208a0199505060018101905061148f565b50829750879550505050505092915050565b6114e2816111bf565b82525050565b600060c0820190506114fd6000830189611330565b61150a602083018861133f565b611517604083018761133f565b81810360608301526115298186611394565b9050818103608083015261153d8185611464565b905061154c60a08301846114d9565b979650505050505050565b600081519050919050565b600082825260208201905092915050565b6000819050602082019050919050565b61158c816111f7565b82525050565b600061159e8383611583565b60208301905092915050565b6000602082019050919050565b60006115c282611557565b6115cc8185611562565b93506115d783611573565b8060005b838110156116085781516115ef8882611592565b97506115fa836115aa565b9250506001810190506115db565b5085935050505092915050565b6000602082019050818103600083015261162f81846115b7565b905092915050565b600060208201905061164c600083018461133f565b92915050565b600067ffffffffffffffff82111561166d5761166c610fae565b5b602082029050602081019050919050565b600061169161168c84611652565b61100e565b905080838252602082019050602084028301858111156116b4576116b3610f42565b5b835b818110156116dd57806116c98882611218565b8452602084019350506020810190506116b6565b5050509392505050565b600082601f8301126116fc576116fb610f38565b5b813561170c84826020860161167e565b91505092915050565b6000806040838503121561172c5761172b610f2e565b5b600061173a85828601611218565b925050602083013567ffffffffffffffff81111561175b5761175a610f33565b5b611767858286016116e7565b9150509250929050565b600060c082019050611786600083018961133f565b6117936020830188611330565b6117a0604083018761133f565b6117ad606083018661133f565b81810360808301526117bf8185611394565b90506117ce60a08301846114d9565b979650505050505050565b6117e28161131e565b81146117ed57600080fd5b50565b6000813590506117ff816117d9565b92915050565b6000806040838503121561181c5761181b610f2e565b5b600061182a85828601611218565b925050602061183b858286016117f0565b9150509250929050565b7f496e76616c6964207175657374696f6e206c656e677468000000000000000000600082015250565b600061187b601783611359565b915061188682611845565b602082019050919050565b600060208201905081810360008301526118aa8161186e565b9050919050565b7f496e76616c6964206e756d626572206f6620616e737765727300000000000000600082015250565b60006118e7601983611359565b91506118f2826118b1565b602082019050919050565b60006020820190508181036000830152611916816118da565b9050919050565b7f4475726174696f6e206d757374206265203e2030000000000000000000000000600082015250565b6000611953601483611359565b915061195e8261191d565b602082019050919050565b6000602082019050818103600083015261198281611946565b9050919050565b7f4e487b7100000000000000000000000000000000000000000000000000000000600052603260045260246000fd5b7f496e76616c696420616e73776572206c656e6774680000000000000000000000600082015250565b60006119ee601583611359565b91506119f9826119b8565b602082019050919050565b60006020820190508181036000830152611a1d816119e1565b9050919050565b7f4e487b7100000000000000000000000000000000000000000000000000000000600052601160045260246000fd5b6000611a5e826111f7565b9150611a69836111f7565b9250828201905080821115611a8157611a80611a24565b5b92915050565b600082905092915050565b7f4e487b7100000000000000000000000000000000000000000000000000000000600052602260045260246000fd5b60006002820490506001821680611ad957607f821691505b602082108103611aec57611aeb611a92565b5b50919050565b60008190508160005260206000209050919050565b60006020601f8301049050919050565b600082821b905092915050565b600060088302611b547fffffffffffffffffffffffffffffffffffffffffffffffffffffffffffffffff82611b17565b611b5e8683611b17565b95508019841693508086168417925050509392505050565b6000819050919050565b6000611b9b611b96611b91846111f7565b611b76565b6111f7565b9050919050565b6000819050919050565b611bb583611b80565b611bc9611bc182611ba2565b848454611b24565b825550505050565b600090565b611bde611bd1565b611be9818484611bac565b505050565b5b81811015611c0d57611c02600082611bd6565b600181019050611bef565b5050565b601f821115611c5257611c2381611af2565b611c2c84611b07565b81016020851015611c3b578190505b611c4f611c4785611b07565b830182611bee565b50505b505050565b600082821c905092915050565b6000611c7560001984600802611c57565b1980831691505092915050565b6000611c8e8383611c64565b9150826002028217905092915050565b611ca88383611a87565b67ffffffffffffffff811115611cc157611cc0610fae565b5b611ccb8254611ac1565b611cd6828285611c11565b6000601f831160018114611d055760008415611cf3578287013590505b611cfd8582611c82565b865550611d65565b601f198416611d1386611af2565b60005b82811015611d3b57848901358255600182019150602085019450602081019050611d16565b86831015611d585784890135611d54601f891682611c64565b8355505b6001600288020188555050505b50505050505050565b6000611d79826111f7565b91507fffffffffffffffffffffffffffffffffffffffffffffffffffffffffffffffff8203611dab57611daa611a24565b5b600182019050919050565b6000611dc28385611359565b9350611dcf83858461108b565b611dd883610f9d565b840190509392505050565b6000606082019050611df8600083018761133f565b611e056020830186611330565b8181036040830152611e18818486611db6565b905095945050505050565b7f506f6c6c20646f6573206e6f7420657869737400000000000000000000000000600082015250565b6000611e59601383611359565b9150611e6482611e23565b602082019050919050565b60006020820190508181036000830152611e8881611e4c565b9050919050565b7f506f6c6c2068617320656e646564000000000000000000000000000000000000600082015250565b6000611ec5600e83611359565b9150611ed082611e8f565b602082019050919050565b60006020820190508181036000830152611ef481611eb8565b9050919050565b7f506f6c6c206e6f74207374617274656400000000000000000000000000000000600082015250565b6000611f31601083611359565b9150611f3c82611efb565b602082019050919050565b60006020820190508181036000830152611f6081611f24565b9050919050565b7f416c726561647920766f74656400000000000000000000000000000000000000600082015250565b6000611f9d600d83611359565b9150611fa882611f67565b602082019050919050565b60006020820190508181036000830152611fcc81611f90565b9050919050565b7f4f6e6c79206f6e65206f7074696f6e20616c6c6f776564000000000000000000600082015250565b6000612009601783611359565b915061201482611fd3565b602082019050919050565b6000602082019050818103600083015261203881611ffc565b9050919050565b7f496e76616c696420616e73776572204944000000000000000000000000000000600082015250565b6000612075601183611359565b91506120808261203f565b602082019050919050565b600060208201905081810360008301526120a481612068565b9050919050565b60006060820190506120c06000830186611330565b6120cd602083018561133f565b81810360408301526120df81846115b7565b9050949350505050565b6120f28261134e565b67ffffffffffffffff81111561210b5761210a610fae565b5b6121158254611ac1565b612120828285611c11565b600060209050601f8311600181146121535760008415612141578287015190505b61214b8582611c82565b8655506121b3565b601f19841661216186611af2565b60005b8281101561218957848901518255600182019150602085019450602081019050612164565b868310156121a657848901516121a2601f891682611c64565b8355505b6001600288020188555050505b50505050505056fea26469706673582212209a48c74d72e7a688c6d9e6b417607d64fd79cb87207e24c86a9d1572c6fb271f64736f6c634300081c0033",
  "linkReferences": {},
  "deployedLinkReferences": {}
}