{
  "_format": "hh-sol-artifact-1",
  "contractName": "Voting",
  "sourceName": "contracts/voting.sol",
  "abi": [
    {
      "inputs": [],
      "stateMutability": "nonpayable",
      "type": "constructor"
    },
    {
      "anonymous": false,
      "inputs": [
        {
          "indexed": true,
          "internalType": "uint256",
          "name": "id",
          "type": "uint256"
        }
      ],
      "name": "PollCanceled",
      "type": "event"
    },
    {
      "anonymous": false,
      "inputs": [
        {
          "indexed": true,
          "internalType": "uint256",
          "name": "id",
          "type": "uint256"
        },
        {
          "indexed": false,
          "internalType": "address",
          "name": "creator",
          "type": "address"
        },
        {
          "indexed": false,
          "internalType": "bytes",
          "name": "question",
          "type": "bytes"
        }
      ],
      "name": "PollCreated",
      "type": "event"
    },
    {
      "anonymous": false,
      "inputs": [
        {
          "indexed": true,
          "internalType": "uint256",
          "name": "id",
          "type": "uint256"
        }
      ],
      "name": "PollEdited",
      "type": "event"
    },
    {
      "anonymous": false,
      "inputs": [
        {
          "indexed": true,
          "internalType": "uint256",
          "name": "pollID",
          "type": "uint256"
        },
        {
          "indexed": false,
          "internalType": "uint256",
          "name": "newStartTime",
          "type": "uint256"
        }
      ],
      "name": "ScheduleUpdated",
      "type": "event"
    },
    {
      "anonymous": false,
      "inputs": [
        {
          "indexed": true,
          "internalType": "address",
          "name": "voter",
          "type": "address"
        },
        {
          "indexed": true,
          "internalType": "uint256",
          "name": "pollID",
          "type": "uint256"
        },
        {
          "indexed": false,
          "internalType": "uint256[]",
          "name": "answerIDs",
          "type": "uint256[]"
        },
        {
          "indexed": false,
          "internalType": "uint256",
          "name": "timestamp",
          "type": "uint256"
        }
      ],
      "name": "Voted",
      "type": "event"
    },
    {
      "inputs": [
        {
          "internalType": "uint256",
          "name": "_pollID",
          "type": "uint256"
        }
      ],
      "name": "cancelPoll",
      "outputs": [],
      "stateMutability": "nonpayable",
      "type": "function"
    },
    {
      "inputs": [
        {
          "internalType": "bytes",
          "name": "_question",
          "type": "bytes"
        },
        {
          "internalType": "bytes[]",
          "name": "_answers",
          "type": "bytes[]"
        },
        {
          "internalType": "bool",
          "name": "_multipleChoices",
          "type": "bool"
        },
        {
          "internalType": "uint256",
          "name": "_startTime",
          "type": "uint256"
        },
        {
          "internalType": "uint256",
          "name": "_duration",
          "type": "uint256"
        }
      ],
      "name": "createPoll",
      "outputs": [],
      "stateMutability": "nonpayable",
      "type": "function"
    },
    {
      "inputs": [
        {
          "internalType": "uint256",
          "name": "_pollID",
          "type": "uint256"
        }
      ],
      "name": "getPollInfo",
      "outputs": [
        {
          "internalType": "address",
          "name": "creator",
          "type": "address"
        },
        {
          "internalType": "uint256",
          "name": "startTime",
          "type": "uint256"
        },
        {
          "internalType": "uint256",
          "name": "endTime",
          "type": "uint256"
        },
        {
          "internalType": "bytes",
          "name": "question",
          "type": "bytes"
        },
        {
          "internalType": "bytes[]",
          "name": "answers",
          "type": "bytes[]"
        },
        {
          "internalType": "bool",
          "name": "multipleChoices",
          "type": "bool"
        },
        {
          "internalType": "bool",
          "name": "canceled",
          "type": "bool"
        }
      ],
      "stateMutability": "view",
      "type": "function"
    },
    {
      "inputs": [
        {
          "internalType": "uint256",
          "name": "_pollID",
          "type": "uint256"
        }
      ],
      "name": "getResults",
      "outputs": [
        {
          "internalType": "uint256[]",
          "name": "",
          "type": "uint256[]"
        }
      ],
      "stateMutability": "view",
      "type": "function"
    },
    {
      "inputs": [
        {
          "internalType": "uint256",
          "name": "_pollID",
          "type": "uint256"
        },
        {
          "internalType": "address",
          "name": "_user",
          "type": "address"
        }
      ],
      "name": "getUserVotes",
      "outputs": [
        {
          "internalType": "uint256[]",
          "name": "",
          "type": "uint256[]"
        }
      ],
      "stateMutability": "view",
      "type": "function"
    },
    {
      "inputs": [],
      "name": "maxAnswerLength",
      "outputs": [
        {
          "internalType": "uint256",
          "name": "",
          "type": "uint256"
        }
      ],
      "stateMutability": "view",
      "type": "function"
    },
    {
      "inputs": [],
      "name": "maxAnswers",
      "outputs": [
        {
          "internalType": "uint256",
          "name": "",
          "type": "uint256"
        }
      ],
      "stateMutability": "view",
      "type": "function"
    },
    {
      "inputs": [],
      "name": "maxDuration",
      "outputs": [
        {
          "internalType": "uint256",
          "name": "",
          "type": "uint256"
        }
      ],
      "stateMutability": "view",
      "type": "function"
    },
    {
      "inputs": [],
      "name": "maxQuestionLength",
      "outputs": [
        {
          "internalType": "uint256",
          "name": "",
          "type": "uint256"
        }
      ],
      "stateMutability": "view",
      "type": "function"
    },
    {
      "inputs": [],
      "name": "minDuration",
      "outputs": [
        {
          "internalType": "uint256",
          "name": "",
          "type": "uint256"
        }
      ],
      "stateMutability": "view",
      "type": "function"
    },
    {
      "inputs": [],
      "name": "nextPollID",
      "outputs": [
        {
          "internalType": "uint256",
          "name": "",
          "type": "uint256"
        }
      ],
      "stateMutability": "view",
      "type": "function"
    },
    {
      "inputs": [
        {
          "internalType": "uint256",
          "name": "_pollID",
          "type": "uint256"
        },
        {
          "internalType": "uint256",
          "name": "_newStartTime",
          "type": "uint256"
        },
        {
          "internalType": "uint256",
          "name": "_newDuration",
          "type": "uint256"
        }
      ],
      "name": "updatePollSchedule",
      "outputs": [],
      "stateMutability": "nonpayable",
      "type": "function"
    },
    {
      "inputs": [
        {
          "internalType": "uint256",
          "name": "_pollID",
          "type": "uint256"
        },
        {
          "internalType": "uint256[]",
          "name": "_answerIDs",
          "type": "uint256[]"
        }
      ],
      "name": "vote",
      "outputs": [],
      "stateMutability": "nonpayable",
      "type": "function"
    }
  ],
  "bytecode": "0x6080806040523460365760106002556101006003556080600455603c6005556301e13380600655600180556112ca908161003c8239f35b600080fdfe608080604052600436101561001357600080fd5b60003560e01c9081630e7b80ee14610ea25750806329b8f44a14610d475780633d5c5697146107de57806356715761146107c05780636db5c8fd146107a25780637055d3681461040c57806381a60c0d14610344578063824c157914610326578063b04e283e14610308578063d0ec160714610263578063df0ff1c614610245578063e2af45071461016f5763e8abfd94146100ae57600080fd5b3461016a57604036600319011261016a576024356004356001600160a01b038216820361016a578060005260006020526100ee6040600020541515610f69565b600052600060205260086040600020019060018060a01b0316600052602052604060002060405190816020825491828152019160005260206000209060005b818110610154576101508561014481870382610fe5565b60405191829182610f2f565b0390f35b825484526020909301926001928301920161012d565b600080fd5b3461016a57606036600319011261016a576004357f644a9f205d77531ec9577a8e9e61b6f8737b60425f866c6d371472dd26842759602060243560443584600052600083526101cf60018060a01b0360016040600020015416331461121c565b6101da4283116110c3565b6101e860055482101561110f565b6101f6600654821115611150565b846000526000835261020e6040600020541515610f69565b84600052600083526003610239604060002092846002850161023281544210611256565b55846111e8565b910155604051908152a2005b3461016a57600036600319011261016a576020600354604051908152f35b3461016a57602036600319011261016a5760043580600052600060205261029b60018060a01b0360016040600020015416331461121c565b8060005260006020526102b46040600020541515610f69565b806000526000602052600660406000206102d360028201544210611256565b01805461ff0019166101001790557fcbf6c6edb69cb9a305bdb44565eee6d45abd4788040a52a368e5d93dc6d6d35c600080a2005b3461016a57600036600319011261016a576020600154604051908152f35b3461016a57600036600319011261016a576020600454604051908152f35b3461016a57602036600319011261016a576004358060005260006020526103716040600020541515610f69565b60005260006020526040600020600581015461038c816110ab565b9161039a6040519384610fe5565b818352601f196103a9836110ab565b0136602085013760070160005b8281106103cb57604051806101508682610f2f565b80600052816020526040600020549084518110156103f65760019160208260051b87010152016103b6565b634e487b7160e01b600052603260045260246000fd5b3461016a57604036600319011261016a5760043560243567ffffffffffffffff811161016a57610440903690600401610efe565b8260005260006020526040600020600281015461045e811515610f69565b421061076a5760038101544211610738576006015460081c60ff166107035760008381526020818152604080832033845260088101928390529220546106ce5782156106935760ff60068301541615610645575b600582015460005b8481106105f15750503360009081526020919091526040902067ffffffffffffffff83116105db57600160401b83116105db5780548382558084106105bd575b50839060005260206000209060005b8481106105a95750505060070160005b82811061057c575050604080518181529081018290526001600160fb1b03821161016a577f13cece5f499f034b135ee8a40385242c6bdcebeb11a85ba062f7bec84b42e5c99160051b8093606083013742602082015260608133948101030190a3005b8061058a600192858761120c565b356000528260205260406000206105a181546111c3565b905501610519565b600190602083359301928185015501610509565b6105d5908260005284602060002091820191016111f5565b856104fa565b634e487b7160e01b600052604160045260246000fd5b816105fd82878961120c565b35101561060c576001016104ba565b60405162461bcd60e51b8152602060048201526011602482015270125b9d985b1a5908185b9cddd95c881251607a1b6044820152606490fd5b60018303156104b25760405162461bcd60e51b815260206004820152601a60248201527f4f6e6c792073696e676c652063686f69636520616c6c6f7765640000000000006044820152606490fd5b60405162461bcd60e51b8152602060048201526013602482015272139bc8185b9cddd95c9cc81cd95b1958dd1959606a1b6044820152606490fd5b60405162461bcd60e51b815260206004820152600d60248201526c105b1c9958591e481d9bdd1959609a1b6044820152606490fd5b60405162461bcd60e51b815260206004820152600d60248201526c141bdb1b0818d85b98d95b1959609a1b6044820152606490fd5b60405162461bcd60e51b815260206004820152600a602482015269141bdb1b08195b99195960b21b6044820152606490fd5b60405162461bcd60e51b815260206004820152601060248201526f141bdb1b081b9bdd081cdd185c9d195960821b6044820152606490fd5b3461016a57600036600319011261016a576020600654604051908152f35b3461016a57600036600319011261016a576020600554604051908152f35b3461016a5760a036600319011261016a5760043567ffffffffffffffff811161016a573660238201121561016a5780600401359067ffffffffffffffff821161016a57366024838301011161016a5760243567ffffffffffffffff811161016a5761084d903690600401610efe565b916044359081151580920361016a57606435946084359261086f4288116110c3565b61087d60055485101561110f565b61088b600654851115611150565b6003548211610d02576001861180610cf6575b15610cb957600454959660005b8881101561090f57876108c38260051b890189611190565b9050116108d2576001016108ab565b60405162461bcd60e51b8152602060048201526015602482015274092dcecc2d8d2c840c2dce6eecae440d8cadccee8d605b1b6044820152606490fd5b508761095c60015496610921886111c3565b60015587600052600060205260406000209388855560018501336bffffffffffffffffffffffff60a01b8254161790558060028601556111e8565b600383015560048201966000976109738154610fab565b601f8111610c89575b508886601f8111600114610c1f57806109aa928c91610c11575b508160011b916000199060031b1c19161790565b90555b60058301600160401b8311610bfd578054838255808410610b83575b508852602088208891805b848410610a4a578a8a7fee8f1cf0b5e1e08a2cc0c92c9bba00b68e0d89106434196211f0b1e7f4621742602460608d8d8d60068e019060ff80198354169116179055806040519485933385526040602086015282604086015201848401378181018301879052601f01601f19168101030190a280f35b610a548183611190565b9067ffffffffffffffff8211610b6f578c610a6f8654610fab565b601f8111610b34575b50908d601f8411600114610aca578360019592946020948796610ab09492610abf575b50508160011b916000199060031b1c19161790565b86555b019301930192916109d4565b013590503880610a9b565b91601f19841687845260208420935b818110610b1c5750936020936001969387969383889510610b02575b505050811b018655610ab3565b0135600019600384901b60f8161c19169055388080610af5565b91936020600181928787013581550195019201610ad9565b60208288610b5e945220601f850160051c81019160208610610b65575b601f0160051c01906111f5565b8c8e610a78565b9091508190610b51565b634e487b7160e01b8d52604160045260248dfd5b818a528360208b2091820191015b818110610b9e57506109c9565b808b610bac60019354610fab565b80610bba575b505001610b91565b601f81118414610bd15750508b81555b8b8d610bb2565b83601f60208486610bec965220920160051c820191016111f5565b808c528b6020812081835555610bca565b634e487b7160e01b89526041600452602489fd5b602491508a0101358c610996565b50818a5260208a209087601f1981168c5b8b828210610c6c57505010610c4f575b5050600186811b0190556109ad565b880160240135600019600389901b60f8161c191690558980610c40565b84016024013585556001909401936020938401938b935001610c30565b610cb390828b5260208b20601f890160051c81019160208a10610b6557601f0160051c01906111f5565b8961097c565b60405162461bcd60e51b8152602060048201526015602482015274125b9d985b1a5908185b9cddd95c9cc818dbdd5b9d605a1b6044820152606490fd5b5060025486111561089e565b60405162461bcd60e51b815260206004820152601760248201527f496e76616c6964207175657374696f6e206c656e6774680000000000000000006044820152606490fd5b3461016a57602036600319011261016a57600435806000526000602052610d746040600020541515610f69565b6000526000602052604060002060018060a01b0360018201541660028201546003830154906005840191610daf600460068701549601611007565b90835492610dbc846110ab565b93610dca6040519586610fe5565b80855260208501809660005260206000206000915b838310610e85575050505090610e1192916040519687526020870152604086015260e0606086015260e0850190610ebd565b90838203608085015251808252602082019160208260051b82010193926000915b838310610e585786808760ff8b818116151560a085015260081c16151560c08301520390f35b9091929394602080610e76600193601f198682030187528951610ebd565b97019301930191939290610e32565b600160208192610e9485611007565b815201920192019190610ddf565b3461016a57600036600319011261016a576020906002548152f35b919082519283825260005b848110610ee9575050826000602080949584010152601f8019910116010190565b80602080928401015182828601015201610ec8565b9181601f8401121561016a5782359167ffffffffffffffff831161016a576020808501948460051b01011161016a57565b602060408183019282815284518094520192019060005b818110610f535750505090565b8251845260209384019390920191600101610f46565b15610f7057565b60405162461bcd60e51b8152602060048201526013602482015272141bdb1b08191bd95cc81b9bdd08195e1a5cdd606a1b6044820152606490fd5b90600182811c92168015610fdb575b6020831014610fc557565b634e487b7160e01b600052602260045260246000fd5b91607f1691610fba565b90601f8019910116810190811067ffffffffffffffff8211176105db57604052565b906040519182600082549261101b84610fab565b80845293600181169081156110895750600114611042575b5061104092500383610fe5565b565b90506000929192526020600020906000915b81831061106d5750509060206110409282010138611033565b6020919350806001915483858901015201910190918492611054565b90506020925061104094915060ff191682840152151560051b82010138611033565b67ffffffffffffffff81116105db5760051b60200190565b156110ca57565b60405162461bcd60e51b815260206004820152601960248201527f53746172742074696d65206d75737420626520667574757265000000000000006044820152606490fd5b1561111657565b60405162461bcd60e51b8152602060048201526012602482015271111d5c985d1a5bdb881d1bdbc81cda1bdc9d60721b6044820152606490fd5b1561115757565b60405162461bcd60e51b81526020600482015260116024820152704475726174696f6e20746f6f206c6f6e6760781b6044820152606490fd5b903590601e198136030182121561016a570180359067ffffffffffffffff821161016a5760200191813603831361016a57565b60001981146111d25760010190565b634e487b7160e01b600052601160045260246000fd5b919082018092116111d257565b818110611200575050565b600081556001016111f5565b91908110156103f65760051b0190565b1561122357565b60405162461bcd60e51b815260206004820152600b60248201526a2737ba1031b932b0ba37b960a91b6044820152606490fd5b1561125d57565b60405162461bcd60e51b815260206004820152600f60248201526e105b1c9958591e481cdd185c9d1959608a1b6044820152606490fdfea2646970667358221220c7559dad66cc83cb522189166dab9ceef0fe49dbc373b5d09e405f45a27742c964736f6c634300081c0033",
  "linkReferences": {},
  "deployedLinkReferences": {}
}