{
  "_format": "hh-sol-artifact-1",
  "contractName": "Voting",
  "sourceName": "contracts/voting.sol",
  "abi": [
    {
      "inputs": [],
      "stateMutability": "nonpayable",
      "type": "constructor"
    },
    {
      "anonymous": false,
      "inputs": [
        {
          "indexed": true,
          "internalType": "uint256",
          "name": "id",
          "type": "uint256"
        }
      ],
      "name": "PollCanceled",
      "type": "event"
    },
    {
      "anonymous": false,
      "inputs": [
        {
          "indexed": true,
          "internalType": "uint256",
          "name": "id",
          "type": "uint256"
        },
        {
          "indexed": false,
          "internalType": "address",
          "name": "creator",
          "type": "address"
        },
        {
          "indexed": false,
          "internalType": "bytes",
          "name": "question",
          "type": "bytes"
        },
        {
          "indexed": false,
          "internalType": "uint256",
          "name": "startTime",
          "type": "uint256"
        },
        {
          "indexed": false,
          "internalType": "uint256",
          "name": "endTime",
          "type": "uint256"
        }
      ],
      "name": "PollCreated",
      "type": "event"
    },
    {
      "anonymous": false,
      "inputs": [
        {
          "indexed": true,
          "internalType": "uint256",
          "name": "pollID",
          "type": "uint256"
        },
        {
          "indexed": false,
          "internalType": "uint256",
          "name": "newStartTime",
          "type": "uint256"
        }
      ],
      "name": "ScheduleUpdated",
      "type": "event"
    },
    {
      "anonymous": false,
      "inputs": [
        {
          "indexed": true,
          "internalType": "address",
          "name": "voter",
          "type": "address"
        },
        {
          "indexed": true,
          "internalType": "uint256",
          "name": "pollID",
          "type": "uint256"
        },
        {
          "indexed": false,
          "internalType": "uint256[]",
          "name": "answerIDs",
          "type": "uint256[]"
        },
        {
          "indexed": false,
          "internalType": "uint256",
          "name": "timestamp",
          "type": "uint256"
        }
      ],
      "name": "Voted",
      "type": "event"
    },
    {
      "inputs": [
        {
          "internalType": "uint256",
          "name": "_pollID",
          "type": "uint256"
        }
      ],
      "name": "cancelPoll",
      "outputs": [],
      "stateMutability": "nonpayable",
      "type": "function"
    },
    {
      "inputs": [
        {
          "internalType": "bytes",
          "name": "_question",
          "type": "bytes"
        },
        {
          "internalType": "bytes[]",
          "name": "_answers",
          "type": "bytes[]"
        },
        {
          "internalType": "bool",
          "name": "_multipleChoices",
          "type": "bool"
        },
        {
          "internalType": "uint256",
          "name": "_startTime",
          "type": "uint256"
        },
        {
          "internalType": "uint256",
          "name": "_duration",
          "type": "uint256"
        }
      ],
      "name": "createPoll",
      "outputs": [],
      "stateMutability": "nonpayable",
      "type": "function"
    },
    {
      "inputs": [
        {
          "internalType": "uint256",
          "name": "_pollID",
          "type": "uint256"
        }
      ],
      "name": "getPollInfo",
      "outputs": [
        {
          "internalType": "address",
          "name": "creator",
          "type": "address"
        },
        {
          "internalType": "uint256",
          "name": "startTime",
          "type": "uint256"
        },
        {
          "internalType": "uint256",
          "name": "endTime",
          "type": "uint256"
        },
        {
          "internalType": "bytes",
          "name": "question",
          "type": "bytes"
        },
        {
          "internalType": "bytes[]",
          "name": "answers",
          "type": "bytes[]"
        },
        {
          "internalType": "bool",
          "name": "multipleChoices",
          "type": "bool"
        },
        {
          "internalType": "bool",
          "name": "canceled",
          "type": "bool"
        }
      ],
      "stateMutability": "view",
      "type": "function"
    },
    {
      "inputs": [
        {
          "internalType": "uint256",
          "name": "_pollID",
          "type": "uint256"
        }
      ],
      "name": "getResults",
      "outputs": [
        {
          "internalType": "uint256[]",
          "name": "",
          "type": "uint256[]"
        }
      ],
      "stateMutability": "view",
      "type": "function"
    },
    {
      "inputs": [
        {
          "internalType": "uint256",
          "name": "_pollID",
          "type": "uint256"
        },
        {
          "internalType": "address",
          "name": "_user",
          "type": "address"
        }
      ],
      "name": "getUserVotes",
      "outputs": [
        {
          "internalType": "uint256[]",
          "name": "",
          "type": "uint256[]"
        }
      ],
      "stateMutability": "view",
      "type": "function"
    },
    {
      "inputs": [],
      "name": "maxAnswerLength",
      "outputs": [
        {
          "internalType": "uint256",
          "name": "",
          "type": "uint256"
        }
      ],
      "stateMutability": "view",
      "type": "function"
    },
    {
      "inputs": [],
      "name": "maxAnswers",
      "outputs": [
        {
          "internalType": "uint256",
          "name": "",
          "type": "uint256"
        }
      ],
      "stateMutability": "view",
      "type": "function"
    },
    {
      "inputs": [],
      "name": "maxDuration",
      "outputs": [
        {
          "internalType": "uint256",
          "name": "",
          "type": "uint256"
        }
      ],
      "stateMutability": "view",
      "type": "function"
    },
    {
      "inputs": [],
      "name": "maxQuestionLength",
      "outputs": [
        {
          "internalType": "uint256",
          "name": "",
          "type": "uint256"
        }
      ],
      "stateMutability": "view",
      "type": "function"
    },
    {
      "inputs": [],
      "name": "minDuration",
      "outputs": [
        {
          "internalType": "uint256",
          "name": "",
          "type": "uint256"
        }
      ],
      "stateMutability": "view",
      "type": "function"
    },
    {
      "inputs": [],
      "name": "nextPollID",
      "outputs": [
        {
          "internalType": "uint256",
          "name": "",
          "type": "uint256"
        }
      ],
      "stateMutability": "view",
      "type": "function"
    },
    {
      "inputs": [
        {
          "internalType": "uint256",
          "name": "_pollID",
          "type": "uint256"
        },
        {
          "internalType": "uint256",
          "name": "_newStartTime",
          "type": "uint256"
        },
        {
          "internalType": "uint256",
          "name": "_newDuration",
          "type": "uint256"
        }
      ],
      "name": "updatePollSchedule",
      "outputs": [],
      "stateMutability": "nonpayable",
      "type": "function"
    },
    {
      "inputs": [
        {
          "internalType": "uint256",
          "name": "_pollID",
          "type": "uint256"
        },
        {
          "internalType": "uint256[]",
          "name": "_answerIDs",
          "type": "uint256[]"
        }
      ],
      "name": "vote",
      "outputs": [],
      "stateMutability": "nonpayable",
      "type": "function"
    }
  ],
  "bytecode": "0x608060405260106002556101006003556080600455603c6005556301e13380600655348015602c57600080fd5b506001805561154a806100406000396000f3fe608060405234801561001057600080fd5b50600436106100cf5760003560e01c806381a60c0d1161008c578063d0ec160711610066578063d0ec160714610182578063df0ff1c614610195578063e2af45071461019e578063e8abfd94146101b157600080fd5b806381a60c0d14610150578063824c157914610170578063b04e283e1461017957600080fd5b80630e7b80ee146100d457806329b8f44a146100f05780633d5c569714610116578063567157611461012b5780636db5c8fd146101345780637055d3681461013d575b600080fd5b6100dd60025481565b6040519081526020015b60405180910390f35b6101036100fe366004610f2e565b6101c4565b6040516100e79796959493929190610f8d565b61012961012436600461109a565b6103cf565b005b6100dd60055481565b6100dd60065481565b61012961014b366004611163565b6106f3565b61016361015e366004610f2e565b610a25565b6040516100e791906111af565b6100dd60045481565b6100dd60015481565b610129610190366004610f2e565b610b03565b6100dd60035481565b6101296101ac3660046111f2565b610c1f565b6101636101bf36600461121e565b610e28565b6000806000606080600080876000808281526020019081526020016000206000015460000361020e5760405162461bcd60e51b81526004016102059061125a565b60405180910390fd5b600089815260208190526040902060018101546002820154600383015460068401546004850180546001600160a01b03909516949091600587019160ff8083169261010090041690849061026190611287565b80601f016020809104026020016040519081016040528092919081815260200182805461028d90611287565b80156102da5780601f106102af576101008083540402835291602001916102da565b820191906000526020600020905b8154815290600101906020018083116102bd57829003601f168201915b5050505050935082805480602002602001604051908101604052809291908181526020016000905b828210156103ae57838290600052602060002001805461032190611287565b80601f016020809104026020016040519081016040528092919081815260200182805461034d90611287565b801561039a5780601f1061036f5761010080835404028352916020019161039a565b820191906000526020600020905b81548152906001019060200180831161037d57829003601f168201915b505050505081526020019060010190610302565b50505050925098509850985098509850985098505050919395979092949650565b818142821161041c5760405162461bcd60e51b815260206004820152601960248201527853746172742074696d65206d7573742062652066757475726560381b6044820152606401610205565b6005548110156104635760405162461bcd60e51b8152602060048201526012602482015271111d5c985d1a5bdb881d1bdbc81cda1bdc9d60721b6044820152606401610205565b6006548111156104a95760405162461bcd60e51b81526020600482015260116024820152704475726174696f6e20746f6f206c6f6e6760781b6044820152606401610205565b6003548811156104fb5760405162461bcd60e51b815260206004820152601760248201527f496e76616c6964207175657374696f6e206c656e6774680000000000000000006044820152606401610205565b60018611801561050d57506002548611155b6105515760405162461bcd60e51b8152602060048201526015602482015274125b9d985b1a5908185b9cddd95c9cc818dbdd5b9d605a1b6044820152606401610205565b60005b868110156105d357600454888883818110610571576105716112bb565b905060200281019061058391906112d1565b905011156105cb5760405162461bcd60e51b8152602060048201526015602482015274092dcecc2d8d2c840c2dce6eecae440d8cadccee8d605b1b6044820152606401610205565b600101610554565b5060018054600091826105e58361132e565b9091555060008181526020819052604090208181556001810180546001600160a01b03191633179055600281018790559091506106228587611347565b6003820155600481016106368b8d836113c5565b5060005b8881101561069357816005018a8a83818110610658576106586112bb565b905060200281019061066a91906112d1565b8254600181018455600093845260209093209092019161068a91836113c5565b5060010161063a565b5060068101805460ff191688151517905560405182907f29e5fde336ee434894d2a169e620d1e5c798e8a26a9780e91606a217a027947b906106de9033908f908f908c908c90611485565b60405180910390a25050505050505050505050565b600083815260208190526040812060028101548592036107255760405162461bcd60e51b81526004016102059061125a565b806002015442101561076c5760405162461bcd60e51b815260206004820152601060248201526f141bdb1b081b9bdd081cdd185c9d195960821b6044820152606401610205565b80600301544211156107ad5760405162461bcd60e51b815260206004820152600a602482015269141bdb1b08195b99195960b21b6044820152606401610205565b6006810154610100900460ff16156107f75760405162461bcd60e51b815260206004820152600d60248201526c141bdb1b0818d85b98d95b1959609a1b6044820152606401610205565b6000858152602081815260408083203384526008810190925290912054156108515760405162461bcd60e51b815260206004820152600d60248201526c105b1c9958591e481d9bdd1959609a1b6044820152606401610205565b836108945760405162461bcd60e51b8152602060048201526013602482015272139bc8185b9cddd95c9cc81cd95b1958dd1959606a1b6044820152606401610205565b600681015460ff166108f057600184146108f05760405162461bcd60e51b815260206004820152601a60248201527f4f6e6c792073696e676c652063686f69636520616c6c6f7765640000000000006044820152606401610205565b60005b84811015610962576005820154868683818110610912576109126112bb565b905060200201351061095a5760405162461bcd60e51b8152602060048201526011602482015270125b9d985b1a5908185b9cddd95c881251607a1b6044820152606401610205565b6001016108f3565b50336000908152600882016020526040902061097f908686610ece565b5060005b848110156109d6578160070160008787848181106109a3576109a36112bb565b90506020020135815260200190815260200160002060008154809291906109c99061132e565b9091555050600101610983565b5085336001600160a01b03167f13cece5f499f034b135ee8a40385242c6bdcebeb11a85ba062f7bec84b42e5c9878742604051610a15939291906114d6565b60405180910390a3505050505050565b60008181526020819052604081205460609183919003610a575760405162461bcd60e51b81526004016102059061125a565b6000838152602081905260408120600581015490919067ffffffffffffffff811115610a8557610a85611360565b604051908082528060200260200182016040528015610aae578160200160208202803683370190505b50905060005b6005830154811015610af85760008181526007840160205260409020548251839083908110610ae557610ae56112bb565b6020908102919091010152600101610ab4565b509250505b50919050565b60008181526020819052604090206001015481906001600160a01b03163314610b5c5760405162461bcd60e51b815260206004820152600b60248201526a2737ba1031b932b0ba37b960a91b6044820152606401610205565b600082815260208190526040812054839103610b8a5760405162461bcd60e51b81526004016102059061125a565b600083815260208190526040902060028101544210610bdd5760405162461bcd60e51b815260206004820152600f60248201526e105b1c9958591e481cdd185c9d1959608a1b6044820152606401610205565b60068101805461ff00191661010017905560405184907fcbf6c6edb69cb9a305bdb44565eee6d45abd4788040a52a368e5d93dc6d6d35c90600090a250505050565b60008381526020819052604090206001015483906001600160a01b03163314610c785760405162461bcd60e51b815260206004820152600b60248201526a2737ba1031b932b0ba37b960a91b6044820152606401610205565b8282428211610cc55760405162461bcd60e51b815260206004820152601960248201527853746172742074696d65206d7573742062652066757475726560381b6044820152606401610205565b600554811015610d0c5760405162461bcd60e51b8152602060048201526012602482015271111d5c985d1a5bdb881d1bdbc81cda1bdc9d60721b6044820152606401610205565b600654811115610d525760405162461bcd60e51b81526020600482015260116024820152704475726174696f6e20746f6f206c6f6e6760781b6044820152606401610205565b600086815260208190526040812054879103610d805760405162461bcd60e51b81526004016102059061125a565b600087815260208190526040902060028101544210610dd35760405162461bcd60e51b815260206004820152600f60248201526e105b1c9958591e481cdd185c9d1959608a1b6044820152606401610205565b60028101879055610de48688611347565b600382015560405187815288907f644a9f205d77531ec9577a8e9e61b6f8737b60425f866c6d371472dd268427599060200160405180910390a25050505050505050565b60008281526020819052604081205460609184919003610e5a5760405162461bcd60e51b81526004016102059061125a565b6000848152602081815260408083206001600160a01b038716845260080182529182902080548351818402810184019094528084529091830182828015610ec057602002820191906000526020600020905b815481526020019060010190808311610eac575b505050505091505092915050565b828054828255906000526020600020908101928215610f09579160200282015b82811115610f09578235825591602001919060010190610eee565b50610f15929150610f19565b5090565b5b80821115610f155760008155600101610f1a565b600060208284031215610f4057600080fd5b5035919050565b6000815180845260005b81811015610f6d57602081850181015186830182015201610f51565b506000602082860101526020601f19601f83011685010191505092915050565b60018060a01b038816815286602082015285604082015260e060608201526000610fba60e0830187610f47565b828103608084015280865180835260208301915060208160051b8401016020890160005b8381101561101057601f19868403018552610ffa838351610f47565b6020958601959093509190910190600101610fde565b505087151560a0870152935061102592505050565b82151560c083015298975050505050505050565b60008083601f84011261104b57600080fd5b50813567ffffffffffffffff81111561106357600080fd5b6020830191508360208260051b850101111561107e57600080fd5b9250929050565b8035801515811461109557600080fd5b919050565b600080600080600080600060a0888a0312156110b557600080fd5b873567ffffffffffffffff8111156110cc57600080fd5b8801601f81018a136110dd57600080fd5b803567ffffffffffffffff8111156110f457600080fd5b8a602082840101111561110657600080fd5b60209182019850965088013567ffffffffffffffff81111561112757600080fd5b6111338a828b01611039565b9096509450611146905060408901611085565b969995985093969295946060840135945060809093013592915050565b60008060006040848603121561117857600080fd5b83359250602084013567ffffffffffffffff81111561119657600080fd5b6111a286828701611039565b9497909650939450505050565b602080825282518282018190526000918401906040840190835b818110156111e75783518352602093840193909201916001016111c9565b509095945050505050565b60008060006060848603121561120757600080fd5b505081359360208301359350604090920135919050565b6000806040838503121561123157600080fd5b8235915060208301356001600160a01b038116811461124f57600080fd5b809150509250929050565b602080825260139082015272141bdb1b08191bd95cc81b9bdd08195e1a5cdd606a1b604082015260600190565b600181811c9082168061129b57607f821691505b602082108103610afd57634e487b7160e01b600052602260045260246000fd5b634e487b7160e01b600052603260045260246000fd5b6000808335601e198436030181126112e857600080fd5b83018035915067ffffffffffffffff82111561130357600080fd5b60200191503681900382131561107e57600080fd5b634e487b7160e01b600052601160045260246000fd5b60006001820161134057611340611318565b5060010190565b8082018082111561135a5761135a611318565b92915050565b634e487b7160e01b600052604160045260246000fd5b601f8211156113c057806000526020600020601f840160051c8101602085101561139d5750805b601f840160051c820191505b818110156113bd57600081556001016113a9565b50505b505050565b67ffffffffffffffff8311156113dd576113dd611360565b6113f1836113eb8354611287565b83611376565b6000601f841160018114611425576000851561140d5750838201355b600019600387901b1c1916600186901b1783556113bd565b600083815260209020601f19861690835b828110156114565786850135825560209485019460019092019101611436565b50868210156114735760001960f88860031b161c19848701351681555b505060018560011b0183555050505050565b6001600160a01b03861681526080602082018190528101849052838560a0830137600060a08583010152600060a0601f19601f87011683010190508360408301528260608301529695505050505050565b6040808252810183905260006001600160fb1b038411156114f657600080fd5b8360051b80866060850137602083019390935250016060019291505056fea264697066735822122055d5b70e31f8dab3fcd4f3263a7bd85f8a8f04a0addd6fc1bd34f6855e4d4b4d64736f6c634300081c0033",
  "linkReferences": {},
  "deployedLinkReferences": {}
}