{
  "_format": "hh-sol-artifact-1",
  "contractName": "Voting",
  "sourceName": "contracts/voting.sol",
  "abi": [
    {
      "anonymous": false,
      "inputs": [
        {
          "indexed": false,
          "internalType": "uint256",
          "name": "pollID",
          "type": "uint256"
        },
        {
          "indexed": false,
          "internalType": "address",
          "name": "creator",
          "type": "address"
        },
        {
          "indexed": false,
          "internalType": "string",
          "name": "question",
          "type": "string"
        }
      ],
      "name": "PollCreated",
      "type": "event"
    },
    {
      "anonymous": false,
      "inputs": [
        {
          "indexed": false,
          "internalType": "address",
          "name": "voter",
          "type": "address"
        },
        {
          "indexed": false,
          "internalType": "uint256",
          "name": "pollID",
          "type": "uint256"
        },
        {
          "indexed": false,
          "internalType": "uint256[]",
          "name": "answerIDs",
          "type": "uint256[]"
        }
      ],
      "name": "Voted",
      "type": "event"
    },
    {
      "inputs": [
        {
          "internalType": "string",
          "name": "_question",
          "type": "string"
        },
        {
          "internalType": "string[]",
          "name": "_answers",
          "type": "string[]"
        },
        {
          "internalType": "bool",
          "name": "_multipleChoices",
          "type": "bool"
        },
        {
          "internalType": "uint256",
          "name": "_duration",
          "type": "uint256"
        }
      ],
      "name": "createPoll",
      "outputs": [],
      "stateMutability": "nonpayable",
      "type": "function"
    },
    {
      "inputs": [],
      "name": "getAllPolls",
      "outputs": [
        {
          "internalType": "uint256[]",
          "name": "",
          "type": "uint256[]"
        }
      ],
      "stateMutability": "view",
      "type": "function"
    },
    {
      "inputs": [
        {
          "internalType": "uint256",
          "name": "_pollID",
          "type": "uint256"
        }
      ],
      "name": "getAnswers",
      "outputs": [
        {
          "internalType": "string[]",
          "name": "",
          "type": "string[]"
        }
      ],
      "stateMutability": "view",
      "type": "function"
    },
    {
      "inputs": [
        {
          "internalType": "uint256",
          "name": "_pollID",
          "type": "uint256"
        }
      ],
      "name": "getResults",
      "outputs": [
        {
          "internalType": "uint256[]",
          "name": "",
          "type": "uint256[]"
        }
      ],
      "stateMutability": "view",
      "type": "function"
    },
    {
      "inputs": [],
      "name": "nextPollID",
      "outputs": [
        {
          "internalType": "uint256",
          "name": "",
          "type": "uint256"
        }
      ],
      "stateMutability": "view",
      "type": "function"
    },
    {
      "inputs": [
        {
          "internalType": "uint256",
          "name": "",
          "type": "uint256"
        }
      ],
      "name": "polls",
      "outputs": [
        {
          "internalType": "uint256",
          "name": "pollID",
          "type": "uint256"
        },
        {
          "internalType": "address",
          "name": "creator",
          "type": "address"
        },
        {
          "internalType": "uint256",
          "name": "startTime",
          "type": "uint256"
        },
        {
          "internalType": "uint256",
          "name": "endTime",
          "type": "uint256"
        },
        {
          "internalType": "string",
          "name": "question",
          "type": "string"
        },
        {
          "internalType": "bool",
          "name": "multipleChoices",
          "type": "bool"
        }
      ],
      "stateMutability": "view",
      "type": "function"
    },
    {
      "inputs": [
        {
          "internalType": "uint256",
          "name": "_pollID",
          "type": "uint256"
        },
        {
          "internalType": "uint256[]",
          "name": "_answerIDs",
          "type": "uint256[]"
        }
      ],
      "name": "vote",
      "outputs": [],
      "stateMutability": "nonpayable",
      "type": "function"
    }
  ],
  "bytecode": "0x6080604052348015600f57600080fd5b50611d4c8061001f6000396000f3fe608060405234801561001057600080fd5b506004361061007c5760003560e01c80637055d3681161005b5780637055d368146100eb57806381a60c0d14610107578063ac2f007414610137578063b04e283e1461016c5761007c565b80622ce0a5146100815780631e59e02a1461009d57806332b633fa146100cd575b600080fd5b61009b60048036038101906100969190610ead565b61018a565b005b6100b760048036038101906100b29190610f51565b610384565b6040516100c491906110bf565b60405180910390f35b6100d56104d0565b6040516100e2919061119f565b60405180910390f35b61010560048036038101906101009190611284565b610563565b005b610121600480360381019061011c9190610f51565b6108bb565b60405161012e919061119f565b60405180910390f35b610151600480360381019061014c9190610f51565b610986565b60405161016396959493929190611389565b60405180910390f35b610174610a77565b60405161018191906113f1565b60405180910390f35b600085859050116101d0576040517f08c379a00000000000000000000000000000000000000000000000000000000081526004016101c790611458565b60405180910390fd5b6001835111610214576040517f08c379a000000000000000000000000000000000000000000000000000000000815260040161020b906114c4565b60405180910390fd5b60008111610257576040517f08c379a000000000000000000000000000000000000000000000000000000000815260040161024e90611530565b60405180910390fd5b6000806000600154815260200190815260200160002090506001548160000181905550338160010160006101000a81548173ffffffffffffffffffffffffffffffffffffffff021916908373ffffffffffffffffffffffffffffffffffffffff16021790555042816002018190555081426102d2919061157f565b816003018190555085858260040191826102ed9291906117ca565b5083816005019080519060200190610306929190610a7d565b50828160060160006101000a81548160ff021916908315150217905550600160008154809291906103369061189a565b91905055507f7cf84e937b660a86b8d03903abf94c2e2976b2273da8dfbef2d89b7ac560463e8160000154338888604051610374949392919061190f565b60405180910390a1505050505050565b606060008060008481526020019081526020016000209050600080600085815260200190815260200160002060020154036103f4576040517f08c379a00000000000000000000000000000000000000000000000000000000081526004016103eb9061199b565b60405180910390fd5b80600501805480602002602001604051908101604052809291908181526020016000905b828210156104c4578382906000526020600020018054610437906115ed565b80601f0160208091040260200160405190810160405280929190818152602001828054610463906115ed565b80156104b05780601f10610485576101008083540402835291602001916104b0565b820191906000526020600020905b81548152906001019060200180831161049357829003601f168201915b505050505081526020019060010190610418565b50505050915050919050565b6060600060015467ffffffffffffffff8111156104f0576104ef610c2e565b5b60405190808252806020026020018201604052801561051e5781602001602082028036833780820191505090505b50905060005b60015481101561055b5780828281518110610542576105416119bb565b5b6020026020010181815250508080600101915050610524565b508091505090565b816000806000838152602001908152602001600020905060008160020154036105c1576040517f08c379a00000000000000000000000000000000000000000000000000000000081526004016105b89061199b565b60405180910390fd5b4281600301541015610608576040517f08c379a00000000000000000000000000000000000000000000000000000000081526004016105ff90611a36565b60405180910390fd5b428160020154111561064f576040517f08c379a000000000000000000000000000000000000000000000000000000000815260040161064690611aa2565b60405180910390fd5b6000806000868152602001908152602001600020905060008160080160003373ffffffffffffffffffffffffffffffffffffffff1673ffffffffffffffffffffffffffffffffffffffff16815260200190815260200160002080549050146106ec576040517f08c379a00000000000000000000000000000000000000000000000000000000081526004016106e390611b0e565b60405180910390fd5b8060060160009054906101000a900460ff16610747576001845114610746576040517f08c379a000000000000000000000000000000000000000000000000000000000815260040161073d90611b7a565b60405180910390fd5b5b60005b84518110156107c357816005018054905085828151811061076e5761076d6119bb565b5b6020026020010151106107b6576040517f08c379a00000000000000000000000000000000000000000000000000000000081526004016107ad90611be6565b60405180910390fd5b808060010191505061074a565b50838160080160003373ffffffffffffffffffffffffffffffffffffffff1673ffffffffffffffffffffffffffffffffffffffff1681526020019081526020016000209080519060200190610819929190610ad6565b5060005b84518110156108785781600701600086838151811061083f5761083e6119bb565b5b6020026020010151815260200190815260200160002060008154809291906108669061189a565b9190505550808060010191505061081d565b507f871b62f932d6ef8afa59aed962334ae3a32efd388f7ec8932a67b7e47ae7795a3386866040516108ac93929190611c06565b60405180910390a15050505050565b6060600080600084815260200190815260200160002090506000816005018054905067ffffffffffffffff8111156108f6576108f5610c2e565b5b6040519080825280602002602001820160405280156109245781602001602082028036833780820191505090505b50905060005b826005018054905081101561097b5782600701600082815260200190815260200160002054828281518110610962576109616119bb565b5b602002602001018181525050808060010191505061092a565b508092505050919050565b60006020528060005260406000206000915090508060000154908060010160009054906101000a900473ffffffffffffffffffffffffffffffffffffffff16908060020154908060030154908060040180546109e1906115ed565b80601f0160208091040260200160405190810160405280929190818152602001828054610a0d906115ed565b8015610a5a5780601f10610a2f57610100808354040283529160200191610a5a565b820191906000526020600020905b815481529060010190602001808311610a3d57829003601f168201915b5050505050908060060160009054906101000a900460ff16905086565b60015481565b828054828255906000526020600020908101928215610ac5579160200282015b82811115610ac4578251829081610ab49190611c44565b5091602001919060010190610a9d565b5b509050610ad29190610b23565b5090565b828054828255906000526020600020908101928215610b12579160200282015b82811115610b11578251825591602001919060010190610af6565b5b509050610b1f9190610b47565b5090565b5b80821115610b435760008181610b3a9190610b64565b50600101610b24565b5090565b5b80821115610b60576000816000905550600101610b48565b5090565b508054610b70906115ed565b6000825580601f10610b825750610ba1565b601f016020900490600052602060002090810190610ba09190610b47565b5b50565b6000604051905090565b600080fd5b600080fd5b600080fd5b600080fd5b600080fd5b60008083601f840112610bdd57610bdc610bb8565b5b8235905067ffffffffffffffff811115610bfa57610bf9610bbd565b5b602083019150836001820283011115610c1657610c15610bc2565b5b9250929050565b6000601f19601f8301169050919050565b7f4e487b7100000000000000000000000000000000000000000000000000000000600052604160045260246000fd5b610c6682610c1d565b810181811067ffffffffffffffff82111715610c8557610c84610c2e565b5b80604052505050565b6000610c98610ba4565b9050610ca48282610c5d565b919050565b600067ffffffffffffffff821115610cc457610cc3610c2e565b5b602082029050602081019050919050565b600080fd5b600067ffffffffffffffff821115610cf557610cf4610c2e565b5b610cfe82610c1d565b9050602081019050919050565b82818337600083830152505050565b6000610d2d610d2884610cda565b610c8e565b905082815260208101848484011115610d4957610d48610cd5565b5b610d54848285610d0b565b509392505050565b600082601f830112610d7157610d70610bb8565b5b8135610d81848260208601610d1a565b91505092915050565b6000610d9d610d9884610ca9565b610c8e565b90508083825260208201905060208402830185811115610dc057610dbf610bc2565b5b835b81811015610e0757803567ffffffffffffffff811115610de557610de4610bb8565b5b808601610df28982610d5c565b85526020850194505050602081019050610dc2565b5050509392505050565b600082601f830112610e2657610e25610bb8565b5b8135610e36848260208601610d8a565b91505092915050565b60008115159050919050565b610e5481610e3f565b8114610e5f57600080fd5b50565b600081359050610e7181610e4b565b92915050565b6000819050919050565b610e8a81610e77565b8114610e9557600080fd5b50565b600081359050610ea781610e81565b92915050565b600080600080600060808688031215610ec957610ec8610bae565b5b600086013567ffffffffffffffff811115610ee757610ee6610bb3565b5b610ef388828901610bc7565b9550955050602086013567ffffffffffffffff811115610f1657610f15610bb3565b5b610f2288828901610e11565b9350506040610f3388828901610e62565b9250506060610f4488828901610e98565b9150509295509295909350565b600060208284031215610f6757610f66610bae565b5b6000610f7584828501610e98565b91505092915050565b600081519050919050565b600082825260208201905092915050565b6000819050602082019050919050565b600081519050919050565b600082825260208201905092915050565b60005b83811015610fe4578082015181840152602081019050610fc9565b60008484015250505050565b6000610ffb82610faa565b6110058185610fb5565b9350611015818560208601610fc6565b61101e81610c1d565b840191505092915050565b60006110358383610ff0565b905092915050565b6000602082019050919050565b600061105582610f7e565b61105f8185610f89565b93508360208202850161107185610f9a565b8060005b858110156110ad578484038952815161108e8582611029565b94506110998361103d565b925060208a01995050600181019050611075565b50829750879550505050505092915050565b600060208201905081810360008301526110d9818461104a565b905092915050565b600081519050919050565b600082825260208201905092915050565b6000819050602082019050919050565b61111681610e77565b82525050565b6000611128838361110d565b60208301905092915050565b6000602082019050919050565b600061114c826110e1565b61115681856110ec565b9350611161836110fd565b8060005b83811015611192578151611179888261111c565b975061118483611134565b925050600181019050611165565b5085935050505092915050565b600060208201905081810360008301526111b98184611141565b905092915050565b600067ffffffffffffffff8211156111dc576111db610c2e565b5b602082029050602081019050919050565b60006112006111fb846111c1565b610c8e565b9050808382526020820190506020840283018581111561122357611222610bc2565b5b835b8181101561124c57806112388882610e98565b845260208401935050602081019050611225565b5050509392505050565b600082601f83011261126b5761126a610bb8565b5b813561127b8482602086016111ed565b91505092915050565b6000806040838503121561129b5761129a610bae565b5b60006112a985828601610e98565b925050602083013567ffffffffffffffff8111156112ca576112c9610bb3565b5b6112d685828601611256565b9150509250929050565b6112e981610e77565b82525050565b600073ffffffffffffffffffffffffffffffffffffffff82169050919050565b600061131a826112ef565b9050919050565b61132a8161130f565b82525050565b600082825260208201905092915050565b600061134c82610faa565b6113568185611330565b9350611366818560208601610fc6565b61136f81610c1d565b840191505092915050565b61138381610e3f565b82525050565b600060c08201905061139e60008301896112e0565b6113ab6020830188611321565b6113b860408301876112e0565b6113c560608301866112e0565b81810360808301526113d78185611341565b90506113e660a083018461137a565b979650505050505050565b600060208201905061140660008301846112e0565b92915050565b7f5175657374696f6e2063616e6e6f7420626520656d7074790000000000000000600082015250565b6000611442601883611330565b915061144d8261140c565b602082019050919050565b6000602082019050818103600083015261147181611435565b9050919050565b7f4e656564206174206c65617374203220616e7377657273000000000000000000600082015250565b60006114ae601783611330565b91506114b982611478565b602082019050919050565b600060208201905081810360008301526114dd816114a1565b9050919050565b7f4475726174696f6e206d757374206265203e2030000000000000000000000000600082015250565b600061151a601483611330565b9150611525826114e4565b602082019050919050565b600060208201905081810360008301526115498161150d565b9050919050565b7f4e487b7100000000000000000000000000000000000000000000000000000000600052601160045260246000fd5b600061158a82610e77565b915061159583610e77565b92508282019050808211156115ad576115ac611550565b5b92915050565b600082905092915050565b7f4e487b7100000000000000000000000000000000000000000000000000000000600052602260045260246000fd5b6000600282049050600182168061160557607f821691505b602082108103611618576116176115be565b5b50919050565b60008190508160005260206000209050919050565b60006020601f8301049050919050565b600082821b905092915050565b6000600883026116807fffffffffffffffffffffffffffffffffffffffffffffffffffffffffffffffff82611643565b61168a8683611643565b95508019841693508086168417925050509392505050565b6000819050919050565b60006116c76116c26116bd84610e77565b6116a2565b610e77565b9050919050565b6000819050919050565b6116e1836116ac565b6116f56116ed826116ce565b848454611650565b825550505050565b600090565b61170a6116fd565b6117158184846116d8565b505050565b5b818110156117395761172e600082611702565b60018101905061171b565b5050565b601f82111561177e5761174f8161161e565b61175884611633565b81016020851015611767578190505b61177b61177385611633565b83018261171a565b50505b505050565b600082821c905092915050565b60006117a160001984600802611783565b1980831691505092915050565b60006117ba8383611790565b9150826002028217905092915050565b6117d483836115b3565b67ffffffffffffffff8111156117ed576117ec610c2e565b5b6117f782546115ed565b61180282828561173d565b6000601f831160018114611831576000841561181f578287013590505b61182985826117ae565b865550611891565b601f19841661183f8661161e565b60005b8281101561186757848901358255600182019150602085019450602081019050611842565b868310156118845784890135611880601f891682611790565b8355505b6001600288020188555050505b50505050505050565b60006118a582610e77565b91507fffffffffffffffffffffffffffffffffffffffffffffffffffffffffffffffff82036118d7576118d6611550565b5b600182019050919050565b60006118ee8385611330565b93506118fb838584610d0b565b61190483610c1d565b840190509392505050565b600060608201905061192460008301876112e0565b6119316020830186611321565b81810360408301526119448184866118e2565b905095945050505050565b7f506f6c6c20646f6573206e6f7420657869737400000000000000000000000000600082015250565b6000611985601383611330565b91506119908261194f565b602082019050919050565b600060208201905081810360008301526119b481611978565b9050919050565b7f4e487b7100000000000000000000000000000000000000000000000000000000600052603260045260246000fd5b7f506f6c6c2068617320656e646564000000000000000000000000000000000000600082015250565b6000611a20600e83611330565b9150611a2b826119ea565b602082019050919050565b60006020820190508181036000830152611a4f81611a13565b9050919050565b7f506f6c6c206e6f74207374617274656400000000000000000000000000000000600082015250565b6000611a8c601083611330565b9150611a9782611a56565b602082019050919050565b60006020820190508181036000830152611abb81611a7f565b9050919050565b7f416c726561647920766f74656400000000000000000000000000000000000000600082015250565b6000611af8600d83611330565b9150611b0382611ac2565b602082019050919050565b60006020820190508181036000830152611b2781611aeb565b9050919050565b7f4f6e6c79206f6e65206f7074696f6e20616c6c6f776564000000000000000000600082015250565b6000611b64601783611330565b9150611b6f82611b2e565b602082019050919050565b60006020820190508181036000830152611b9381611b57565b9050919050565b7f496e76616c696420616e73776572204944000000000000000000000000000000600082015250565b6000611bd0601183611330565b9150611bdb82611b9a565b602082019050919050565b60006020820190508181036000830152611bff81611bc3565b9050919050565b6000606082019050611c1b6000830186611321565b611c2860208301856112e0565b8181036040830152611c3a8184611141565b9050949350505050565b611c4d82610faa565b67ffffffffffffffff811115611c6657611c65610c2e565b5b611c7082546115ed565b611c7b82828561173d565b600060209050601f831160018114611cae5760008415611c9c578287015190505b611ca685826117ae565b865550611d0e565b601f198416611cbc8661161e565b60005b82811015611ce457848901518255600182019150602085019450602081019050611cbf565b86831015611d015784890151611cfd601f891682611790565b8355505b6001600288020188555050505b50505050505056fea26469706673582212206b542999f2dae605ac58b8669326ff0f9ccfcf8a98e4547ff0a36abd125df21364736f6c634300081c0033",
  "linkReferences": {},
  "deployedLinkReferences": {}
}