{"contracts/voting.sol":{"Voting":{"abi":[{"anonymous":false,"inputs":[{"indexed":false,"internalType":"uint256","name":"pollID","type":"uint256"},{"indexed":false,"internalType":"address","name":"creator","type":"address"},{"indexed":false,"internalType":"string","name":"question","type":"string"}],"name":"PollCreated","type":"event"},{"anonymous":false,"inputs":[{"indexed":false,"internalType":"address","name":"voter","type":"address"},{"indexed":false,"internalType":"uint256","name":"pollID","type":"uint256"},{"indexed":false,"internalType":"uint256[]","name":"answerIDs","type":"uint256[]"}],"name":"Voted","type":"event"},{"inputs":[],"name":"MAX_ANSWERS","outputs":[{"internalType":"uint256","name":"","type":"uint256"}],"stateMutability":"view","type":"function"},{"inputs":[],"name":"MAX_ANSWER_LENGTH","outputs":[{"internalType":"uint256","name":"","type":"uint256"}],"stateMutability":"view","type":"function"},{"inputs":[],"name":"MAX_QUESTION_LENGTH","outputs":[{"internalType":"uint256","name":"","type":"uint256"}],"stateMutability":"view","type":"function"},{"inputs":[{"internalType":"string","name":"_question","type":"string"},{"internalType":"string[]","name":"_answers","type":"string[]"},{"internalType":"bool","name":"_multipleChoices","type":"bool"},{"internalType":"uint256","name":"_duration","type":"uint256"}],"name":"createPoll","outputs":[],"stateMutability":"nonpayable","type":"function"},{"inputs":[],"name":"getActivePolls","outputs":[{"internalType":"uint256[]","name":"","type":"uint256[]"}],"stateMutability":"view","type":"function"},{"inputs":[{"internalType":"uint256","name":"_pollID","type":"uint256"}],"name":"getPollInfo","outputs":[{"internalType":"address","name":"creator","type":"address"},{"internalType":"uint256","name":"startTime","type":"uint256"},{"internalType":"uint256","name":"endTime","type":"uint256"},{"internalType":"string","name":"question","type":"string"},{"internalType":"string[]","name":"answers","type":"string[]"},{"internalType":"bool","name":"multipleChoices","type":"bool"}],"stateMutability":"view","type":"function"},{"inputs":[{"internalType":"uint256","name":"_pollID","type":"uint256"}],"name":"getResults","outputs":[{"internalType":"uint256[]","name":"","type":"uint256[]"}],"stateMutability":"view","type":"function"},{"inputs":[{"internalType":"uint256","name":"_pollID","type":"uint256"},{"internalType":"address","name":"_user","type":"address"}],"name":"getUserVotes","outputs":[{"internalType":"uint256[]","name":"","type":"uint256[]"}],"stateMutability":"view","type":"function"},{"inputs":[],"name":"nextPollID","outputs":[{"internalType":"uint256","name":"","type":"uint256"}],"stateMutability":"view","type":"function"},{"inputs":[{"internalType":"uint256","name":"","type":"uint256"}],"name":"polls","outputs":[{"internalType":"uint256","name":"pollID","type":"uint256"},{"internalType":"address","name":"creator","type":"address"},{"internalType":"uint256","name":"startTime","type":"uint256"},{"internalType":"uint256","name":"endTime","type":"uint256"},{"internalType":"string","name":"question","type":"string"},{"internalType":"bool","name":"multipleChoices","type":"bool"}],"stateMutability":"view","type":"function"},{"inputs":[{"internalType":"uint256","name":"_pollID","type":"uint256"},{"internalType":"uint256[]","name":"_answerIDs","type":"uint256[]"}],"name":"vote","outputs":[],"stateMutability":"nonpayable","type":"function"}],"evm":{"bytecode":{"linkReferences":{},"object":"6080604052348015600f57600080fd5b506121f18061001f6000396000f3fe608060405234801561001057600080fd5b50600436106100a85760003560e01c806381a60c0d1161007157806381a60c0d14610156578063ac2f007414610186578063b04e283e146101bb578063d29f70e8146101d9578063e8abfd94146101f7578063fd3a832914610227576100a8565b80622ce0a5146100ad57806329b8f44a146100c957806363a9492f146100fe578063701c73721461011c5780637055d3681461013a575b600080fd5b6100c760048036038101906100c2919061122d565b610245565b005b6100e360048036038101906100de91906112d1565b6104fe565b6040516100f5969594939291906114e8565b60405180910390f35b610106610722565b6040516101139190611615565b60405180910390f35b610124610828565b6040516101319190611637565b60405180910390f35b610154600480360381019061014f9190611715565b61082d565b005b610170600480360381019061016b91906112d1565b610b85565b60405161017d9190611615565b60405180910390f35b6101a0600480360381019061019b91906112d1565b610c50565b6040516101b296959493929190611771565b60405180910390f35b6101c3610d41565b6040516101d09190611637565b60405180910390f35b6101e1610d47565b6040516101ee9190611637565b60405180910390f35b610211600480360381019061020c9190611805565b610d4d565b60405161021e9190611615565b60405180910390f35b61022f610df8565b60405161023c9190611637565b60405180910390f35b60008585905011801561025d57506101008585905011155b61029c576040517f08c379a000000000000000000000000000000000000000000000000000000000815260040161029390611891565b60405180910390fd5b600183511180156102af57506050835111155b6102ee576040517f08c379a00000000000000000000000000000000000000000000000000000000081526004016102e5906118fd565b60405180910390fd5b60008111610331576040517f08c379a000000000000000000000000000000000000000000000000000000000815260040161032890611969565b60405180910390fd5b60005b83518110156103d057600084828151811061035257610351611989565b5b6020026020010151511180156103845750606484828151811061037857610377611989565b5b60200260200101515111155b6103c3576040517f08c379a00000000000000000000000000000000000000000000000000000000081526004016103ba90611a04565b60405180910390fd5b8080600101915050610334565b506000806000600154815260200190815260200160002090506001548160000181905550338160010160006101000a81548173ffffffffffffffffffffffffffffffffffffffff021916908373ffffffffffffffffffffffffffffffffffffffff160217905550428160020181905550814261044c9190611a53565b81600301819055508585826004019182610467929190611c9e565b5083816005019080519060200190610480929190610dfd565b50828160060160006101000a81548160ff021916908315150217905550600160008154809291906104b090611d6e565b91905055507f7cf84e937b660a86b8d03903abf94c2e2976b2273da8dfbef2d89b7ac560463e81600001543388886040516104ee9493929190611de3565b60405180910390a1505050505050565b600080600060608060008060008089815260200190815260200160002090506000816002015403610564576040517f08c379a000000000000000000000000000000000000000000000000000000000815260040161055b90611e6f565b60405180910390fd5b8060010160009054906101000a900473ffffffffffffffffffffffffffffffffffffffff168160020154826003015483600401846005018560060160009054906101000a900460ff168280546105b990611ac1565b80601f01602080910402602001604051908101604052809291908181526020018280546105e590611ac1565b80156106325780601f1061060757610100808354040283529160200191610632565b820191906000526020600020905b81548152906001019060200180831161061557829003601f168201915b5050505050925081805480602002602001604051908101604052809291908181526020016000905b8282101561070657838290600052602060002001805461067990611ac1565b80601f01602080910402602001604051908101604052809291908181526020018280546106a590611ac1565b80156106f25780601f106106c7576101008083540402835291602001916106f2565b820191906000526020600020905b8154815290600101906020018083116106d557829003601f168201915b50505050508152602001906001019061065a565b5050505091509650965096509650965096505091939550919395565b60606000805b60015481101561076a5742600080838152602001908152602001600020600301541061075d57818061075990611d6e565b9250505b8080600101915050610728565b5060008167ffffffffffffffff81111561078757610786610fae565b5b6040519080825280602002602001820160405280156107b55781602001602082028036833780820191505090505b5090506000805b60015481101561081e5742600080838152602001908152602001600020600301541061081157808383815181106107f6576107f5611989565b5b602002602001018181525050818061080d90611d6e565b9250505b80806001019150506107bc565b5081935050505090565b605081565b8160008060008381526020019081526020016000209050600081600201540361088b576040517f08c379a000000000000000000000000000000000000000000000000000000000815260040161088290611e6f565b60405180910390fd5b42816003015410156108d2576040517f08c379a00000000000000000000000000000000000000000000000000000000081526004016108c990611edb565b60405180910390fd5b4281600201541115610919576040517f08c379a000000000000000000000000000000000000000000000000000000000815260040161091090611f47565b60405180910390fd5b6000806000868152602001908152602001600020905060008160080160003373ffffffffffffffffffffffffffffffffffffffff1673ffffffffffffffffffffffffffffffffffffffff16815260200190815260200160002080549050146109b6576040517f08c379a00000000000000000000000000000000000000000000000000000000081526004016109ad90611fb3565b60405180910390fd5b8060060160009054906101000a900460ff16610a11576001845114610a10576040517f08c379a0000000000000000000000000000000000000000000000000000000008152600401610a079061201f565b60405180910390fd5b5b60005b8451811015610a8d578160050180549050858281518110610a3857610a37611989565b5b602002602001015110610a80576040517f08c379a0000000000000000000000000000000000000000000000000000000008152600401610a779061208b565b60405180910390fd5b8080600101915050610a14565b50838160080160003373ffffffffffffffffffffffffffffffffffffffff1673ffffffffffffffffffffffffffffffffffffffff1681526020019081526020016000209080519060200190610ae3929190610e56565b5060005b8451811015610b4257816007016000868381518110610b0957610b08611989565b5b602002602001015181526020019081526020016000206000815480929190610b3090611d6e565b91905055508080600101915050610ae7565b507f871b62f932d6ef8afa59aed962334ae3a32efd388f7ec8932a67b7e47ae7795a338686604051610b76939291906120ab565b60405180910390a15050505050565b6060600080600084815260200190815260200160002090506000816005018054905067ffffffffffffffff811115610bc057610bbf610fae565b5b604051908082528060200260200182016040528015610bee5781602001602082028036833780820191505090505b50905060005b8260050180549050811015610c455782600701600082815260200190815260200160002054828281518110610c2c57610c2b611989565b5b6020026020010181815250508080600101915050610bf4565b508092505050919050565b60006020528060005260406000206000915090508060000154908060010160009054906101000a900473ffffffffffffffffffffffffffffffffffffffff1690806002015490806003015490806004018054610cab90611ac1565b80601f0160208091040260200160405190810160405280929190818152602001828054610cd790611ac1565b8015610d245780601f10610cf957610100808354040283529160200191610d24565b820191906000526020600020905b815481529060010190602001808311610d0757829003601f168201915b5050505050908060060160009054906101000a900460ff16905086565b60015481565b61010081565b606060008084815260200190815260200160002060080160008373ffffffffffffffffffffffffffffffffffffffff1673ffffffffffffffffffffffffffffffffffffffff168152602001908152602001600020805480602002602001604051908101604052809291908181526020018280548015610deb57602002820191906000526020600020905b815481526020019060010190808311610dd7575b5050505050905092915050565b606481565b828054828255906000526020600020908101928215610e45579160200282015b82811115610e44578251829081610e3491906120e9565b5091602001919060010190610e1d565b5b509050610e529190610ea3565b5090565b828054828255906000526020600020908101928215610e92579160200282015b82811115610e91578251825591602001919060010190610e76565b5b509050610e9f9190610ec7565b5090565b5b80821115610ec35760008181610eba9190610ee4565b50600101610ea4565b5090565b5b80821115610ee0576000816000905550600101610ec8565b5090565b508054610ef090611ac1565b6000825580601f10610f025750610f21565b601f016020900490600052602060002090810190610f209190610ec7565b5b50565b6000604051905090565b600080fd5b600080fd5b600080fd5b600080fd5b600080fd5b60008083601f840112610f5d57610f5c610f38565b5b8235905067ffffffffffffffff811115610f7a57610f79610f3d565b5b602083019150836001820283011115610f9657610f95610f42565b5b9250929050565b6000601f19601f8301169050919050565b7f4e487b7100000000000000000000000000000000000000000000000000000000600052604160045260246000fd5b610fe682610f9d565b810181811067ffffffffffffffff8211171561100557611004610fae565b5b80604052505050565b6000611018610f24565b90506110248282610fdd565b919050565b600067ffffffffffffffff82111561104457611043610fae565b5b602082029050602081019050919050565b600080fd5b600067ffffffffffffffff82111561107557611074610fae565b5b61107e82610f9d565b9050602081019050919050565b82818337600083830152505050565b60006110ad6110a88461105a565b61100e565b9050828152602081018484840111156110c9576110c8611055565b5b6110d484828561108b565b509392505050565b600082601f8301126110f1576110f0610f38565b5b813561110184826020860161109a565b91505092915050565b600061111d61111884611029565b61100e565b905080838252602082019050602084028301858111156111405761113f610f42565b5b835b8181101561118757803567ffffffffffffffff81111561116557611164610f38565b5b80860161117289826110dc565b85526020850194505050602081019050611142565b5050509392505050565b600082601f8301126111a6576111a5610f38565b5b81356111b684826020860161110a565b91505092915050565b60008115159050919050565b6111d4816111bf565b81146111df57600080fd5b50565b6000813590506111f1816111cb565b92915050565b6000819050919050565b61120a816111f7565b811461121557600080fd5b50565b60008135905061122781611201565b92915050565b60008060008060006080868803121561124957611248610f2e565b5b600086013567ffffffffffffffff81111561126757611266610f33565b5b61127388828901610f47565b9550955050602086013567ffffffffffffffff81111561129657611295610f33565b5b6112a288828901611191565b93505060406112b3888289016111e2565b92505060606112c488828901611218565b9150509295509295909350565b6000602082840312156112e7576112e6610f2e565b5b60006112f584828501611218565b91505092915050565b600073ffffffffffffffffffffffffffffffffffffffff82169050919050565b6000611329826112fe565b9050919050565b6113398161131e565b82525050565b611348816111f7565b82525050565b600081519050919050565b600082825260208201905092915050565b60005b8381101561138857808201518184015260208101905061136d565b60008484015250505050565b600061139f8261134e565b6113a98185611359565b93506113b981856020860161136a565b6113c281610f9d565b840191505092915050565b600081519050919050565b600082825260208201905092915050565b6000819050602082019050919050565b600082825260208201905092915050565b60006114158261134e565b61141f81856113f9565b935061142f81856020860161136a565b61143881610f9d565b840191505092915050565b600061144f838361140a565b905092915050565b6000602082019050919050565b600061146f826113cd565b61147981856113d8565b93508360208202850161148b856113e9565b8060005b858110156114c757848403895281516114a88582611443565b94506114b383611457565b925060208a0199505060018101905061148f565b50829750879550505050505092915050565b6114e2816111bf565b82525050565b600060c0820190506114fd6000830189611330565b61150a602083018861133f565b611517604083018761133f565b81810360608301526115298186611394565b9050818103608083015261153d8185611464565b905061154c60a08301846114d9565b979650505050505050565b600081519050919050565b600082825260208201905092915050565b6000819050602082019050919050565b61158c816111f7565b82525050565b600061159e8383611583565b60208301905092915050565b6000602082019050919050565b60006115c282611557565b6115cc8185611562565b93506115d783611573565b8060005b838110156116085781516115ef8882611592565b97506115fa836115aa565b9250506001810190506115db565b5085935050505092915050565b6000602082019050818103600083015261162f81846115b7565b905092915050565b600060208201905061164c600083018461133f565b92915050565b600067ffffffffffffffff82111561166d5761166c610fae565b5b602082029050602081019050919050565b600061169161168c84611652565b61100e565b905080838252602082019050602084028301858111156116b4576116b3610f42565b5b835b818110156116dd57806116c98882611218565b8452602084019350506020810190506116b6565b5050509392505050565b600082601f8301126116fc576116fb610f38565b5b813561170c84826020860161167e565b91505092915050565b6000806040838503121561172c5761172b610f2e565b5b600061173a85828601611218565b925050602083013567ffffffffffffffff81111561175b5761175a610f33565b5b611767858286016116e7565b9150509250929050565b600060c082019050611786600083018961133f565b6117936020830188611330565b6117a0604083018761133f565b6117ad606083018661133f565b81810360808301526117bf8185611394565b90506117ce60a08301846114d9565b979650505050505050565b6117e28161131e565b81146117ed57600080fd5b50565b6000813590506117ff816117d9565b92915050565b6000806040838503121561181c5761181b610f2e565b5b600061182a85828601611218565b925050602061183b858286016117f0565b9150509250929050565b7f496e76616c6964207175657374696f6e206c656e677468000000000000000000600082015250565b600061187b601783611359565b915061188682611845565b602082019050919050565b600060208201905081810360008301526118aa8161186e565b9050919050565b7f496e76616c6964206e756d626572206f6620616e737765727300000000000000600082015250565b60006118e7601983611359565b91506118f2826118b1565b602082019050919050565b60006020820190508181036000830152611916816118da565b9050919050565b7f4475726174696f6e206d757374206265203e2030000000000000000000000000600082015250565b6000611953601483611359565b915061195e8261191d565b602082019050919050565b6000602082019050818103600083015261198281611946565b9050919050565b7f4e487b7100000000000000000000000000000000000000000000000000000000600052603260045260246000fd5b7f496e76616c696420616e73776572206c656e6774680000000000000000000000600082015250565b60006119ee601583611359565b91506119f9826119b8565b602082019050919050565b60006020820190508181036000830152611a1d816119e1565b9050919050565b7f4e487b7100000000000000000000000000000000000000000000000000000000600052601160045260246000fd5b6000611a5e826111f7565b9150611a69836111f7565b9250828201905080821115611a8157611a80611a24565b5b92915050565b600082905092915050565b7f4e487b7100000000000000000000000000000000000000000000000000000000600052602260045260246000fd5b60006002820490506001821680611ad957607f821691505b602082108103611aec57611aeb611a92565b5b50919050565b60008190508160005260206000209050919050565b60006020601f8301049050919050565b600082821b905092915050565b600060088302611b547fffffffffffffffffffffffffffffffffffffffffffffffffffffffffffffffff82611b17565b611b5e8683611b17565b95508019841693508086168417925050509392505050565b6000819050919050565b6000611b9b611b96611b91846111f7565b611b76565b6111f7565b9050919050565b6000819050919050565b611bb583611b80565b611bc9611bc182611ba2565b848454611b24565b825550505050565b600090565b611bde611bd1565b611be9818484611bac565b505050565b5b81811015611c0d57611c02600082611bd6565b600181019050611bef565b5050565b601f821115611c5257611c2381611af2565b611c2c84611b07565b81016020851015611c3b578190505b611c4f611c4785611b07565b830182611bee565b50505b505050565b600082821c905092915050565b6000611c7560001984600802611c57565b1980831691505092915050565b6000611c8e8383611c64565b9150826002028217905092915050565b611ca88383611a87565b67ffffffffffffffff811115611cc157611cc0610fae565b5b611ccb8254611ac1565b611cd6828285611c11565b6000601f831160018114611d055760008415611cf3578287013590505b611cfd8582611c82565b865550611d65565b601f198416611d1386611af2565b60005b82811015611d3b57848901358255600182019150602085019450602081019050611d16565b86831015611d585784890135611d54601f891682611c64565b8355505b6001600288020188555050505b50505050505050565b6000611d79826111f7565b91507fffffffffffffffffffffffffffffffffffffffffffffffffffffffffffffffff8203611dab57611daa611a24565b5b600182019050919050565b6000611dc28385611359565b9350611dcf83858461108b565b611dd883610f9d565b840190509392505050565b6000606082019050611df8600083018761133f565b611e056020830186611330565b8181036040830152611e18818486611db6565b905095945050505050565b7f506f6c6c20646f6573206e6f7420657869737400000000000000000000000000600082015250565b6000611e59601383611359565b9150611e6482611e23565b602082019050919050565b60006020820190508181036000830152611e8881611e4c565b9050919050565b7f506f6c6c2068617320656e646564000000000000000000000000000000000000600082015250565b6000611ec5600e83611359565b9150611ed082611e8f565b602082019050919050565b60006020820190508181036000830152611ef481611eb8565b9050919050565b7f506f6c6c206e6f74207374617274656400000000000000000000000000000000600082015250565b6000611f31601083611359565b9150611f3c82611efb565b602082019050919050565b60006020820190508181036000830152611f6081611f24565b9050919050565b7f416c726561647920766f74656400000000000000000000000000000000000000600082015250565b6000611f9d600d83611359565b9150611fa882611f67565b602082019050919050565b60006020820190508181036000830152611fcc81611f90565b9050919050565b7f4f6e6c79206f6e65206f7074696f6e20616c6c6f776564000000000000000000600082015250565b6000612009601783611359565b915061201482611fd3565b602082019050919050565b6000602082019050818103600083015261203881611ffc565b9050919050565b7f496e76616c696420616e73776572204944000000000000000000000000000000600082015250565b6000612075601183611359565b91506120808261203f565b602082019050919050565b600060208201905081810360008301526120a481612068565b9050919050565b60006060820190506120c06000830186611330565b6120cd602083018561133f565b81810360408301526120df81846115b7565b9050949350505050565b6120f28261134e565b67ffffffffffffffff81111561210b5761210a610fae565b5b6121158254611ac1565b612120828285611c11565b600060209050601f8311600181146121535760008415612141578287015190505b61214b8582611c82565b8655506121b3565b601f19841661216186611af2565b60005b8281101561218957848901518255600182019150602085019450602081019050612164565b868310156121a657848901516121a2601f891682611c64565b8355505b6001600288020188555050505b50505050505056fea26469706673582212209a48c74d72e7a688c6d9e6b417607d64fd79cb87207e24c86a9d1572c6fb271f64736f6c634300081c0033","opcodes":"PUSH1 0x80 PUSH1 0x40 MSTORE CALLVALUE DUP1 ISZERO PUSH1 0xF JUMPI PUSH1 0x0 DUP1 REVERT JUMPDEST POP PUSH2 0x21F1 DUP1 PUSH2 0x1F PUSH1 0x0 CODECOPY PUSH1 0x0 RETURN INVALID PUSH1 0x80 PUSH1 0x40 MSTORE CALLVALUE DUP1 ISZERO PUSH2 0x10 JUMPI PUSH1 0x0 DUP1 REVERT JUMPDEST POP PUSH1 0x4 CALLDATASIZE LT PUSH2 0xA8 JUMPI PUSH1 0x0 CALLDATALOAD PUSH1 0xE0 SHR DUP1 PUSH4 0x81A60C0D GT PUSH2 0x71 JUMPI DUP1 PUSH4 0x81A60C0D EQ PUSH2 0x156 JUMPI DUP1 PUSH4 0xAC2F0074 EQ PUSH2 0x186 JUMPI DUP1 PUSH4 0xB04E283E EQ PUSH2 0x1BB JUMPI DUP1 PUSH4 0xD29F70E8 EQ PUSH2 0x1D9 JUMPI DUP1 PUSH4 0xE8ABFD94 EQ PUSH2 0x1F7 JUMPI DUP1 PUSH4 0xFD3A8329 EQ PUSH2 0x227 JUMPI PUSH2 0xA8 JUMP JUMPDEST DUP1 PUSH3 0x2CE0A5 EQ PUSH2 0xAD JUMPI DUP1 PUSH4 0x29B8F44A EQ PUSH2 0xC9 JUMPI DUP1 PUSH4 0x63A9492F EQ PUSH2 0xFE JUMPI DUP1 PUSH4 0x701C7372 EQ PUSH2 0x11C JUMPI DUP1 PUSH4 0x7055D368 EQ PUSH2 0x13A JUMPI JUMPDEST PUSH1 0x0 DUP1 REVERT JUMPDEST PUSH2 0xC7 PUSH1 0x4 DUP1 CALLDATASIZE SUB DUP2 ADD SWAP1 PUSH2 0xC2 SWAP2 SWAP1 PUSH2 0x122D JUMP JUMPDEST PUSH2 0x245 JUMP JUMPDEST STOP JUMPDEST PUSH2 0xE3 PUSH1 0x4 DUP1 CALLDATASIZE SUB DUP2 ADD SWAP1 PUSH2 0xDE SWAP2 SWAP1 PUSH2 0x12D1 JUMP JUMPDEST PUSH2 0x4FE JUMP JUMPDEST PUSH1 0x40 MLOAD PUSH2 0xF5 SWAP7 SWAP6 SWAP5 SWAP4 SWAP3 SWAP2 SWAP1 PUSH2 0x14E8 JUMP JUMPDEST PUSH1 0x40 MLOAD DUP1 SWAP2 SUB SWAP1 RETURN JUMPDEST PUSH2 0x106 PUSH2 0x722 JUMP JUMPDEST PUSH1 0x40 MLOAD PUSH2 0x113 SWAP2 SWAP1 PUSH2 0x1615 JUMP JUMPDEST PUSH1 0x40 MLOAD DUP1 SWAP2 SUB SWAP1 RETURN JUMPDEST PUSH2 0x124 PUSH2 0x828 JUMP JUMPDEST PUSH1 0x40 MLOAD PUSH2 0x131 SWAP2 SWAP1 PUSH2 0x1637 JUMP JUMPDEST PUSH1 0x40 MLOAD DUP1 SWAP2 SUB SWAP1 RETURN JUMPDEST PUSH2 0x154 PUSH1 0x4 DUP1 CALLDATASIZE SUB DUP2 ADD SWAP1 PUSH2 0x14F SWAP2 SWAP1 PUSH2 0x1715 JUMP JUMPDEST PUSH2 0x82D JUMP JUMPDEST STOP JUMPDEST PUSH2 0x170 PUSH1 0x4 DUP1 CALLDATASIZE SUB DUP2 ADD SWAP1 PUSH2 0x16B SWAP2 SWAP1 PUSH2 0x12D1 JUMP JUMPDEST PUSH2 0xB85 JUMP JUMPDEST PUSH1 0x40 MLOAD PUSH2 0x17D SWAP2 SWAP1 PUSH2 0x1615 JUMP JUMPDEST PUSH1 0x40 MLOAD DUP1 SWAP2 SUB SWAP1 RETURN JUMPDEST PUSH2 0x1A0 PUSH1 0x4 DUP1 CALLDATASIZE SUB DUP2 ADD SWAP1 PUSH2 0x19B SWAP2 SWAP1 PUSH2 0x12D1 JUMP JUMPDEST PUSH2 0xC50 JUMP JUMPDEST PUSH1 0x40 MLOAD PUSH2 0x1B2 SWAP7 SWAP6 SWAP5 SWAP4 SWAP3 SWAP2 SWAP1 PUSH2 0x1771 JUMP JUMPDEST PUSH1 0x40 MLOAD DUP1 SWAP2 SUB SWAP1 RETURN JUMPDEST PUSH2 0x1C3 PUSH2 0xD41 JUMP JUMPDEST PUSH1 0x40 MLOAD PUSH2 0x1D0 SWAP2 SWAP1 PUSH2 0x1637 JUMP JUMPDEST PUSH1 0x40 MLOAD DUP1 SWAP2 SUB SWAP1 RETURN JUMPDEST PUSH2 0x1E1 PUSH2 0xD47 JUMP JUMPDEST PUSH1 0x40 MLOAD PUSH2 0x1EE SWAP2 SWAP1 PUSH2 0x1637 JUMP JUMPDEST PUSH1 0x40 MLOAD DUP1 SWAP2 SUB SWAP1 RETURN JUMPDEST PUSH2 0x211 PUSH1 0x4 DUP1 CALLDATASIZE SUB DUP2 ADD SWAP1 PUSH2 0x20C SWAP2 SWAP1 PUSH2 0x1805 JUMP JUMPDEST PUSH2 0xD4D JUMP JUMPDEST PUSH1 0x40 MLOAD PUSH2 0x21E SWAP2 SWAP1 PUSH2 0x1615 JUMP JUMPDEST PUSH1 0x40 MLOAD DUP1 SWAP2 SUB SWAP1 RETURN JUMPDEST PUSH2 0x22F PUSH2 0xDF8 JUMP JUMPDEST PUSH1 0x40 MLOAD PUSH2 0x23C SWAP2 SWAP1 PUSH2 0x1637 JUMP JUMPDEST PUSH1 0x40 MLOAD DUP1 SWAP2 SUB SWAP1 RETURN JUMPDEST PUSH1 0x0 DUP6 DUP6 SWAP1 POP GT DUP1 ISZERO PUSH2 0x25D JUMPI POP PUSH2 0x100 DUP6 DUP6 SWAP1 POP GT ISZERO JUMPDEST PUSH2 0x29C JUMPI PUSH1 0x40 MLOAD PUSH32 0x8C379A000000000000000000000000000000000000000000000000000000000 DUP2 MSTORE PUSH1 0x4 ADD PUSH2 0x293 SWAP1 PUSH2 0x1891 JUMP JUMPDEST PUSH1 0x40 MLOAD DUP1 SWAP2 SUB SWAP1 REVERT JUMPDEST PUSH1 0x1 DUP4 MLOAD GT DUP1 ISZERO PUSH2 0x2AF JUMPI POP PUSH1 0x50 DUP4 MLOAD GT ISZERO JUMPDEST PUSH2 0x2EE JUMPI PUSH1 0x40 MLOAD PUSH32 0x8C379A000000000000000000000000000000000000000000000000000000000 DUP2 MSTORE PUSH1 0x4 ADD PUSH2 0x2E5 SWAP1 PUSH2 0x18FD JUMP JUMPDEST PUSH1 0x40 MLOAD DUP1 SWAP2 SUB SWAP1 REVERT JUMPDEST PUSH1 0x0 DUP2 GT PUSH2 0x331 JUMPI PUSH1 0x40 MLOAD PUSH32 0x8C379A000000000000000000000000000000000000000000000000000000000 DUP2 MSTORE PUSH1 0x4 ADD PUSH2 0x328 SWAP1 PUSH2 0x1969 JUMP JUMPDEST PUSH1 0x40 MLOAD DUP1 SWAP2 SUB SWAP1 REVERT JUMPDEST PUSH1 0x0 JUMPDEST DUP4 MLOAD DUP2 LT ISZERO PUSH2 0x3D0 JUMPI PUSH1 0x0 DUP5 DUP3 DUP2 MLOAD DUP2 LT PUSH2 0x352 JUMPI PUSH2 0x351 PUSH2 0x1989 JUMP JUMPDEST JUMPDEST PUSH1 0x20 MUL PUSH1 0x20 ADD ADD MLOAD MLOAD GT DUP1 ISZERO PUSH2 0x384 JUMPI POP PUSH1 0x64 DUP5 DUP3 DUP2 MLOAD DUP2 LT PUSH2 0x378 JUMPI PUSH2 0x377 PUSH2 0x1989 JUMP JUMPDEST JUMPDEST PUSH1 0x20 MUL PUSH1 0x20 ADD ADD MLOAD MLOAD GT ISZERO JUMPDEST PUSH2 0x3C3 JUMPI PUSH1 0x40 MLOAD PUSH32 0x8C379A000000000000000000000000000000000000000000000000000000000 DUP2 MSTORE PUSH1 0x4 ADD PUSH2 0x3BA SWAP1 PUSH2 0x1A04 JUMP JUMPDEST PUSH1 0x40 MLOAD DUP1 SWAP2 SUB SWAP1 REVERT JUMPDEST DUP1 DUP1 PUSH1 0x1 ADD SWAP2 POP POP PUSH2 0x334 JUMP JUMPDEST POP PUSH1 0x0 DUP1 PUSH1 0x0 PUSH1 0x1 SLOAD DUP2 MSTORE PUSH1 0x20 ADD SWAP1 DUP2 MSTORE PUSH1 0x20 ADD PUSH1 0x0 KECCAK256 SWAP1 POP PUSH1 0x1 SLOAD DUP2 PUSH1 0x0 ADD DUP2 SWAP1 SSTORE POP CALLER DUP2 PUSH1 0x1 ADD PUSH1 0x0 PUSH2 0x100 EXP DUP2 SLOAD DUP2 PUSH20 0xFFFFFFFFFFFFFFFFFFFFFFFFFFFFFFFFFFFFFFFF MUL NOT AND SWAP1 DUP4 PUSH20 0xFFFFFFFFFFFFFFFFFFFFFFFFFFFFFFFFFFFFFFFF AND MUL OR SWAP1 SSTORE POP TIMESTAMP DUP2 PUSH1 0x2 ADD DUP2 SWAP1 SSTORE POP DUP2 TIMESTAMP PUSH2 0x44C SWAP2 SWAP1 PUSH2 0x1A53 JUMP JUMPDEST DUP2 PUSH1 0x3 ADD DUP2 SWAP1 SSTORE POP DUP6 DUP6 DUP3 PUSH1 0x4 ADD SWAP2 DUP3 PUSH2 0x467 SWAP3 SWAP2 SWAP1 PUSH2 0x1C9E JUMP JUMPDEST POP DUP4 DUP2 PUSH1 0x5 ADD SWAP1 DUP1 MLOAD SWAP1 PUSH1 0x20 ADD SWAP1 PUSH2 0x480 SWAP3 SWAP2 SWAP1 PUSH2 0xDFD JUMP JUMPDEST POP DUP3 DUP2 PUSH1 0x6 ADD PUSH1 0x0 PUSH2 0x100 EXP DUP2 SLOAD DUP2 PUSH1 0xFF MUL NOT AND SWAP1 DUP4 ISZERO ISZERO MUL OR SWAP1 SSTORE POP PUSH1 0x1 PUSH1 0x0 DUP2 SLOAD DUP1 SWAP3 SWAP2 SWAP1 PUSH2 0x4B0 SWAP1 PUSH2 0x1D6E JUMP JUMPDEST SWAP2 SWAP1 POP SSTORE POP PUSH32 0x7CF84E937B660A86B8D03903ABF94C2E2976B2273DA8DFBEF2D89B7AC560463E DUP2 PUSH1 0x0 ADD SLOAD CALLER DUP9 DUP9 PUSH1 0x40 MLOAD PUSH2 0x4EE SWAP5 SWAP4 SWAP3 SWAP2 SWAP1 PUSH2 0x1DE3 JUMP JUMPDEST PUSH1 0x40 MLOAD DUP1 SWAP2 SUB SWAP1 LOG1 POP POP POP POP POP POP JUMP JUMPDEST PUSH1 0x0 DUP1 PUSH1 0x0 PUSH1 0x60 DUP1 PUSH1 0x0 DUP1 PUSH1 0x0 DUP1 DUP10 DUP2 MSTORE PUSH1 0x20 ADD SWAP1 DUP2 MSTORE PUSH1 0x20 ADD PUSH1 0x0 KECCAK256 SWAP1 POP PUSH1 0x0 DUP2 PUSH1 0x2 ADD SLOAD SUB PUSH2 0x564 JUMPI PUSH1 0x40 MLOAD PUSH32 0x8C379A000000000000000000000000000000000000000000000000000000000 DUP2 MSTORE PUSH1 0x4 ADD PUSH2 0x55B SWAP1 PUSH2 0x1E6F JUMP JUMPDEST PUSH1 0x40 MLOAD DUP1 SWAP2 SUB SWAP1 REVERT JUMPDEST DUP1 PUSH1 0x1 ADD PUSH1 0x0 SWAP1 SLOAD SWAP1 PUSH2 0x100 EXP SWAP1 DIV PUSH20 0xFFFFFFFFFFFFFFFFFFFFFFFFFFFFFFFFFFFFFFFF AND DUP2 PUSH1 0x2 ADD SLOAD DUP3 PUSH1 0x3 ADD SLOAD DUP4 PUSH1 0x4 ADD DUP5 PUSH1 0x5 ADD DUP6 PUSH1 0x6 ADD PUSH1 0x0 SWAP1 SLOAD SWAP1 PUSH2 0x100 EXP SWAP1 DIV PUSH1 0xFF AND DUP3 DUP1 SLOAD PUSH2 0x5B9 SWAP1 PUSH2 0x1AC1 JUMP JUMPDEST DUP1 PUSH1 0x1F ADD PUSH1 0x20 DUP1 SWAP2 DIV MUL PUSH1 0x20 ADD PUSH1 0x40 MLOAD SWAP1 DUP2 ADD PUSH1 0x40 MSTORE DUP1 SWAP3 SWAP2 SWAP1 DUP2 DUP2 MSTORE PUSH1 0x20 ADD DUP3 DUP1 SLOAD PUSH2 0x5E5 SWAP1 PUSH2 0x1AC1 JUMP JUMPDEST DUP1 ISZERO PUSH2 0x632 JUMPI DUP1 PUSH1 0x1F LT PUSH2 0x607 JUMPI PUSH2 0x100 DUP1 DUP4 SLOAD DIV MUL DUP4 MSTORE SWAP2 PUSH1 0x20 ADD SWAP2 PUSH2 0x632 JUMP JUMPDEST DUP3 ADD SWAP2 SWAP1 PUSH1 0x0 MSTORE PUSH1 0x20 PUSH1 0x0 KECCAK256 SWAP1 JUMPDEST DUP2 SLOAD DUP2 MSTORE SWAP1 PUSH1 0x1 ADD SWAP1 PUSH1 0x20 ADD DUP1 DUP4 GT PUSH2 0x615 JUMPI DUP3 SWAP1 SUB PUSH1 0x1F AND DUP3 ADD SWAP2 JUMPDEST POP POP POP POP POP SWAP3 POP DUP2 DUP1 SLOAD DUP1 PUSH1 0x20 MUL PUSH1 0x20 ADD PUSH1 0x40 MLOAD SWAP1 DUP2 ADD PUSH1 0x40 MSTORE DUP1 SWAP3 SWAP2 SWAP1 DUP2 DUP2 MSTORE PUSH1 0x20 ADD PUSH1 0x0 SWAP1 JUMPDEST DUP3 DUP3 LT ISZERO PUSH2 0x706 JUMPI DUP4 DUP3 SWAP1 PUSH1 0x0 MSTORE PUSH1 0x20 PUSH1 0x0 KECCAK256 ADD DUP1 SLOAD PUSH2 0x679 SWAP1 PUSH2 0x1AC1 JUMP JUMPDEST DUP1 PUSH1 0x1F ADD PUSH1 0x20 DUP1 SWAP2 DIV MUL PUSH1 0x20 ADD PUSH1 0x40 MLOAD SWAP1 DUP2 ADD PUSH1 0x40 MSTORE DUP1 SWAP3 SWAP2 SWAP1 DUP2 DUP2 MSTORE PUSH1 0x20 ADD DUP3 DUP1 SLOAD PUSH2 0x6A5 SWAP1 PUSH2 0x1AC1 JUMP JUMPDEST DUP1 ISZERO PUSH2 0x6F2 JUMPI DUP1 PUSH1 0x1F LT PUSH2 0x6C7 JUMPI PUSH2 0x100 DUP1 DUP4 SLOAD DIV MUL DUP4 MSTORE SWAP2 PUSH1 0x20 ADD SWAP2 PUSH2 0x6F2 JUMP JUMPDEST DUP3 ADD SWAP2 SWAP1 PUSH1 0x0 MSTORE PUSH1 0x20 PUSH1 0x0 KECCAK256 SWAP1 JUMPDEST DUP2 SLOAD DUP2 MSTORE SWAP1 PUSH1 0x1 ADD SWAP1 PUSH1 0x20 ADD DUP1 DUP4 GT PUSH2 0x6D5 JUMPI DUP3 SWAP1 SUB PUSH1 0x1F AND DUP3 ADD SWAP2 JUMPDEST POP POP POP POP POP DUP2 MSTORE PUSH1 0x20 ADD SWAP1 PUSH1 0x1 ADD SWAP1 PUSH2 0x65A JUMP JUMPDEST POP POP POP POP SWAP2 POP SWAP7 POP SWAP7 POP SWAP7 POP SWAP7 POP SWAP7 POP SWAP7 POP POP SWAP2 SWAP4 SWAP6 POP SWAP2 SWAP4 SWAP6 JUMP JUMPDEST PUSH1 0x60 PUSH1 0x0 DUP1 JUMPDEST PUSH1 0x1 SLOAD DUP2 LT ISZERO PUSH2 0x76A JUMPI TIMESTAMP PUSH1 0x0 DUP1 DUP4 DUP2 MSTORE PUSH1 0x20 ADD SWAP1 DUP2 MSTORE PUSH1 0x20 ADD PUSH1 0x0 KECCAK256 PUSH1 0x3 ADD SLOAD LT PUSH2 0x75D JUMPI DUP2 DUP1 PUSH2 0x759 SWAP1 PUSH2 0x1D6E JUMP JUMPDEST SWAP3 POP POP JUMPDEST DUP1 DUP1 PUSH1 0x1 ADD SWAP2 POP POP PUSH2 0x728 JUMP JUMPDEST POP PUSH1 0x0 DUP2 PUSH8 0xFFFFFFFFFFFFFFFF DUP2 GT ISZERO PUSH2 0x787 JUMPI PUSH2 0x786 PUSH2 0xFAE JUMP JUMPDEST JUMPDEST PUSH1 0x40 MLOAD SWAP1 DUP1 DUP3 MSTORE DUP1 PUSH1 0x20 MUL PUSH1 0x20 ADD DUP3 ADD PUSH1 0x40 MSTORE DUP1 ISZERO PUSH2 0x7B5 JUMPI DUP2 PUSH1 0x20 ADD PUSH1 0x20 DUP3 MUL DUP1 CALLDATASIZE DUP4 CALLDATACOPY DUP1 DUP3 ADD SWAP2 POP POP SWAP1 POP JUMPDEST POP SWAP1 POP PUSH1 0x0 DUP1 JUMPDEST PUSH1 0x1 SLOAD DUP2 LT ISZERO PUSH2 0x81E JUMPI TIMESTAMP PUSH1 0x0 DUP1 DUP4 DUP2 MSTORE PUSH1 0x20 ADD SWAP1 DUP2 MSTORE PUSH1 0x20 ADD PUSH1 0x0 KECCAK256 PUSH1 0x3 ADD SLOAD LT PUSH2 0x811 JUMPI DUP1 DUP4 DUP4 DUP2 MLOAD DUP2 LT PUSH2 0x7F6 JUMPI PUSH2 0x7F5 PUSH2 0x1989 JUMP JUMPDEST JUMPDEST PUSH1 0x20 MUL PUSH1 0x20 ADD ADD DUP2 DUP2 MSTORE POP POP DUP2 DUP1 PUSH2 0x80D SWAP1 PUSH2 0x1D6E JUMP JUMPDEST SWAP3 POP POP JUMPDEST DUP1 DUP1 PUSH1 0x1 ADD SWAP2 POP POP PUSH2 0x7BC JUMP JUMPDEST POP DUP2 SWAP4 POP POP POP POP SWAP1 JUMP JUMPDEST PUSH1 0x50 DUP2 JUMP JUMPDEST DUP2 PUSH1 0x0 DUP1 PUSH1 0x0 DUP4 DUP2 MSTORE PUSH1 0x20 ADD SWAP1 DUP2 MSTORE PUSH1 0x20 ADD PUSH1 0x0 KECCAK256 SWAP1 POP PUSH1 0x0 DUP2 PUSH1 0x2 ADD SLOAD SUB PUSH2 0x88B JUMPI PUSH1 0x40 MLOAD PUSH32 0x8C379A000000000000000000000000000000000000000000000000000000000 DUP2 MSTORE PUSH1 0x4 ADD PUSH2 0x882 SWAP1 PUSH2 0x1E6F JUMP JUMPDEST PUSH1 0x40 MLOAD DUP1 SWAP2 SUB SWAP1 REVERT JUMPDEST TIMESTAMP DUP2 PUSH1 0x3 ADD SLOAD LT ISZERO PUSH2 0x8D2 JUMPI PUSH1 0x40 MLOAD PUSH32 0x8C379A000000000000000000000000000000000000000000000000000000000 DUP2 MSTORE PUSH1 0x4 ADD PUSH2 0x8C9 SWAP1 PUSH2 0x1EDB JUMP JUMPDEST PUSH1 0x40 MLOAD DUP1 SWAP2 SUB SWAP1 REVERT JUMPDEST TIMESTAMP DUP2 PUSH1 0x2 ADD SLOAD GT ISZERO PUSH2 0x919 JUMPI PUSH1 0x40 MLOAD PUSH32 0x8C379A000000000000000000000000000000000000000000000000000000000 DUP2 MSTORE PUSH1 0x4 ADD PUSH2 0x910 SWAP1 PUSH2 0x1F47 JUMP JUMPDEST PUSH1 0x40 MLOAD DUP1 SWAP2 SUB SWAP1 REVERT JUMPDEST PUSH1 0x0 DUP1 PUSH1 0x0 DUP7 DUP2 MSTORE PUSH1 0x20 ADD SWAP1 DUP2 MSTORE PUSH1 0x20 ADD PUSH1 0x0 KECCAK256 SWAP1 POP PUSH1 0x0 DUP2 PUSH1 0x8 ADD PUSH1 0x0 CALLER PUSH20 0xFFFFFFFFFFFFFFFFFFFFFFFFFFFFFFFFFFFFFFFF AND PUSH20 0xFFFFFFFFFFFFFFFFFFFFFFFFFFFFFFFFFFFFFFFF AND DUP2 MSTORE PUSH1 0x20 ADD SWAP1 DUP2 MSTORE PUSH1 0x20 ADD PUSH1 0x0 KECCAK256 DUP1 SLOAD SWAP1 POP EQ PUSH2 0x9B6 JUMPI PUSH1 0x40 MLOAD PUSH32 0x8C379A000000000000000000000000000000000000000000000000000000000 DUP2 MSTORE PUSH1 0x4 ADD PUSH2 0x9AD SWAP1 PUSH2 0x1FB3 JUMP JUMPDEST PUSH1 0x40 MLOAD DUP1 SWAP2 SUB SWAP1 REVERT JUMPDEST DUP1 PUSH1 0x6 ADD PUSH1 0x0 SWAP1 SLOAD SWAP1 PUSH2 0x100 EXP SWAP1 DIV PUSH1 0xFF AND PUSH2 0xA11 JUMPI PUSH1 0x1 DUP5 MLOAD EQ PUSH2 0xA10 JUMPI PUSH1 0x40 MLOAD PUSH32 0x8C379A000000000000000000000000000000000000000000000000000000000 DUP2 MSTORE PUSH1 0x4 ADD PUSH2 0xA07 SWAP1 PUSH2 0x201F JUMP JUMPDEST PUSH1 0x40 MLOAD DUP1 SWAP2 SUB SWAP1 REVERT JUMPDEST JUMPDEST PUSH1 0x0 JUMPDEST DUP5 MLOAD DUP2 LT ISZERO PUSH2 0xA8D JUMPI DUP2 PUSH1 0x5 ADD DUP1 SLOAD SWAP1 POP DUP6 DUP3 DUP2 MLOAD DUP2 LT PUSH2 0xA38 JUMPI PUSH2 0xA37 PUSH2 0x1989 JUMP JUMPDEST JUMPDEST PUSH1 0x20 MUL PUSH1 0x20 ADD ADD MLOAD LT PUSH2 0xA80 JUMPI PUSH1 0x40 MLOAD PUSH32 0x8C379A000000000000000000000000000000000000000000000000000000000 DUP2 MSTORE PUSH1 0x4 ADD PUSH2 0xA77 SWAP1 PUSH2 0x208B JUMP JUMPDEST PUSH1 0x40 MLOAD DUP1 SWAP2 SUB SWAP1 REVERT JUMPDEST DUP1 DUP1 PUSH1 0x1 ADD SWAP2 POP POP PUSH2 0xA14 JUMP JUMPDEST POP DUP4 DUP2 PUSH1 0x8 ADD PUSH1 0x0 CALLER PUSH20 0xFFFFFFFFFFFFFFFFFFFFFFFFFFFFFFFFFFFFFFFF AND PUSH20 0xFFFFFFFFFFFFFFFFFFFFFFFFFFFFFFFFFFFFFFFF AND DUP2 MSTORE PUSH1 0x20 ADD SWAP1 DUP2 MSTORE PUSH1 0x20 ADD PUSH1 0x0 KECCAK256 SWAP1 DUP1 MLOAD SWAP1 PUSH1 0x20 ADD SWAP1 PUSH2 0xAE3 SWAP3 SWAP2 SWAP1 PUSH2 0xE56 JUMP JUMPDEST POP PUSH1 0x0 JUMPDEST DUP5 MLOAD DUP2 LT ISZERO PUSH2 0xB42 JUMPI DUP2 PUSH1 0x7 ADD PUSH1 0x0 DUP7 DUP4 DUP2 MLOAD DUP2 LT PUSH2 0xB09 JUMPI PUSH2 0xB08 PUSH2 0x1989 JUMP JUMPDEST JUMPDEST PUSH1 0x20 MUL PUSH1 0x20 ADD ADD MLOAD DUP2 MSTORE PUSH1 0x20 ADD SWAP1 DUP2 MSTORE PUSH1 0x20 ADD PUSH1 0x0 KECCAK256 PUSH1 0x0 DUP2 SLOAD DUP1 SWAP3 SWAP2 SWAP1 PUSH2 0xB30 SWAP1 PUSH2 0x1D6E JUMP JUMPDEST SWAP2 SWAP1 POP SSTORE POP DUP1 DUP1 PUSH1 0x1 ADD SWAP2 POP POP PUSH2 0xAE7 JUMP JUMPDEST POP PUSH32 0x871B62F932D6EF8AFA59AED962334AE3A32EFD388F7EC8932A67B7E47AE7795A CALLER DUP7 DUP7 PUSH1 0x40 MLOAD PUSH2 0xB76 SWAP4 SWAP3 SWAP2 SWAP1 PUSH2 0x20AB JUMP JUMPDEST PUSH1 0x40 MLOAD DUP1 SWAP2 SUB SWAP1 LOG1 POP POP POP POP POP JUMP JUMPDEST PUSH1 0x60 PUSH1 0x0 DUP1 PUSH1 0x0 DUP5 DUP2 MSTORE PUSH1 0x20 ADD SWAP1 DUP2 MSTORE PUSH1 0x20 ADD PUSH1 0x0 KECCAK256 SWAP1 POP PUSH1 0x0 DUP2 PUSH1 0x5 ADD DUP1 SLOAD SWAP1 POP PUSH8 0xFFFFFFFFFFFFFFFF DUP2 GT ISZERO PUSH2 0xBC0 JUMPI PUSH2 0xBBF PUSH2 0xFAE JUMP JUMPDEST JUMPDEST PUSH1 0x40 MLOAD SWAP1 DUP1 DUP3 MSTORE DUP1 PUSH1 0x20 MUL PUSH1 0x20 ADD DUP3 ADD PUSH1 0x40 MSTORE DUP1 ISZERO PUSH2 0xBEE JUMPI DUP2 PUSH1 0x20 ADD PUSH1 0x20 DUP3 MUL DUP1 CALLDATASIZE DUP4 CALLDATACOPY DUP1 DUP3 ADD SWAP2 POP POP SWAP1 POP JUMPDEST POP SWAP1 POP PUSH1 0x0 JUMPDEST DUP3 PUSH1 0x5 ADD DUP1 SLOAD SWAP1 POP DUP2 LT ISZERO PUSH2 0xC45 JUMPI DUP3 PUSH1 0x7 ADD PUSH1 0x0 DUP3 DUP2 MSTORE PUSH1 0x20 ADD SWAP1 DUP2 MSTORE PUSH1 0x20 ADD PUSH1 0x0 KECCAK256 SLOAD DUP3 DUP3 DUP2 MLOAD DUP2 LT PUSH2 0xC2C JUMPI PUSH2 0xC2B PUSH2 0x1989 JUMP JUMPDEST JUMPDEST PUSH1 0x20 MUL PUSH1 0x20 ADD ADD DUP2 DUP2 MSTORE POP POP DUP1 DUP1 PUSH1 0x1 ADD SWAP2 POP POP PUSH2 0xBF4 JUMP JUMPDEST POP DUP1 SWAP3 POP POP POP SWAP2 SWAP1 POP JUMP JUMPDEST PUSH1 0x0 PUSH1 0x20 MSTORE DUP1 PUSH1 0x0 MSTORE PUSH1 0x40 PUSH1 0x0 KECCAK256 PUSH1 0x0 SWAP2 POP SWAP1 POP DUP1 PUSH1 0x0 ADD SLOAD SWAP1 DUP1 PUSH1 0x1 ADD PUSH1 0x0 SWAP1 SLOAD SWAP1 PUSH2 0x100 EXP SWAP1 DIV PUSH20 0xFFFFFFFFFFFFFFFFFFFFFFFFFFFFFFFFFFFFFFFF AND SWAP1 DUP1 PUSH1 0x2 ADD SLOAD SWAP1 DUP1 PUSH1 0x3 ADD SLOAD SWAP1 DUP1 PUSH1 0x4 ADD DUP1 SLOAD PUSH2 0xCAB SWAP1 PUSH2 0x1AC1 JUMP JUMPDEST DUP1 PUSH1 0x1F ADD PUSH1 0x20 DUP1 SWAP2 DIV MUL PUSH1 0x20 ADD PUSH1 0x40 MLOAD SWAP1 DUP2 ADD PUSH1 0x40 MSTORE DUP1 SWAP3 SWAP2 SWAP1 DUP2 DUP2 MSTORE PUSH1 0x20 ADD DUP3 DUP1 SLOAD PUSH2 0xCD7 SWAP1 PUSH2 0x1AC1 JUMP JUMPDEST DUP1 ISZERO PUSH2 0xD24 JUMPI DUP1 PUSH1 0x1F LT PUSH2 0xCF9 JUMPI PUSH2 0x100 DUP1 DUP4 SLOAD DIV MUL DUP4 MSTORE SWAP2 PUSH1 0x20 ADD SWAP2 PUSH2 0xD24 JUMP JUMPDEST DUP3 ADD SWAP2 SWAP1 PUSH1 0x0 MSTORE PUSH1 0x20 PUSH1 0x0 KECCAK256 SWAP1 JUMPDEST DUP2 SLOAD DUP2 MSTORE SWAP1 PUSH1 0x1 ADD SWAP1 PUSH1 0x20 ADD DUP1 DUP4 GT PUSH2 0xD07 JUMPI DUP3 SWAP1 SUB PUSH1 0x1F AND DUP3 ADD SWAP2 JUMPDEST POP POP POP POP POP SWAP1 DUP1 PUSH1 0x6 ADD PUSH1 0x0 SWAP1 SLOAD SWAP1 PUSH2 0x100 EXP SWAP1 DIV PUSH1 0xFF AND SWAP1 POP DUP7 JUMP JUMPDEST PUSH1 0x1 SLOAD DUP2 JUMP JUMPDEST PUSH2 0x100 DUP2 JUMP JUMPDEST PUSH1 0x60 PUSH1 0x0 DUP1 DUP5 DUP2 MSTORE PUSH1 0x20 ADD SWAP1 DUP2 MSTORE PUSH1 0x20 ADD PUSH1 0x0 KECCAK256 PUSH1 0x8 ADD PUSH1 0x0 DUP4 PUSH20 0xFFFFFFFFFFFFFFFFFFFFFFFFFFFFFFFFFFFFFFFF AND PUSH20 0xFFFFFFFFFFFFFFFFFFFFFFFFFFFFFFFFFFFFFFFF AND DUP2 MSTORE PUSH1 0x20 ADD SWAP1 DUP2 MSTORE PUSH1 0x20 ADD PUSH1 0x0 KECCAK256 DUP1 SLOAD DUP1 PUSH1 0x20 MUL PUSH1 0x20 ADD PUSH1 0x40 MLOAD SWAP1 DUP2 ADD PUSH1 0x40 MSTORE DUP1 SWAP3 SWAP2 SWAP1 DUP2 DUP2 MSTORE PUSH1 0x20 ADD DUP3 DUP1 SLOAD DUP1 ISZERO PUSH2 0xDEB JUMPI PUSH1 0x20 MUL DUP3 ADD SWAP2 SWAP1 PUSH1 0x0 MSTORE PUSH1 0x20 PUSH1 0x0 KECCAK256 SWAP1 JUMPDEST DUP2 SLOAD DUP2 MSTORE PUSH1 0x20 ADD SWAP1 PUSH1 0x1 ADD SWAP1 DUP1 DUP4 GT PUSH2 0xDD7 JUMPI JUMPDEST POP POP POP POP POP SWAP1 POP SWAP3 SWAP2 POP POP JUMP JUMPDEST PUSH1 0x64 DUP2 JUMP JUMPDEST DUP3 DUP1 SLOAD DUP3 DUP3 SSTORE SWAP1 PUSH1 0x0 MSTORE PUSH1 0x20 PUSH1 0x0 KECCAK256 SWAP1 DUP2 ADD SWAP3 DUP3 ISZERO PUSH2 0xE45 JUMPI SWAP2 PUSH1 0x20 MUL DUP3 ADD JUMPDEST DUP3 DUP2 GT ISZERO PUSH2 0xE44 JUMPI DUP3 MLOAD DUP3 SWAP1 DUP2 PUSH2 0xE34 SWAP2 SWAP1 PUSH2 0x20E9 JUMP JUMPDEST POP SWAP2 PUSH1 0x20 ADD SWAP2 SWAP1 PUSH1 0x1 ADD SWAP1 PUSH2 0xE1D JUMP JUMPDEST JUMPDEST POP SWAP1 POP PUSH2 0xE52 SWAP2 SWAP1 PUSH2 0xEA3 JUMP JUMPDEST POP SWAP1 JUMP JUMPDEST DUP3 DUP1 SLOAD DUP3 DUP3 SSTORE SWAP1 PUSH1 0x0 MSTORE PUSH1 0x20 PUSH1 0x0 KECCAK256 SWAP1 DUP2 ADD SWAP3 DUP3 ISZERO PUSH2 0xE92 JUMPI SWAP2 PUSH1 0x20 MUL DUP3 ADD JUMPDEST DUP3 DUP2 GT ISZERO PUSH2 0xE91 JUMPI DUP3 MLOAD DUP3 SSTORE SWAP2 PUSH1 0x20 ADD SWAP2 SWAP1 PUSH1 0x1 ADD SWAP1 PUSH2 0xE76 JUMP JUMPDEST JUMPDEST POP SWAP1 POP PUSH2 0xE9F SWAP2 SWAP1 PUSH2 0xEC7 JUMP JUMPDEST POP SWAP1 JUMP JUMPDEST JUMPDEST DUP1 DUP3 GT ISZERO PUSH2 0xEC3 JUMPI PUSH1 0x0 DUP2 DUP2 PUSH2 0xEBA SWAP2 SWAP1 PUSH2 0xEE4 JUMP JUMPDEST POP PUSH1 0x1 ADD PUSH2 0xEA4 JUMP JUMPDEST POP SWAP1 JUMP JUMPDEST JUMPDEST DUP1 DUP3 GT ISZERO PUSH2 0xEE0 JUMPI PUSH1 0x0 DUP2 PUSH1 0x0 SWAP1 SSTORE POP PUSH1 0x1 ADD PUSH2 0xEC8 JUMP JUMPDEST POP SWAP1 JUMP JUMPDEST POP DUP1 SLOAD PUSH2 0xEF0 SWAP1 PUSH2 0x1AC1 JUMP JUMPDEST PUSH1 0x0 DUP3 SSTORE DUP1 PUSH1 0x1F LT PUSH2 0xF02 JUMPI POP PUSH2 0xF21 JUMP JUMPDEST PUSH1 0x1F ADD PUSH1 0x20 SWAP1 DIV SWAP1 PUSH1 0x0 MSTORE PUSH1 0x20 PUSH1 0x0 KECCAK256 SWAP1 DUP2 ADD SWAP1 PUSH2 0xF20 SWAP2 SWAP1 PUSH2 0xEC7 JUMP JUMPDEST JUMPDEST POP JUMP JUMPDEST PUSH1 0x0 PUSH1 0x40 MLOAD SWAP1 POP SWAP1 JUMP JUMPDEST PUSH1 0x0 DUP1 REVERT JUMPDEST PUSH1 0x0 DUP1 REVERT JUMPDEST PUSH1 0x0 DUP1 REVERT JUMPDEST PUSH1 0x0 DUP1 REVERT JUMPDEST PUSH1 0x0 DUP1 REVERT JUMPDEST PUSH1 0x0 DUP1 DUP4 PUSH1 0x1F DUP5 ADD SLT PUSH2 0xF5D JUMPI PUSH2 0xF5C PUSH2 0xF38 JUMP JUMPDEST JUMPDEST DUP3 CALLDATALOAD SWAP1 POP PUSH8 0xFFFFFFFFFFFFFFFF DUP2 GT ISZERO PUSH2 0xF7A JUMPI PUSH2 0xF79 PUSH2 0xF3D JUMP JUMPDEST JUMPDEST PUSH1 0x20 DUP4 ADD SWAP2 POP DUP4 PUSH1 0x1 DUP3 MUL DUP4 ADD GT ISZERO PUSH2 0xF96 JUMPI PUSH2 0xF95 PUSH2 0xF42 JUMP JUMPDEST JUMPDEST SWAP3 POP SWAP3 SWAP1 POP JUMP JUMPDEST PUSH1 0x0 PUSH1 0x1F NOT PUSH1 0x1F DUP4 ADD AND SWAP1 POP SWAP2 SWAP1 POP JUMP JUMPDEST PUSH32 0x4E487B7100000000000000000000000000000000000000000000000000000000 PUSH1 0x0 MSTORE PUSH1 0x41 PUSH1 0x4 MSTORE PUSH1 0x24 PUSH1 0x0 REVERT JUMPDEST PUSH2 0xFE6 DUP3 PUSH2 0xF9D JUMP JUMPDEST DUP2 ADD DUP2 DUP2 LT PUSH8 0xFFFFFFFFFFFFFFFF DUP3 GT OR ISZERO PUSH2 0x1005 JUMPI PUSH2 0x1004 PUSH2 0xFAE JUMP JUMPDEST JUMPDEST DUP1 PUSH1 0x40 MSTORE POP POP POP JUMP JUMPDEST PUSH1 0x0 PUSH2 0x1018 PUSH2 0xF24 JUMP JUMPDEST SWAP1 POP PUSH2 0x1024 DUP3 DUP3 PUSH2 0xFDD JUMP JUMPDEST SWAP2 SWAP1 POP JUMP JUMPDEST PUSH1 0x0 PUSH8 0xFFFFFFFFFFFFFFFF DUP3 GT ISZERO PUSH2 0x1044 JUMPI PUSH2 0x1043 PUSH2 0xFAE JUMP JUMPDEST JUMPDEST PUSH1 0x20 DUP3 MUL SWAP1 POP PUSH1 0x20 DUP2 ADD SWAP1 POP SWAP2 SWAP1 POP JUMP JUMPDEST PUSH1 0x0 DUP1 REVERT JUMPDEST PUSH1 0x0 PUSH8 0xFFFFFFFFFFFFFFFF DUP3 GT ISZERO PUSH2 0x1075 JUMPI PUSH2 0x1074 PUSH2 0xFAE JUMP JUMPDEST JUMPDEST PUSH2 0x107E DUP3 PUSH2 0xF9D JUMP JUMPDEST SWAP1 POP PUSH1 0x20 DUP2 ADD SWAP1 POP SWAP2 SWAP1 POP JUMP JUMPDEST DUP3 DUP2 DUP4 CALLDATACOPY PUSH1 0x0 DUP4 DUP4 ADD MSTORE POP POP POP JUMP JUMPDEST PUSH1 0x0 PUSH2 0x10AD PUSH2 0x10A8 DUP5 PUSH2 0x105A JUMP JUMPDEST PUSH2 0x100E JUMP JUMPDEST SWAP1 POP DUP3 DUP2 MSTORE PUSH1 0x20 DUP2 ADD DUP5 DUP5 DUP5 ADD GT ISZERO PUSH2 0x10C9 JUMPI PUSH2 0x10C8 PUSH2 0x1055 JUMP JUMPDEST JUMPDEST PUSH2 0x10D4 DUP5 DUP3 DUP6 PUSH2 0x108B JUMP JUMPDEST POP SWAP4 SWAP3 POP POP POP JUMP JUMPDEST PUSH1 0x0 DUP3 PUSH1 0x1F DUP4 ADD SLT PUSH2 0x10F1 JUMPI PUSH2 0x10F0 PUSH2 0xF38 JUMP JUMPDEST JUMPDEST DUP2 CALLDATALOAD PUSH2 0x1101 DUP5 DUP3 PUSH1 0x20 DUP7 ADD PUSH2 0x109A JUMP JUMPDEST SWAP2 POP POP SWAP3 SWAP2 POP POP JUMP JUMPDEST PUSH1 0x0 PUSH2 0x111D PUSH2 0x1118 DUP5 PUSH2 0x1029 JUMP JUMPDEST PUSH2 0x100E JUMP JUMPDEST SWAP1 POP DUP1 DUP4 DUP3 MSTORE PUSH1 0x20 DUP3 ADD SWAP1 POP PUSH1 0x20 DUP5 MUL DUP4 ADD DUP6 DUP2 GT ISZERO PUSH2 0x1140 JUMPI PUSH2 0x113F PUSH2 0xF42 JUMP JUMPDEST JUMPDEST DUP4 JUMPDEST DUP2 DUP2 LT ISZERO PUSH2 0x1187 JUMPI DUP1 CALLDATALOAD PUSH8 0xFFFFFFFFFFFFFFFF DUP2 GT ISZERO PUSH2 0x1165 JUMPI PUSH2 0x1164 PUSH2 0xF38 JUMP JUMPDEST JUMPDEST DUP1 DUP7 ADD PUSH2 0x1172 DUP10 DUP3 PUSH2 0x10DC JUMP JUMPDEST DUP6 MSTORE PUSH1 0x20 DUP6 ADD SWAP5 POP POP POP PUSH1 0x20 DUP2 ADD SWAP1 POP PUSH2 0x1142 JUMP JUMPDEST POP POP POP SWAP4 SWAP3 POP POP POP JUMP JUMPDEST PUSH1 0x0 DUP3 PUSH1 0x1F DUP4 ADD SLT PUSH2 0x11A6 JUMPI PUSH2 0x11A5 PUSH2 0xF38 JUMP JUMPDEST JUMPDEST DUP2 CALLDATALOAD PUSH2 0x11B6 DUP5 DUP3 PUSH1 0x20 DUP7 ADD PUSH2 0x110A JUMP JUMPDEST SWAP2 POP POP SWAP3 SWAP2 POP POP JUMP JUMPDEST PUSH1 0x0 DUP2 ISZERO ISZERO SWAP1 POP SWAP2 SWAP1 POP JUMP JUMPDEST PUSH2 0x11D4 DUP2 PUSH2 0x11BF JUMP JUMPDEST DUP2 EQ PUSH2 0x11DF JUMPI PUSH1 0x0 DUP1 REVERT JUMPDEST POP JUMP JUMPDEST PUSH1 0x0 DUP2 CALLDATALOAD SWAP1 POP PUSH2 0x11F1 DUP2 PUSH2 0x11CB JUMP JUMPDEST SWAP3 SWAP2 POP POP JUMP JUMPDEST PUSH1 0x0 DUP2 SWAP1 POP SWAP2 SWAP1 POP JUMP JUMPDEST PUSH2 0x120A DUP2 PUSH2 0x11F7 JUMP JUMPDEST DUP2 EQ PUSH2 0x1215 JUMPI PUSH1 0x0 DUP1 REVERT JUMPDEST POP JUMP JUMPDEST PUSH1 0x0 DUP2 CALLDATALOAD SWAP1 POP PUSH2 0x1227 DUP2 PUSH2 0x1201 JUMP JUMPDEST SWAP3 SWAP2 POP POP JUMP JUMPDEST PUSH1 0x0 DUP1 PUSH1 0x0 DUP1 PUSH1 0x0 PUSH1 0x80 DUP7 DUP9 SUB SLT ISZERO PUSH2 0x1249 JUMPI PUSH2 0x1248 PUSH2 0xF2E JUMP JUMPDEST JUMPDEST PUSH1 0x0 DUP7 ADD CALLDATALOAD PUSH8 0xFFFFFFFFFFFFFFFF DUP2 GT ISZERO PUSH2 0x1267 JUMPI PUSH2 0x1266 PUSH2 0xF33 JUMP JUMPDEST JUMPDEST PUSH2 0x1273 DUP9 DUP3 DUP10 ADD PUSH2 0xF47 JUMP JUMPDEST SWAP6 POP SWAP6 POP POP PUSH1 0x20 DUP7 ADD CALLDATALOAD PUSH8 0xFFFFFFFFFFFFFFFF DUP2 GT ISZERO PUSH2 0x1296 JUMPI PUSH2 0x1295 PUSH2 0xF33 JUMP JUMPDEST JUMPDEST PUSH2 0x12A2 DUP9 DUP3 DUP10 ADD PUSH2 0x1191 JUMP JUMPDEST SWAP4 POP POP PUSH1 0x40 PUSH2 0x12B3 DUP9 DUP3 DUP10 ADD PUSH2 0x11E2 JUMP JUMPDEST SWAP3 POP POP PUSH1 0x60 PUSH2 0x12C4 DUP9 DUP3 DUP10 ADD PUSH2 0x1218 JUMP JUMPDEST SWAP2 POP POP SWAP3 SWAP6 POP SWAP3 SWAP6 SWAP1 SWAP4 POP JUMP JUMPDEST PUSH1 0x0 PUSH1 0x20 DUP3 DUP5 SUB SLT ISZERO PUSH2 0x12E7 JUMPI PUSH2 0x12E6 PUSH2 0xF2E JUMP JUMPDEST JUMPDEST PUSH1 0x0 PUSH2 0x12F5 DUP5 DUP3 DUP6 ADD PUSH2 0x1218 JUMP JUMPDEST SWAP2 POP POP SWAP3 SWAP2 POP POP JUMP JUMPDEST PUSH1 0x0 PUSH20 0xFFFFFFFFFFFFFFFFFFFFFFFFFFFFFFFFFFFFFFFF DUP3 AND SWAP1 POP SWAP2 SWAP1 POP JUMP JUMPDEST PUSH1 0x0 PUSH2 0x1329 DUP3 PUSH2 0x12FE JUMP JUMPDEST SWAP1 POP SWAP2 SWAP1 POP JUMP JUMPDEST PUSH2 0x1339 DUP2 PUSH2 0x131E JUMP JUMPDEST DUP3 MSTORE POP POP JUMP JUMPDEST PUSH2 0x1348 DUP2 PUSH2 0x11F7 JUMP JUMPDEST DUP3 MSTORE POP POP JUMP JUMPDEST PUSH1 0x0 DUP2 MLOAD SWAP1 POP SWAP2 SWAP1 POP JUMP JUMPDEST PUSH1 0x0 DUP3 DUP3 MSTORE PUSH1 0x20 DUP3 ADD SWAP1 POP SWAP3 SWAP2 POP POP JUMP JUMPDEST PUSH1 0x0 JUMPDEST DUP4 DUP2 LT ISZERO PUSH2 0x1388 JUMPI DUP1 DUP3 ADD MLOAD DUP2 DUP5 ADD MSTORE PUSH1 0x20 DUP2 ADD SWAP1 POP PUSH2 0x136D JUMP JUMPDEST PUSH1 0x0 DUP5 DUP5 ADD MSTORE POP POP POP POP JUMP JUMPDEST PUSH1 0x0 PUSH2 0x139F DUP3 PUSH2 0x134E JUMP JUMPDEST PUSH2 0x13A9 DUP2 DUP6 PUSH2 0x1359 JUMP JUMPDEST SWAP4 POP PUSH2 0x13B9 DUP2 DUP6 PUSH1 0x20 DUP7 ADD PUSH2 0x136A JUMP JUMPDEST PUSH2 0x13C2 DUP2 PUSH2 0xF9D JUMP JUMPDEST DUP5 ADD SWAP2 POP POP SWAP3 SWAP2 POP POP JUMP JUMPDEST PUSH1 0x0 DUP2 MLOAD SWAP1 POP SWAP2 SWAP1 POP JUMP JUMPDEST PUSH1 0x0 DUP3 DUP3 MSTORE PUSH1 0x20 DUP3 ADD SWAP1 POP SWAP3 SWAP2 POP POP JUMP JUMPDEST PUSH1 0x0 DUP2 SWAP1 POP PUSH1 0x20 DUP3 ADD SWAP1 POP SWAP2 SWAP1 POP JUMP JUMPDEST PUSH1 0x0 DUP3 DUP3 MSTORE PUSH1 0x20 DUP3 ADD SWAP1 POP SWAP3 SWAP2 POP POP JUMP JUMPDEST PUSH1 0x0 PUSH2 0x1415 DUP3 PUSH2 0x134E JUMP JUMPDEST PUSH2 0x141F DUP2 DUP6 PUSH2 0x13F9 JUMP JUMPDEST SWAP4 POP PUSH2 0x142F DUP2 DUP6 PUSH1 0x20 DUP7 ADD PUSH2 0x136A JUMP JUMPDEST PUSH2 0x1438 DUP2 PUSH2 0xF9D JUMP JUMPDEST DUP5 ADD SWAP2 POP POP SWAP3 SWAP2 POP POP JUMP JUMPDEST PUSH1 0x0 PUSH2 0x144F DUP4 DUP4 PUSH2 0x140A JUMP JUMPDEST SWAP1 POP SWAP3 SWAP2 POP POP JUMP JUMPDEST PUSH1 0x0 PUSH1 0x20 DUP3 ADD SWAP1 POP SWAP2 SWAP1 POP JUMP JUMPDEST PUSH1 0x0 PUSH2 0x146F DUP3 PUSH2 0x13CD JUMP JUMPDEST PUSH2 0x1479 DUP2 DUP6 PUSH2 0x13D8 JUMP JUMPDEST SWAP4 POP DUP4 PUSH1 0x20 DUP3 MUL DUP6 ADD PUSH2 0x148B DUP6 PUSH2 0x13E9 JUMP JUMPDEST DUP1 PUSH1 0x0 JUMPDEST DUP6 DUP2 LT ISZERO PUSH2 0x14C7 JUMPI DUP5 DUP5 SUB DUP10 MSTORE DUP2 MLOAD PUSH2 0x14A8 DUP6 DUP3 PUSH2 0x1443 JUMP JUMPDEST SWAP5 POP PUSH2 0x14B3 DUP4 PUSH2 0x1457 JUMP JUMPDEST SWAP3 POP PUSH1 0x20 DUP11 ADD SWAP10 POP POP PUSH1 0x1 DUP2 ADD SWAP1 POP PUSH2 0x148F JUMP JUMPDEST POP DUP3 SWAP8 POP DUP8 SWAP6 POP POP POP POP POP POP SWAP3 SWAP2 POP POP JUMP JUMPDEST PUSH2 0x14E2 DUP2 PUSH2 0x11BF JUMP JUMPDEST DUP3 MSTORE POP POP JUMP JUMPDEST PUSH1 0x0 PUSH1 0xC0 DUP3 ADD SWAP1 POP PUSH2 0x14FD PUSH1 0x0 DUP4 ADD DUP10 PUSH2 0x1330 JUMP JUMPDEST PUSH2 0x150A PUSH1 0x20 DUP4 ADD DUP9 PUSH2 0x133F JUMP JUMPDEST PUSH2 0x1517 PUSH1 0x40 DUP4 ADD DUP8 PUSH2 0x133F JUMP JUMPDEST DUP2 DUP2 SUB PUSH1 0x60 DUP4 ADD MSTORE PUSH2 0x1529 DUP2 DUP7 PUSH2 0x1394 JUMP JUMPDEST SWAP1 POP DUP2 DUP2 SUB PUSH1 0x80 DUP4 ADD MSTORE PUSH2 0x153D DUP2 DUP6 PUSH2 0x1464 JUMP JUMPDEST SWAP1 POP PUSH2 0x154C PUSH1 0xA0 DUP4 ADD DUP5 PUSH2 0x14D9 JUMP JUMPDEST SWAP8 SWAP7 POP POP POP POP POP POP POP JUMP JUMPDEST PUSH1 0x0 DUP2 MLOAD SWAP1 POP SWAP2 SWAP1 POP JUMP JUMPDEST PUSH1 0x0 DUP3 DUP3 MSTORE PUSH1 0x20 DUP3 ADD SWAP1 POP SWAP3 SWAP2 POP POP JUMP JUMPDEST PUSH1 0x0 DUP2 SWAP1 POP PUSH1 0x20 DUP3 ADD SWAP1 POP SWAP2 SWAP1 POP JUMP JUMPDEST PUSH2 0x158C DUP2 PUSH2 0x11F7 JUMP JUMPDEST DUP3 MSTORE POP POP JUMP JUMPDEST PUSH1 0x0 PUSH2 0x159E DUP4 DUP4 PUSH2 0x1583 JUMP JUMPDEST PUSH1 0x20 DUP4 ADD SWAP1 POP SWAP3 SWAP2 POP POP JUMP JUMPDEST PUSH1 0x0 PUSH1 0x20 DUP3 ADD SWAP1 POP SWAP2 SWAP1 POP JUMP JUMPDEST PUSH1 0x0 PUSH2 0x15C2 DUP3 PUSH2 0x1557 JUMP JUMPDEST PUSH2 0x15CC DUP2 DUP6 PUSH2 0x1562 JUMP JUMPDEST SWAP4 POP PUSH2 0x15D7 DUP4 PUSH2 0x1573 JUMP JUMPDEST DUP1 PUSH1 0x0 JUMPDEST DUP4 DUP2 LT ISZERO PUSH2 0x1608 JUMPI DUP2 MLOAD PUSH2 0x15EF DUP9 DUP3 PUSH2 0x1592 JUMP JUMPDEST SWAP8 POP PUSH2 0x15FA DUP4 PUSH2 0x15AA JUMP JUMPDEST SWAP3 POP POP PUSH1 0x1 DUP2 ADD SWAP1 POP PUSH2 0x15DB JUMP JUMPDEST POP DUP6 SWAP4 POP POP POP POP SWAP3 SWAP2 POP POP JUMP JUMPDEST PUSH1 0x0 PUSH1 0x20 DUP3 ADD SWAP1 POP DUP2 DUP2 SUB PUSH1 0x0 DUP4 ADD MSTORE PUSH2 0x162F DUP2 DUP5 PUSH2 0x15B7 JUMP JUMPDEST SWAP1 POP SWAP3 SWAP2 POP POP JUMP JUMPDEST PUSH1 0x0 PUSH1 0x20 DUP3 ADD SWAP1 POP PUSH2 0x164C PUSH1 0x0 DUP4 ADD DUP5 PUSH2 0x133F JUMP JUMPDEST SWAP3 SWAP2 POP POP JUMP JUMPDEST PUSH1 0x0 PUSH8 0xFFFFFFFFFFFFFFFF DUP3 GT ISZERO PUSH2 0x166D JUMPI PUSH2 0x166C PUSH2 0xFAE JUMP JUMPDEST JUMPDEST PUSH1 0x20 DUP3 MUL SWAP1 POP PUSH1 0x20 DUP2 ADD SWAP1 POP SWAP2 SWAP1 POP JUMP JUMPDEST PUSH1 0x0 PUSH2 0x1691 PUSH2 0x168C DUP5 PUSH2 0x1652 JUMP JUMPDEST PUSH2 0x100E JUMP JUMPDEST SWAP1 POP DUP1 DUP4 DUP3 MSTORE PUSH1 0x20 DUP3 ADD SWAP1 POP PUSH1 0x20 DUP5 MUL DUP4 ADD DUP6 DUP2 GT ISZERO PUSH2 0x16B4 JUMPI PUSH2 0x16B3 PUSH2 0xF42 JUMP JUMPDEST JUMPDEST DUP4 JUMPDEST DUP2 DUP2 LT ISZERO PUSH2 0x16DD JUMPI DUP1 PUSH2 0x16C9 DUP9 DUP3 PUSH2 0x1218 JUMP JUMPDEST DUP5 MSTORE PUSH1 0x20 DUP5 ADD SWAP4 POP POP PUSH1 0x20 DUP2 ADD SWAP1 POP PUSH2 0x16B6 JUMP JUMPDEST POP POP POP SWAP4 SWAP3 POP POP POP JUMP JUMPDEST PUSH1 0x0 DUP3 PUSH1 0x1F DUP4 ADD SLT PUSH2 0x16FC JUMPI PUSH2 0x16FB PUSH2 0xF38 JUMP JUMPDEST JUMPDEST DUP2 CALLDATALOAD PUSH2 0x170C DUP5 DUP3 PUSH1 0x20 DUP7 ADD PUSH2 0x167E JUMP JUMPDEST SWAP2 POP POP SWAP3 SWAP2 POP POP JUMP JUMPDEST PUSH1 0x0 DUP1 PUSH1 0x40 DUP4 DUP6 SUB SLT ISZERO PUSH2 0x172C JUMPI PUSH2 0x172B PUSH2 0xF2E JUMP JUMPDEST JUMPDEST PUSH1 0x0 PUSH2 0x173A DUP6 DUP3 DUP7 ADD PUSH2 0x1218 JUMP JUMPDEST SWAP3 POP POP PUSH1 0x20 DUP4 ADD CALLDATALOAD PUSH8 0xFFFFFFFFFFFFFFFF DUP2 GT ISZERO PUSH2 0x175B JUMPI PUSH2 0x175A PUSH2 0xF33 JUMP JUMPDEST JUMPDEST PUSH2 0x1767 DUP6 DUP3 DUP7 ADD PUSH2 0x16E7 JUMP JUMPDEST SWAP2 POP POP SWAP3 POP SWAP3 SWAP1 POP JUMP JUMPDEST PUSH1 0x0 PUSH1 0xC0 DUP3 ADD SWAP1 POP PUSH2 0x1786 PUSH1 0x0 DUP4 ADD DUP10 PUSH2 0x133F JUMP JUMPDEST PUSH2 0x1793 PUSH1 0x20 DUP4 ADD DUP9 PUSH2 0x1330 JUMP JUMPDEST PUSH2 0x17A0 PUSH1 0x40 DUP4 ADD DUP8 PUSH2 0x133F JUMP JUMPDEST PUSH2 0x17AD PUSH1 0x60 DUP4 ADD DUP7 PUSH2 0x133F JUMP JUMPDEST DUP2 DUP2 SUB PUSH1 0x80 DUP4 ADD MSTORE PUSH2 0x17BF DUP2 DUP6 PUSH2 0x1394 JUMP JUMPDEST SWAP1 POP PUSH2 0x17CE PUSH1 0xA0 DUP4 ADD DUP5 PUSH2 0x14D9 JUMP JUMPDEST SWAP8 SWAP7 POP POP POP POP POP POP POP JUMP JUMPDEST PUSH2 0x17E2 DUP2 PUSH2 0x131E JUMP JUMPDEST DUP2 EQ PUSH2 0x17ED JUMPI PUSH1 0x0 DUP1 REVERT JUMPDEST POP JUMP JUMPDEST PUSH1 0x0 DUP2 CALLDATALOAD SWAP1 POP PUSH2 0x17FF DUP2 PUSH2 0x17D9 JUMP JUMPDEST SWAP3 SWAP2 POP POP JUMP JUMPDEST PUSH1 0x0 DUP1 PUSH1 0x40 DUP4 DUP6 SUB SLT ISZERO PUSH2 0x181C JUMPI PUSH2 0x181B PUSH2 0xF2E JUMP JUMPDEST JUMPDEST PUSH1 0x0 PUSH2 0x182A DUP6 DUP3 DUP7 ADD PUSH2 0x1218 JUMP JUMPDEST SWAP3 POP POP PUSH1 0x20 PUSH2 0x183B DUP6 DUP3 DUP7 ADD PUSH2 0x17F0 JUMP JUMPDEST SWAP2 POP POP SWAP3 POP SWAP3 SWAP1 POP JUMP JUMPDEST PUSH32 0x496E76616C6964207175657374696F6E206C656E677468000000000000000000 PUSH1 0x0 DUP3 ADD MSTORE POP JUMP JUMPDEST PUSH1 0x0 PUSH2 0x187B PUSH1 0x17 DUP4 PUSH2 0x1359 JUMP JUMPDEST SWAP2 POP PUSH2 0x1886 DUP3 PUSH2 0x1845 JUMP JUMPDEST PUSH1 0x20 DUP3 ADD SWAP1 POP SWAP2 SWAP1 POP JUMP JUMPDEST PUSH1 0x0 PUSH1 0x20 DUP3 ADD SWAP1 POP DUP2 DUP2 SUB PUSH1 0x0 DUP4 ADD MSTORE PUSH2 0x18AA DUP2 PUSH2 0x186E JUMP JUMPDEST SWAP1 POP SWAP2 SWAP1 POP JUMP JUMPDEST PUSH32 0x496E76616C6964206E756D626572206F6620616E737765727300000000000000 PUSH1 0x0 DUP3 ADD MSTORE POP JUMP JUMPDEST PUSH1 0x0 PUSH2 0x18E7 PUSH1 0x19 DUP4 PUSH2 0x1359 JUMP JUMPDEST SWAP2 POP PUSH2 0x18F2 DUP3 PUSH2 0x18B1 JUMP JUMPDEST PUSH1 0x20 DUP3 ADD SWAP1 POP SWAP2 SWAP1 POP JUMP JUMPDEST PUSH1 0x0 PUSH1 0x20 DUP3 ADD SWAP1 POP DUP2 DUP2 SUB PUSH1 0x0 DUP4 ADD MSTORE PUSH2 0x1916 DUP2 PUSH2 0x18DA JUMP JUMPDEST SWAP1 POP SWAP2 SWAP1 POP JUMP JUMPDEST PUSH32 0x4475726174696F6E206D757374206265203E2030000000000000000000000000 PUSH1 0x0 DUP3 ADD MSTORE POP JUMP JUMPDEST PUSH1 0x0 PUSH2 0x1953 PUSH1 0x14 DUP4 PUSH2 0x1359 JUMP JUMPDEST SWAP2 POP PUSH2 0x195E DUP3 PUSH2 0x191D JUMP JUMPDEST PUSH1 0x20 DUP3 ADD SWAP1 POP SWAP2 SWAP1 POP JUMP JUMPDEST PUSH1 0x0 PUSH1 0x20 DUP3 ADD SWAP1 POP DUP2 DUP2 SUB PUSH1 0x0 DUP4 ADD MSTORE PUSH2 0x1982 DUP2 PUSH2 0x1946 JUMP JUMPDEST SWAP1 POP SWAP2 SWAP1 POP JUMP JUMPDEST PUSH32 0x4E487B7100000000000000000000000000000000000000000000000000000000 PUSH1 0x0 MSTORE PUSH1 0x32 PUSH1 0x4 MSTORE PUSH1 0x24 PUSH1 0x0 REVERT JUMPDEST PUSH32 0x496E76616C696420616E73776572206C656E6774680000000000000000000000 PUSH1 0x0 DUP3 ADD MSTORE POP JUMP JUMPDEST PUSH1 0x0 PUSH2 0x19EE PUSH1 0x15 DUP4 PUSH2 0x1359 JUMP JUMPDEST SWAP2 POP PUSH2 0x19F9 DUP3 PUSH2 0x19B8 JUMP JUMPDEST PUSH1 0x20 DUP3 ADD SWAP1 POP SWAP2 SWAP1 POP JUMP JUMPDEST PUSH1 0x0 PUSH1 0x20 DUP3 ADD SWAP1 POP DUP2 DUP2 SUB PUSH1 0x0 DUP4 ADD MSTORE PUSH2 0x1A1D DUP2 PUSH2 0x19E1 JUMP JUMPDEST SWAP1 POP SWAP2 SWAP1 POP JUMP JUMPDEST PUSH32 0x4E487B7100000000000000000000000000000000000000000000000000000000 PUSH1 0x0 MSTORE PUSH1 0x11 PUSH1 0x4 MSTORE PUSH1 0x24 PUSH1 0x0 REVERT JUMPDEST PUSH1 0x0 PUSH2 0x1A5E DUP3 PUSH2 0x11F7 JUMP JUMPDEST SWAP2 POP PUSH2 0x1A69 DUP4 PUSH2 0x11F7 JUMP JUMPDEST SWAP3 POP DUP3 DUP3 ADD SWAP1 POP DUP1 DUP3 GT ISZERO PUSH2 0x1A81 JUMPI PUSH2 0x1A80 PUSH2 0x1A24 JUMP JUMPDEST JUMPDEST SWAP3 SWAP2 POP POP JUMP JUMPDEST PUSH1 0x0 DUP3 SWAP1 POP SWAP3 SWAP2 POP POP JUMP JUMPDEST PUSH32 0x4E487B7100000000000000000000000000000000000000000000000000000000 PUSH1 0x0 MSTORE PUSH1 0x22 PUSH1 0x4 MSTORE PUSH1 0x24 PUSH1 0x0 REVERT JUMPDEST PUSH1 0x0 PUSH1 0x2 DUP3 DIV SWAP1 POP PUSH1 0x1 DUP3 AND DUP1 PUSH2 0x1AD9 JUMPI PUSH1 0x7F DUP3 AND SWAP2 POP JUMPDEST PUSH1 0x20 DUP3 LT DUP2 SUB PUSH2 0x1AEC JUMPI PUSH2 0x1AEB PUSH2 0x1A92 JUMP JUMPDEST JUMPDEST POP SWAP2 SWAP1 POP JUMP JUMPDEST PUSH1 0x0 DUP2 SWAP1 POP DUP2 PUSH1 0x0 MSTORE PUSH1 0x20 PUSH1 0x0 KECCAK256 SWAP1 POP SWAP2 SWAP1 POP JUMP JUMPDEST PUSH1 0x0 PUSH1 0x20 PUSH1 0x1F DUP4 ADD DIV SWAP1 POP SWAP2 SWAP1 POP JUMP JUMPDEST PUSH1 0x0 DUP3 DUP3 SHL SWAP1 POP SWAP3 SWAP2 POP POP JUMP JUMPDEST PUSH1 0x0 PUSH1 0x8 DUP4 MUL PUSH2 0x1B54 PUSH32 0xFFFFFFFFFFFFFFFFFFFFFFFFFFFFFFFFFFFFFFFFFFFFFFFFFFFFFFFFFFFFFFFF DUP3 PUSH2 0x1B17 JUMP JUMPDEST PUSH2 0x1B5E DUP7 DUP4 PUSH2 0x1B17 JUMP JUMPDEST SWAP6 POP DUP1 NOT DUP5 AND SWAP4 POP DUP1 DUP7 AND DUP5 OR SWAP3 POP POP POP SWAP4 SWAP3 POP POP POP JUMP JUMPDEST PUSH1 0x0 DUP2 SWAP1 POP SWAP2 SWAP1 POP JUMP JUMPDEST PUSH1 0x0 PUSH2 0x1B9B PUSH2 0x1B96 PUSH2 0x1B91 DUP5 PUSH2 0x11F7 JUMP JUMPDEST PUSH2 0x1B76 JUMP JUMPDEST PUSH2 0x11F7 JUMP JUMPDEST SWAP1 POP SWAP2 SWAP1 POP JUMP JUMPDEST PUSH1 0x0 DUP2 SWAP1 POP SWAP2 SWAP1 POP JUMP JUMPDEST PUSH2 0x1BB5 DUP4 PUSH2 0x1B80 JUMP JUMPDEST PUSH2 0x1BC9 PUSH2 0x1BC1 DUP3 PUSH2 0x1BA2 JUMP JUMPDEST DUP5 DUP5 SLOAD PUSH2 0x1B24 JUMP JUMPDEST DUP3 SSTORE POP POP POP POP JUMP JUMPDEST PUSH1 0x0 SWAP1 JUMP JUMPDEST PUSH2 0x1BDE PUSH2 0x1BD1 JUMP JUMPDEST PUSH2 0x1BE9 DUP2 DUP5 DUP5 PUSH2 0x1BAC JUMP JUMPDEST POP POP POP JUMP JUMPDEST JUMPDEST DUP2 DUP2 LT ISZERO PUSH2 0x1C0D JUMPI PUSH2 0x1C02 PUSH1 0x0 DUP3 PUSH2 0x1BD6 JUMP JUMPDEST PUSH1 0x1 DUP2 ADD SWAP1 POP PUSH2 0x1BEF JUMP JUMPDEST POP POP JUMP JUMPDEST PUSH1 0x1F DUP3 GT ISZERO PUSH2 0x1C52 JUMPI PUSH2 0x1C23 DUP2 PUSH2 0x1AF2 JUMP JUMPDEST PUSH2 0x1C2C DUP5 PUSH2 0x1B07 JUMP JUMPDEST DUP2 ADD PUSH1 0x20 DUP6 LT ISZERO PUSH2 0x1C3B JUMPI DUP2 SWAP1 POP JUMPDEST PUSH2 0x1C4F PUSH2 0x1C47 DUP6 PUSH2 0x1B07 JUMP JUMPDEST DUP4 ADD DUP3 PUSH2 0x1BEE JUMP JUMPDEST POP POP JUMPDEST POP POP POP JUMP JUMPDEST PUSH1 0x0 DUP3 DUP3 SHR SWAP1 POP SWAP3 SWAP2 POP POP JUMP JUMPDEST PUSH1 0x0 PUSH2 0x1C75 PUSH1 0x0 NOT DUP5 PUSH1 0x8 MUL PUSH2 0x1C57 JUMP JUMPDEST NOT DUP1 DUP4 AND SWAP2 POP POP SWAP3 SWAP2 POP POP JUMP JUMPDEST PUSH1 0x0 PUSH2 0x1C8E DUP4 DUP4 PUSH2 0x1C64 JUMP JUMPDEST SWAP2 POP DUP3 PUSH1 0x2 MUL DUP3 OR SWAP1 POP SWAP3 SWAP2 POP POP JUMP JUMPDEST PUSH2 0x1CA8 DUP4 DUP4 PUSH2 0x1A87 JUMP JUMPDEST PUSH8 0xFFFFFFFFFFFFFFFF DUP2 GT ISZERO PUSH2 0x1CC1 JUMPI PUSH2 0x1CC0 PUSH2 0xFAE JUMP JUMPDEST JUMPDEST PUSH2 0x1CCB DUP3 SLOAD PUSH2 0x1AC1 JUMP JUMPDEST PUSH2 0x1CD6 DUP3 DUP3 DUP6 PUSH2 0x1C11 JUMP JUMPDEST PUSH1 0x0 PUSH1 0x1F DUP4 GT PUSH1 0x1 DUP2 EQ PUSH2 0x1D05 JUMPI PUSH1 0x0 DUP5 ISZERO PUSH2 0x1CF3 JUMPI DUP3 DUP8 ADD CALLDATALOAD SWAP1 POP JUMPDEST PUSH2 0x1CFD DUP6 DUP3 PUSH2 0x1C82 JUMP JUMPDEST DUP7 SSTORE POP PUSH2 0x1D65 JUMP JUMPDEST PUSH1 0x1F NOT DUP5 AND PUSH2 0x1D13 DUP7 PUSH2 0x1AF2 JUMP JUMPDEST PUSH1 0x0 JUMPDEST DUP3 DUP2 LT ISZERO PUSH2 0x1D3B JUMPI DUP5 DUP10 ADD CALLDATALOAD DUP3 SSTORE PUSH1 0x1 DUP3 ADD SWAP2 POP PUSH1 0x20 DUP6 ADD SWAP5 POP PUSH1 0x20 DUP2 ADD SWAP1 POP PUSH2 0x1D16 JUMP JUMPDEST DUP7 DUP4 LT ISZERO PUSH2 0x1D58 JUMPI DUP5 DUP10 ADD CALLDATALOAD PUSH2 0x1D54 PUSH1 0x1F DUP10 AND DUP3 PUSH2 0x1C64 JUMP JUMPDEST DUP4 SSTORE POP JUMPDEST PUSH1 0x1 PUSH1 0x2 DUP9 MUL ADD DUP9 SSTORE POP POP POP JUMPDEST POP POP POP POP POP POP POP JUMP JUMPDEST PUSH1 0x0 PUSH2 0x1D79 DUP3 PUSH2 0x11F7 JUMP JUMPDEST SWAP2 POP PUSH32 0xFFFFFFFFFFFFFFFFFFFFFFFFFFFFFFFFFFFFFFFFFFFFFFFFFFFFFFFFFFFFFFFF DUP3 SUB PUSH2 0x1DAB JUMPI PUSH2 0x1DAA PUSH2 0x1A24 JUMP JUMPDEST JUMPDEST PUSH1 0x1 DUP3 ADD SWAP1 POP SWAP2 SWAP1 POP JUMP JUMPDEST PUSH1 0x0 PUSH2 0x1DC2 DUP4 DUP6 PUSH2 0x1359 JUMP JUMPDEST SWAP4 POP PUSH2 0x1DCF DUP4 DUP6 DUP5 PUSH2 0x108B JUMP JUMPDEST PUSH2 0x1DD8 DUP4 PUSH2 0xF9D JUMP JUMPDEST DUP5 ADD SWAP1 POP SWAP4 SWAP3 POP POP POP JUMP JUMPDEST PUSH1 0x0 PUSH1 0x60 DUP3 ADD SWAP1 POP PUSH2 0x1DF8 PUSH1 0x0 DUP4 ADD DUP8 PUSH2 0x133F JUMP JUMPDEST PUSH2 0x1E05 PUSH1 0x20 DUP4 ADD DUP7 PUSH2 0x1330 JUMP JUMPDEST DUP2 DUP2 SUB PUSH1 0x40 DUP4 ADD MSTORE PUSH2 0x1E18 DUP2 DUP5 DUP7 PUSH2 0x1DB6 JUMP JUMPDEST SWAP1 POP SWAP6 SWAP5 POP POP POP POP POP JUMP JUMPDEST PUSH32 0x506F6C6C20646F6573206E6F7420657869737400000000000000000000000000 PUSH1 0x0 DUP3 ADD MSTORE POP JUMP JUMPDEST PUSH1 0x0 PUSH2 0x1E59 PUSH1 0x13 DUP4 PUSH2 0x1359 JUMP JUMPDEST SWAP2 POP PUSH2 0x1E64 DUP3 PUSH2 0x1E23 JUMP JUMPDEST PUSH1 0x20 DUP3 ADD SWAP1 POP SWAP2 SWAP1 POP JUMP JUMPDEST PUSH1 0x0 PUSH1 0x20 DUP3 ADD SWAP1 POP DUP2 DUP2 SUB PUSH1 0x0 DUP4 ADD MSTORE PUSH2 0x1E88 DUP2 PUSH2 0x1E4C JUMP JUMPDEST SWAP1 POP SWAP2 SWAP1 POP JUMP JUMPDEST PUSH32 0x506F6C6C2068617320656E646564000000000000000000000000000000000000 PUSH1 0x0 DUP3 ADD MSTORE POP JUMP JUMPDEST PUSH1 0x0 PUSH2 0x1EC5 PUSH1 0xE DUP4 PUSH2 0x1359 JUMP JUMPDEST SWAP2 POP PUSH2 0x1ED0 DUP3 PUSH2 0x1E8F JUMP JUMPDEST PUSH1 0x20 DUP3 ADD SWAP1 POP SWAP2 SWAP1 POP JUMP JUMPDEST PUSH1 0x0 PUSH1 0x20 DUP3 ADD SWAP1 POP DUP2 DUP2 SUB PUSH1 0x0 DUP4 ADD MSTORE PUSH2 0x1EF4 DUP2 PUSH2 0x1EB8 JUMP JUMPDEST SWAP1 POP SWAP2 SWAP1 POP JUMP JUMPDEST PUSH32 0x506F6C6C206E6F74207374617274656400000000000000000000000000000000 PUSH1 0x0 DUP3 ADD MSTORE POP JUMP JUMPDEST PUSH1 0x0 PUSH2 0x1F31 PUSH1 0x10 DUP4 PUSH2 0x1359 JUMP JUMPDEST SWAP2 POP PUSH2 0x1F3C DUP3 PUSH2 0x1EFB JUMP JUMPDEST PUSH1 0x20 DUP3 ADD SWAP1 POP SWAP2 SWAP1 POP JUMP JUMPDEST PUSH1 0x0 PUSH1 0x20 DUP3 ADD SWAP1 POP DUP2 DUP2 SUB PUSH1 0x0 DUP4 ADD MSTORE PUSH2 0x1F60 DUP2 PUSH2 0x1F24 JUMP JUMPDEST SWAP1 POP SWAP2 SWAP1 POP JUMP JUMPDEST PUSH32 0x416C726561647920766F74656400000000000000000000000000000000000000 PUSH1 0x0 DUP3 ADD MSTORE POP JUMP JUMPDEST PUSH1 0x0 PUSH2 0x1F9D PUSH1 0xD DUP4 PUSH2 0x1359 JUMP JUMPDEST SWAP2 POP PUSH2 0x1FA8 DUP3 PUSH2 0x1F67 JUMP JUMPDEST PUSH1 0x20 DUP3 ADD SWAP1 POP SWAP2 SWAP1 POP JUMP JUMPDEST PUSH1 0x0 PUSH1 0x20 DUP3 ADD SWAP1 POP DUP2 DUP2 SUB PUSH1 0x0 DUP4 ADD MSTORE PUSH2 0x1FCC DUP2 PUSH2 0x1F90 JUMP JUMPDEST SWAP1 POP SWAP2 SWAP1 POP JUMP JUMPDEST PUSH32 0x4F6E6C79206F6E65206F7074696F6E20616C6C6F776564000000000000000000 PUSH1 0x0 DUP3 ADD MSTORE POP JUMP JUMPDEST PUSH1 0x0 PUSH2 0x2009 PUSH1 0x17 DUP4 PUSH2 0x1359 JUMP JUMPDEST SWAP2 POP PUSH2 0x2014 DUP3 PUSH2 0x1FD3 JUMP JUMPDEST PUSH1 0x20 DUP3 ADD SWAP1 POP SWAP2 SWAP1 POP JUMP JUMPDEST PUSH1 0x0 PUSH1 0x20 DUP3 ADD SWAP1 POP DUP2 DUP2 SUB PUSH1 0x0 DUP4 ADD MSTORE PUSH2 0x2038 DUP2 PUSH2 0x1FFC JUMP JUMPDEST SWAP1 POP SWAP2 SWAP1 POP JUMP JUMPDEST PUSH32 0x496E76616C696420616E73776572204944000000000000000000000000000000 PUSH1 0x0 DUP3 ADD MSTORE POP JUMP JUMPDEST PUSH1 0x0 PUSH2 0x2075 PUSH1 0x11 DUP4 PUSH2 0x1359 JUMP JUMPDEST SWAP2 POP PUSH2 0x2080 DUP3 PUSH2 0x203F JUMP JUMPDEST PUSH1 0x20 DUP3 ADD SWAP1 POP SWAP2 SWAP1 POP JUMP JUMPDEST PUSH1 0x0 PUSH1 0x20 DUP3 ADD SWAP1 POP DUP2 DUP2 SUB PUSH1 0x0 DUP4 ADD MSTORE PUSH2 0x20A4 DUP2 PUSH2 0x2068 JUMP JUMPDEST SWAP1 POP SWAP2 SWAP1 POP JUMP JUMPDEST PUSH1 0x0 PUSH1 0x60 DUP3 ADD SWAP1 POP PUSH2 0x20C0 PUSH1 0x0 DUP4 ADD DUP7 PUSH2 0x1330 JUMP JUMPDEST PUSH2 0x20CD PUSH1 0x20 DUP4 ADD DUP6 PUSH2 0x133F JUMP JUMPDEST DUP2 DUP2 SUB PUSH1 0x40 DUP4 ADD MSTORE PUSH2 0x20DF DUP2 DUP5 PUSH2 0x15B7 JUMP JUMPDEST SWAP1 POP SWAP5 SWAP4 POP POP POP POP JUMP JUMPDEST PUSH2 0x20F2 DUP3 PUSH2 0x134E JUMP JUMPDEST PUSH8 0xFFFFFFFFFFFFFFFF DUP2 GT ISZERO PUSH2 0x210B JUMPI PUSH2 0x210A PUSH2 0xFAE JUMP JUMPDEST JUMPDEST PUSH2 0x2115 DUP3 SLOAD PUSH2 0x1AC1 JUMP JUMPDEST PUSH2 0x2120 DUP3 DUP3 DUP6 PUSH2 0x1C11 JUMP JUMPDEST PUSH1 0x0 PUSH1 0x20 SWAP1 POP PUSH1 0x1F DUP4 GT PUSH1 0x1 DUP2 EQ PUSH2 0x2153 JUMPI PUSH1 0x0 DUP5 ISZERO PUSH2 0x2141 JUMPI DUP3 DUP8 ADD MLOAD SWAP1 POP JUMPDEST PUSH2 0x214B DUP6 DUP3 PUSH2 0x1C82 JUMP JUMPDEST DUP7 SSTORE POP PUSH2 0x21B3 JUMP JUMPDEST PUSH1 0x1F NOT DUP5 AND PUSH2 0x2161 DUP7 PUSH2 0x1AF2 JUMP JUMPDEST PUSH1 0x0 JUMPDEST DUP3 DUP2 LT ISZERO PUSH2 0x2189 JUMPI DUP5 DUP10 ADD MLOAD DUP3 SSTORE PUSH1 0x1 DUP3 ADD SWAP2 POP PUSH1 0x20 DUP6 ADD SWAP5 POP PUSH1 0x20 DUP2 ADD SWAP1 POP PUSH2 0x2164 JUMP JUMPDEST DUP7 DUP4 LT ISZERO PUSH2 0x21A6 JUMPI DUP5 DUP10 ADD MLOAD PUSH2 0x21A2 PUSH1 0x1F DUP10 AND DUP3 PUSH2 0x1C64 JUMP JUMPDEST DUP4 SSTORE POP JUMPDEST PUSH1 0x1 PUSH1 0x2 DUP9 MUL ADD DUP9 SSTORE POP POP POP JUMPDEST POP POP POP POP POP POP JUMP INVALID LOG2 PUSH5 0x6970667358 0x22 SLT KECCAK256 SWAP11 BASEFEE 0xC7 0x4D PUSH19 0xE7A688C6D9E6B417607D64FD79CB87207E24C8 PUSH11 0x9D1572C6FB271F64736F6C PUSH4 0x4300081C STOP CALLER "},"methodIdentifiers":{"MAX_ANSWERS()":"701c7372","MAX_ANSWER_LENGTH()":"fd3a8329","MAX_QUESTION_LENGTH()":"d29f70e8","createPoll(string,string[],bool,uint256)":"002ce0a5","getActivePolls()":"63a9492f","getPollInfo(uint256)":"29b8f44a","getResults(uint256)":"81a60c0d","getUserVotes(uint256,address)":"e8abfd94","nextPollID()":"b04e283e","polls(uint256)":"ac2f0074","vote(uint256,uint256[])":"7055d368"}}}}}