{"contracts/voting.sol":{"Voting":{"abi":[{"inputs":[],"stateMutability":"nonpayable","type":"constructor"},{"anonymous":false,"inputs":[{"indexed":true,"internalType":"uint256","name":"id","type":"uint256"}],"name":"PollCanceled","type":"event"},{"anonymous":false,"inputs":[{"indexed":true,"internalType":"uint256","name":"id","type":"uint256"},{"indexed":false,"internalType":"address","name":"creator","type":"address"},{"indexed":false,"internalType":"bytes","name":"question","type":"bytes"}],"name":"PollCreated","type":"event"},{"anonymous":false,"inputs":[{"indexed":true,"internalType":"uint256","name":"id","type":"uint256"}],"name":"PollEdited","type":"event"},{"anonymous":false,"inputs":[{"indexed":true,"internalType":"uint256","name":"pollID","type":"uint256"},{"indexed":false,"internalType":"uint256","name":"newStartTime","type":"uint256"}],"name":"ScheduleUpdated","type":"event"},{"anonymous":false,"inputs":[{"indexed":true,"internalType":"address","name":"voter","type":"address"},{"indexed":true,"internalType":"uint256","name":"pollID","type":"uint256"},{"indexed":false,"internalType":"uint256[]","name":"answerIDs","type":"uint256[]"},{"indexed":false,"internalType":"uint256","name":"timestamp","type":"uint256"}],"name":"Voted","type":"event"},{"inputs":[{"internalType":"uint256","name":"_pollID","type":"uint256"}],"name":"cancelPoll","outputs":[],"stateMutability":"nonpayable","type":"function"},{"inputs":[{"internalType":"bytes","name":"_question","type":"bytes"},{"internalType":"bytes[]","name":"_answers","type":"bytes[]"},{"internalType":"bool","name":"_multipleChoices","type":"bool"},{"internalType":"uint256","name":"_startTime","type":"uint256"},{"internalType":"uint256","name":"_duration","type":"uint256"}],"name":"createPoll","outputs":[],"stateMutability":"nonpayable","type":"function"},{"inputs":[{"internalType":"uint256","name":"_pollID","type":"uint256"}],"name":"getPollInfo","outputs":[{"internalType":"address","name":"creator","type":"address"},{"internalType":"uint256","name":"startTime","type":"uint256"},{"internalType":"uint256","name":"endTime","type":"uint256"},{"internalType":"bytes","name":"question","type":"bytes"},{"internalType":"bytes[]","name":"answers","type":"bytes[]"},{"internalType":"bool","name":"multipleChoices","type":"bool"},{"internalType":"bool","name":"canceled","type":"bool"}],"stateMutability":"view","type":"function"},{"inputs":[{"internalType":"uint256","name":"_pollID","type":"uint256"}],"name":"getResults","outputs":[{"internalType":"uint256[]","name":"","type":"uint256[]"}],"stateMutability":"view","type":"function"},{"inputs":[{"internalType":"uint256","name":"_pollID","type":"uint256"},{"internalType":"address","name":"_user","type":"address"}],"name":"getUserVotes","outputs":[{"internalType":"uint256[]","name":"","type":"uint256[]"}],"stateMutability":"view","type":"function"},{"inputs":[],"name":"maxAnswerLength","outputs":[{"internalType":"uint256","name":"","type":"uint256"}],"stateMutability":"view","type":"function"},{"inputs":[],"name":"maxAnswers","outputs":[{"internalType":"uint256","name":"","type":"uint256"}],"stateMutability":"view","type":"function"},{"inputs":[],"name":"maxDuration","outputs":[{"internalType":"uint256","name":"","type":"uint256"}],"stateMutability":"view","type":"function"},{"inputs":[],"name":"maxQuestionLength","outputs":[{"internalType":"uint256","name":"","type":"uint256"}],"stateMutability":"view","type":"function"},{"inputs":[],"name":"minDuration","outputs":[{"internalType":"uint256","name":"","type":"uint256"}],"stateMutability":"view","type":"function"},{"inputs":[],"name":"nextPollID","outputs":[{"internalType":"uint256","name":"","type":"uint256"}],"stateMutability":"view","type":"function"},{"inputs":[{"internalType":"uint256","name":"_pollID","type":"uint256"},{"internalType":"uint256","name":"_newStartTime","type":"uint256"},{"internalType":"uint256","name":"_newDuration","type":"uint256"}],"name":"updatePollSchedule","outputs":[],"stateMutability":"nonpayable","type":"function"},{"inputs":[{"internalType":"uint256","name":"_pollID","type":"uint256"},{"internalType":"uint256[]","name":"_answerIDs","type":"uint256[]"}],"name":"vote","outputs":[],"stateMutability":"nonpayable","type":"function"}],"evm":{"bytecode":{"linkReferences":{},"object":"6080806040523460365760106002556101006003556080600455603c6005556301e13380600655600180556112ca908161003c8239f35b600080fdfe608080604052600436101561001357600080fd5b60003560e01c9081630e7b80ee14610ea25750806329b8f44a14610d475780633d5c5697146107de57806356715761146107c05780636db5c8fd146107a25780637055d3681461040c57806381a60c0d14610344578063824c157914610326578063b04e283e14610308578063d0ec160714610263578063df0ff1c614610245578063e2af45071461016f5763e8abfd94146100ae57600080fd5b3461016a57604036600319011261016a576024356004356001600160a01b038216820361016a578060005260006020526100ee6040600020541515610f69565b600052600060205260086040600020019060018060a01b0316600052602052604060002060405190816020825491828152019160005260206000209060005b818110610154576101508561014481870382610fe5565b60405191829182610f2f565b0390f35b825484526020909301926001928301920161012d565b600080fd5b3461016a57606036600319011261016a576004357f644a9f205d77531ec9577a8e9e61b6f8737b60425f866c6d371472dd26842759602060243560443584600052600083526101cf60018060a01b0360016040600020015416331461121c565b6101da4283116110c3565b6101e860055482101561110f565b6101f6600654821115611150565b846000526000835261020e6040600020541515610f69565b84600052600083526003610239604060002092846002850161023281544210611256565b55846111e8565b910155604051908152a2005b3461016a57600036600319011261016a576020600354604051908152f35b3461016a57602036600319011261016a5760043580600052600060205261029b60018060a01b0360016040600020015416331461121c565b8060005260006020526102b46040600020541515610f69565b806000526000602052600660406000206102d360028201544210611256565b01805461ff0019166101001790557fcbf6c6edb69cb9a305bdb44565eee6d45abd4788040a52a368e5d93dc6d6d35c600080a2005b3461016a57600036600319011261016a576020600154604051908152f35b3461016a57600036600319011261016a576020600454604051908152f35b3461016a57602036600319011261016a576004358060005260006020526103716040600020541515610f69565b60005260006020526040600020600581015461038c816110ab565b9161039a6040519384610fe5565b818352601f196103a9836110ab565b0136602085013760070160005b8281106103cb57604051806101508682610f2f565b80600052816020526040600020549084518110156103f65760019160208260051b87010152016103b6565b634e487b7160e01b600052603260045260246000fd5b3461016a57604036600319011261016a5760043560243567ffffffffffffffff811161016a57610440903690600401610efe565b8260005260006020526040600020600281015461045e811515610f69565b421061076a5760038101544211610738576006015460081c60ff166107035760008381526020818152604080832033845260088101928390529220546106ce5782156106935760ff60068301541615610645575b600582015460005b8481106105f15750503360009081526020919091526040902067ffffffffffffffff83116105db57600160401b83116105db5780548382558084106105bd575b50839060005260206000209060005b8481106105a95750505060070160005b82811061057c575050604080518181529081018290526001600160fb1b03821161016a577f13cece5f499f034b135ee8a40385242c6bdcebeb11a85ba062f7bec84b42e5c99160051b8093606083013742602082015260608133948101030190a3005b8061058a600192858761120c565b356000528260205260406000206105a181546111c3565b905501610519565b600190602083359301928185015501610509565b6105d5908260005284602060002091820191016111f5565b856104fa565b634e487b7160e01b600052604160045260246000fd5b816105fd82878961120c565b35101561060c576001016104ba565b60405162461bcd60e51b8152602060048201526011602482015270125b9d985b1a5908185b9cddd95c881251607a1b6044820152606490fd5b60018303156104b25760405162461bcd60e51b815260206004820152601a60248201527f4f6e6c792073696e676c652063686f69636520616c6c6f7765640000000000006044820152606490fd5b60405162461bcd60e51b8152602060048201526013602482015272139bc8185b9cddd95c9cc81cd95b1958dd1959606a1b6044820152606490fd5b60405162461bcd60e51b815260206004820152600d60248201526c105b1c9958591e481d9bdd1959609a1b6044820152606490fd5b60405162461bcd60e51b815260206004820152600d60248201526c141bdb1b0818d85b98d95b1959609a1b6044820152606490fd5b60405162461bcd60e51b815260206004820152600a602482015269141bdb1b08195b99195960b21b6044820152606490fd5b60405162461bcd60e51b815260206004820152601060248201526f141bdb1b081b9bdd081cdd185c9d195960821b6044820152606490fd5b3461016a57600036600319011261016a576020600654604051908152f35b3461016a57600036600319011261016a576020600554604051908152f35b3461016a5760a036600319011261016a5760043567ffffffffffffffff811161016a573660238201121561016a5780600401359067ffffffffffffffff821161016a57366024838301011161016a5760243567ffffffffffffffff811161016a5761084d903690600401610efe565b916044359081151580920361016a57606435946084359261086f4288116110c3565b61087d60055485101561110f565b61088b600654851115611150565b6003548211610d02576001861180610cf6575b15610cb957600454959660005b8881101561090f57876108c38260051b890189611190565b9050116108d2576001016108ab565b60405162461bcd60e51b8152602060048201526015602482015274092dcecc2d8d2c840c2dce6eecae440d8cadccee8d605b1b6044820152606490fd5b508761095c60015496610921886111c3565b60015587600052600060205260406000209388855560018501336bffffffffffffffffffffffff60a01b8254161790558060028601556111e8565b600383015560048201966000976109738154610fab565b601f8111610c89575b508886601f8111600114610c1f57806109aa928c91610c11575b508160011b916000199060031b1c19161790565b90555b60058301600160401b8311610bfd578054838255808410610b83575b508852602088208891805b848410610a4a578a8a7fee8f1cf0b5e1e08a2cc0c92c9bba00b68e0d89106434196211f0b1e7f4621742602460608d8d8d60068e019060ff80198354169116179055806040519485933385526040602086015282604086015201848401378181018301879052601f01601f19168101030190a280f35b610a548183611190565b9067ffffffffffffffff8211610b6f578c610a6f8654610fab565b601f8111610b34575b50908d601f8411600114610aca578360019592946020948796610ab09492610abf575b50508160011b916000199060031b1c19161790565b86555b019301930192916109d4565b013590503880610a9b565b91601f19841687845260208420935b818110610b1c5750936020936001969387969383889510610b02575b505050811b018655610ab3565b0135600019600384901b60f8161c19169055388080610af5565b91936020600181928787013581550195019201610ad9565b60208288610b5e945220601f850160051c81019160208610610b65575b601f0160051c01906111f5565b8c8e610a78565b9091508190610b51565b634e487b7160e01b8d52604160045260248dfd5b818a528360208b2091820191015b818110610b9e57506109c9565b808b610bac60019354610fab565b80610bba575b505001610b91565b601f81118414610bd15750508b81555b8b8d610bb2565b83601f60208486610bec965220920160051c820191016111f5565b808c528b6020812081835555610bca565b634e487b7160e01b89526041600452602489fd5b602491508a0101358c610996565b50818a5260208a209087601f1981168c5b8b828210610c6c57505010610c4f575b5050600186811b0190556109ad565b880160240135600019600389901b60f8161c191690558980610c40565b84016024013585556001909401936020938401938b935001610c30565b610cb390828b5260208b20601f890160051c81019160208a10610b6557601f0160051c01906111f5565b8961097c565b60405162461bcd60e51b8152602060048201526015602482015274125b9d985b1a5908185b9cddd95c9cc818dbdd5b9d605a1b6044820152606490fd5b5060025486111561089e565b60405162461bcd60e51b815260206004820152601760248201527f496e76616c6964207175657374696f6e206c656e6774680000000000000000006044820152606490fd5b3461016a57602036600319011261016a57600435806000526000602052610d746040600020541515610f69565b6000526000602052604060002060018060a01b0360018201541660028201546003830154906005840191610daf600460068701549601611007565b90835492610dbc846110ab565b93610dca6040519586610fe5565b80855260208501809660005260206000206000915b838310610e85575050505090610e1192916040519687526020870152604086015260e0606086015260e0850190610ebd565b90838203608085015251808252602082019160208260051b82010193926000915b838310610e585786808760ff8b818116151560a085015260081c16151560c08301520390f35b9091929394602080610e76600193601f198682030187528951610ebd565b97019301930191939290610e32565b600160208192610e9485611007565b815201920192019190610ddf565b3461016a57600036600319011261016a576020906002548152f35b919082519283825260005b848110610ee9575050826000602080949584010152601f8019910116010190565b80602080928401015182828601015201610ec8565b9181601f8401121561016a5782359167ffffffffffffffff831161016a576020808501948460051b01011161016a57565b602060408183019282815284518094520192019060005b818110610f535750505090565b8251845260209384019390920191600101610f46565b15610f7057565b60405162461bcd60e51b8152602060048201526013602482015272141bdb1b08191bd95cc81b9bdd08195e1a5cdd606a1b6044820152606490fd5b90600182811c92168015610fdb575b6020831014610fc557565b634e487b7160e01b600052602260045260246000fd5b91607f1691610fba565b90601f8019910116810190811067ffffffffffffffff8211176105db57604052565b906040519182600082549261101b84610fab565b80845293600181169081156110895750600114611042575b5061104092500383610fe5565b565b90506000929192526020600020906000915b81831061106d5750509060206110409282010138611033565b6020919350806001915483858901015201910190918492611054565b90506020925061104094915060ff191682840152151560051b82010138611033565b67ffffffffffffffff81116105db5760051b60200190565b156110ca57565b60405162461bcd60e51b815260206004820152601960248201527f53746172742074696d65206d75737420626520667574757265000000000000006044820152606490fd5b1561111657565b60405162461bcd60e51b8152602060048201526012602482015271111d5c985d1a5bdb881d1bdbc81cda1bdc9d60721b6044820152606490fd5b1561115757565b60405162461bcd60e51b81526020600482015260116024820152704475726174696f6e20746f6f206c6f6e6760781b6044820152606490fd5b903590601e198136030182121561016a570180359067ffffffffffffffff821161016a5760200191813603831361016a57565b60001981146111d25760010190565b634e487b7160e01b600052601160045260246000fd5b919082018092116111d257565b818110611200575050565b600081556001016111f5565b91908110156103f65760051b0190565b1561122357565b60405162461bcd60e51b815260206004820152600b60248201526a2737ba1031b932b0ba37b960a91b6044820152606490fd5b1561125d57565b60405162461bcd60e51b815260206004820152600f60248201526e105b1c9958591e481cdd185c9d1959608a1b6044820152606490fdfea2646970667358221220c7559dad66cc83cb522189166dab9ceef0fe49dbc373b5d09e405f45a27742c964736f6c634300081c0033","opcodes":"PUSH1 0x80 DUP1 PUSH1 0x40 MSTORE CALLVALUE PUSH1 0x36 JUMPI PUSH1 0x10 PUSH1 0x2 SSTORE PUSH2 0x100 PUSH1 0x3 SSTORE PUSH1 0x80 PUSH1 0x4 SSTORE PUSH1 0x3C PUSH1 0x5 SSTORE PUSH4 0x1E13380 PUSH1 0x6 SSTORE PUSH1 0x1 DUP1 SSTORE PUSH2 0x12CA SWAP1 DUP2 PUSH2 0x3C DUP3 CODECOPY RETURN JUMPDEST PUSH1 0x0 DUP1 REVERT INVALID PUSH1 0x80 DUP1 PUSH1 0x40 MSTORE PUSH1 0x4 CALLDATASIZE LT ISZERO PUSH2 0x13 JUMPI PUSH1 0x0 DUP1 REVERT JUMPDEST PUSH1 0x0 CALLDATALOAD PUSH1 0xE0 SHR SWAP1 DUP2 PUSH4 0xE7B80EE EQ PUSH2 0xEA2 JUMPI POP DUP1 PUSH4 0x29B8F44A EQ PUSH2 0xD47 JUMPI DUP1 PUSH4 0x3D5C5697 EQ PUSH2 0x7DE JUMPI DUP1 PUSH4 0x56715761 EQ PUSH2 0x7C0 JUMPI DUP1 PUSH4 0x6DB5C8FD EQ PUSH2 0x7A2 JUMPI DUP1 PUSH4 0x7055D368 EQ PUSH2 0x40C JUMPI DUP1 PUSH4 0x81A60C0D EQ PUSH2 0x344 JUMPI DUP1 PUSH4 0x824C1579 EQ PUSH2 0x326 JUMPI DUP1 PUSH4 0xB04E283E EQ PUSH2 0x308 JUMPI DUP1 PUSH4 0xD0EC1607 EQ PUSH2 0x263 JUMPI DUP1 PUSH4 0xDF0FF1C6 EQ PUSH2 0x245 JUMPI DUP1 PUSH4 0xE2AF4507 EQ PUSH2 0x16F JUMPI PUSH4 0xE8ABFD94 EQ PUSH2 0xAE JUMPI PUSH1 0x0 DUP1 REVERT JUMPDEST CALLVALUE PUSH2 0x16A JUMPI PUSH1 0x40 CALLDATASIZE PUSH1 0x3 NOT ADD SLT PUSH2 0x16A JUMPI PUSH1 0x24 CALLDATALOAD PUSH1 0x4 CALLDATALOAD PUSH1 0x1 PUSH1 0x1 PUSH1 0xA0 SHL SUB DUP3 AND DUP3 SUB PUSH2 0x16A JUMPI DUP1 PUSH1 0x0 MSTORE PUSH1 0x0 PUSH1 0x20 MSTORE PUSH2 0xEE PUSH1 0x40 PUSH1 0x0 KECCAK256 SLOAD ISZERO ISZERO PUSH2 0xF69 JUMP JUMPDEST PUSH1 0x0 MSTORE PUSH1 0x0 PUSH1 0x20 MSTORE PUSH1 0x8 PUSH1 0x40 PUSH1 0x0 KECCAK256 ADD SWAP1 PUSH1 0x1 DUP1 PUSH1 0xA0 SHL SUB AND PUSH1 0x0 MSTORE PUSH1 0x20 MSTORE PUSH1 0x40 PUSH1 0x0 KECCAK256 PUSH1 0x40 MLOAD SWAP1 DUP2 PUSH1 0x20 DUP3 SLOAD SWAP2 DUP3 DUP2 MSTORE ADD SWAP2 PUSH1 0x0 MSTORE PUSH1 0x20 PUSH1 0x0 KECCAK256 SWAP1 PUSH1 0x0 JUMPDEST DUP2 DUP2 LT PUSH2 0x154 JUMPI PUSH2 0x150 DUP6 PUSH2 0x144 DUP2 DUP8 SUB DUP3 PUSH2 0xFE5 JUMP JUMPDEST PUSH1 0x40 MLOAD SWAP2 DUP3 SWAP2 DUP3 PUSH2 0xF2F JUMP JUMPDEST SUB SWAP1 RETURN JUMPDEST DUP3 SLOAD DUP5 MSTORE PUSH1 0x20 SWAP1 SWAP4 ADD SWAP3 PUSH1 0x1 SWAP3 DUP4 ADD SWAP3 ADD PUSH2 0x12D JUMP JUMPDEST PUSH1 0x0 DUP1 REVERT JUMPDEST CALLVALUE PUSH2 0x16A JUMPI PUSH1 0x60 CALLDATASIZE PUSH1 0x3 NOT ADD SLT PUSH2 0x16A JUMPI PUSH1 0x4 CALLDATALOAD PUSH32 0x644A9F205D77531EC9577A8E9E61B6F8737B60425F866C6D371472DD26842759 PUSH1 0x20 PUSH1 0x24 CALLDATALOAD PUSH1 0x44 CALLDATALOAD DUP5 PUSH1 0x0 MSTORE PUSH1 0x0 DUP4 MSTORE PUSH2 0x1CF PUSH1 0x1 DUP1 PUSH1 0xA0 SHL SUB PUSH1 0x1 PUSH1 0x40 PUSH1 0x0 KECCAK256 ADD SLOAD AND CALLER EQ PUSH2 0x121C JUMP JUMPDEST PUSH2 0x1DA TIMESTAMP DUP4 GT PUSH2 0x10C3 JUMP JUMPDEST PUSH2 0x1E8 PUSH1 0x5 SLOAD DUP3 LT ISZERO PUSH2 0x110F JUMP JUMPDEST PUSH2 0x1F6 PUSH1 0x6 SLOAD DUP3 GT ISZERO PUSH2 0x1150 JUMP JUMPDEST DUP5 PUSH1 0x0 MSTORE PUSH1 0x0 DUP4 MSTORE PUSH2 0x20E PUSH1 0x40 PUSH1 0x0 KECCAK256 SLOAD ISZERO ISZERO PUSH2 0xF69 JUMP JUMPDEST DUP5 PUSH1 0x0 MSTORE PUSH1 0x0 DUP4 MSTORE PUSH1 0x3 PUSH2 0x239 PUSH1 0x40 PUSH1 0x0 KECCAK256 SWAP3 DUP5 PUSH1 0x2 DUP6 ADD PUSH2 0x232 DUP2 SLOAD TIMESTAMP LT PUSH2 0x1256 JUMP JUMPDEST SSTORE DUP5 PUSH2 0x11E8 JUMP JUMPDEST SWAP2 ADD SSTORE PUSH1 0x40 MLOAD SWAP1 DUP2 MSTORE LOG2 STOP JUMPDEST CALLVALUE PUSH2 0x16A JUMPI PUSH1 0x0 CALLDATASIZE PUSH1 0x3 NOT ADD SLT PUSH2 0x16A JUMPI PUSH1 0x20 PUSH1 0x3 SLOAD PUSH1 0x40 MLOAD SWAP1 DUP2 MSTORE RETURN JUMPDEST CALLVALUE PUSH2 0x16A JUMPI PUSH1 0x20 CALLDATASIZE PUSH1 0x3 NOT ADD SLT PUSH2 0x16A JUMPI PUSH1 0x4 CALLDATALOAD DUP1 PUSH1 0x0 MSTORE PUSH1 0x0 PUSH1 0x20 MSTORE PUSH2 0x29B PUSH1 0x1 DUP1 PUSH1 0xA0 SHL SUB PUSH1 0x1 PUSH1 0x40 PUSH1 0x0 KECCAK256 ADD SLOAD AND CALLER EQ PUSH2 0x121C JUMP JUMPDEST DUP1 PUSH1 0x0 MSTORE PUSH1 0x0 PUSH1 0x20 MSTORE PUSH2 0x2B4 PUSH1 0x40 PUSH1 0x0 KECCAK256 SLOAD ISZERO ISZERO PUSH2 0xF69 JUMP JUMPDEST DUP1 PUSH1 0x0 MSTORE PUSH1 0x0 PUSH1 0x20 MSTORE PUSH1 0x6 PUSH1 0x40 PUSH1 0x0 KECCAK256 PUSH2 0x2D3 PUSH1 0x2 DUP3 ADD SLOAD TIMESTAMP LT PUSH2 0x1256 JUMP JUMPDEST ADD DUP1 SLOAD PUSH2 0xFF00 NOT AND PUSH2 0x100 OR SWAP1 SSTORE PUSH32 0xCBF6C6EDB69CB9A305BDB44565EEE6D45ABD4788040A52A368E5D93DC6D6D35C PUSH1 0x0 DUP1 LOG2 STOP JUMPDEST CALLVALUE PUSH2 0x16A JUMPI PUSH1 0x0 CALLDATASIZE PUSH1 0x3 NOT ADD SLT PUSH2 0x16A JUMPI PUSH1 0x20 PUSH1 0x1 SLOAD PUSH1 0x40 MLOAD SWAP1 DUP2 MSTORE RETURN JUMPDEST CALLVALUE PUSH2 0x16A JUMPI PUSH1 0x0 CALLDATASIZE PUSH1 0x3 NOT ADD SLT PUSH2 0x16A JUMPI PUSH1 0x20 PUSH1 0x4 SLOAD PUSH1 0x40 MLOAD SWAP1 DUP2 MSTORE RETURN JUMPDEST CALLVALUE PUSH2 0x16A JUMPI PUSH1 0x20 CALLDATASIZE PUSH1 0x3 NOT ADD SLT PUSH2 0x16A JUMPI PUSH1 0x4 CALLDATALOAD DUP1 PUSH1 0x0 MSTORE PUSH1 0x0 PUSH1 0x20 MSTORE PUSH2 0x371 PUSH1 0x40 PUSH1 0x0 KECCAK256 SLOAD ISZERO ISZERO PUSH2 0xF69 JUMP JUMPDEST PUSH1 0x0 MSTORE PUSH1 0x0 PUSH1 0x20 MSTORE PUSH1 0x40 PUSH1 0x0 KECCAK256 PUSH1 0x5 DUP2 ADD SLOAD PUSH2 0x38C DUP2 PUSH2 0x10AB JUMP JUMPDEST SWAP2 PUSH2 0x39A PUSH1 0x40 MLOAD SWAP4 DUP5 PUSH2 0xFE5 JUMP JUMPDEST DUP2 DUP4 MSTORE PUSH1 0x1F NOT PUSH2 0x3A9 DUP4 PUSH2 0x10AB JUMP JUMPDEST ADD CALLDATASIZE PUSH1 0x20 DUP6 ADD CALLDATACOPY PUSH1 0x7 ADD PUSH1 0x0 JUMPDEST DUP3 DUP2 LT PUSH2 0x3CB JUMPI PUSH1 0x40 MLOAD DUP1 PUSH2 0x150 DUP7 DUP3 PUSH2 0xF2F JUMP JUMPDEST DUP1 PUSH1 0x0 MSTORE DUP2 PUSH1 0x20 MSTORE PUSH1 0x40 PUSH1 0x0 KECCAK256 SLOAD SWAP1 DUP5 MLOAD DUP2 LT ISZERO PUSH2 0x3F6 JUMPI PUSH1 0x1 SWAP2 PUSH1 0x20 DUP3 PUSH1 0x5 SHL DUP8 ADD ADD MSTORE ADD PUSH2 0x3B6 JUMP JUMPDEST PUSH4 0x4E487B71 PUSH1 0xE0 SHL PUSH1 0x0 MSTORE PUSH1 0x32 PUSH1 0x4 MSTORE PUSH1 0x24 PUSH1 0x0 REVERT JUMPDEST CALLVALUE PUSH2 0x16A JUMPI PUSH1 0x40 CALLDATASIZE PUSH1 0x3 NOT ADD SLT PUSH2 0x16A JUMPI PUSH1 0x4 CALLDATALOAD PUSH1 0x24 CALLDATALOAD PUSH8 0xFFFFFFFFFFFFFFFF DUP2 GT PUSH2 0x16A JUMPI PUSH2 0x440 SWAP1 CALLDATASIZE SWAP1 PUSH1 0x4 ADD PUSH2 0xEFE JUMP JUMPDEST DUP3 PUSH1 0x0 MSTORE PUSH1 0x0 PUSH1 0x20 MSTORE PUSH1 0x40 PUSH1 0x0 KECCAK256 PUSH1 0x2 DUP2 ADD SLOAD PUSH2 0x45E DUP2 ISZERO ISZERO PUSH2 0xF69 JUMP JUMPDEST TIMESTAMP LT PUSH2 0x76A JUMPI PUSH1 0x3 DUP2 ADD SLOAD TIMESTAMP GT PUSH2 0x738 JUMPI PUSH1 0x6 ADD SLOAD PUSH1 0x8 SHR PUSH1 0xFF AND PUSH2 0x703 JUMPI PUSH1 0x0 DUP4 DUP2 MSTORE PUSH1 0x20 DUP2 DUP2 MSTORE PUSH1 0x40 DUP1 DUP4 KECCAK256 CALLER DUP5 MSTORE PUSH1 0x8 DUP2 ADD SWAP3 DUP4 SWAP1 MSTORE SWAP3 KECCAK256 SLOAD PUSH2 0x6CE JUMPI DUP3 ISZERO PUSH2 0x693 JUMPI PUSH1 0xFF PUSH1 0x6 DUP4 ADD SLOAD AND ISZERO PUSH2 0x645 JUMPI JUMPDEST PUSH1 0x5 DUP3 ADD SLOAD PUSH1 0x0 JUMPDEST DUP5 DUP2 LT PUSH2 0x5F1 JUMPI POP POP CALLER PUSH1 0x0 SWAP1 DUP2 MSTORE PUSH1 0x20 SWAP2 SWAP1 SWAP2 MSTORE PUSH1 0x40 SWAP1 KECCAK256 PUSH8 0xFFFFFFFFFFFFFFFF DUP4 GT PUSH2 0x5DB JUMPI PUSH1 0x1 PUSH1 0x40 SHL DUP4 GT PUSH2 0x5DB JUMPI DUP1 SLOAD DUP4 DUP3 SSTORE DUP1 DUP5 LT PUSH2 0x5BD JUMPI JUMPDEST POP DUP4 SWAP1 PUSH1 0x0 MSTORE PUSH1 0x20 PUSH1 0x0 KECCAK256 SWAP1 PUSH1 0x0 JUMPDEST DUP5 DUP2 LT PUSH2 0x5A9 JUMPI POP POP POP PUSH1 0x7 ADD PUSH1 0x0 JUMPDEST DUP3 DUP2 LT PUSH2 0x57C JUMPI POP POP PUSH1 0x40 DUP1 MLOAD DUP2 DUP2 MSTORE SWAP1 DUP2 ADD DUP3 SWAP1 MSTORE PUSH1 0x1 PUSH1 0x1 PUSH1 0xFB SHL SUB DUP3 GT PUSH2 0x16A JUMPI PUSH32 0x13CECE5F499F034B135EE8A40385242C6BDCEBEB11A85BA062F7BEC84B42E5C9 SWAP2 PUSH1 0x5 SHL DUP1 SWAP4 PUSH1 0x60 DUP4 ADD CALLDATACOPY TIMESTAMP PUSH1 0x20 DUP3 ADD MSTORE PUSH1 0x60 DUP2 CALLER SWAP5 DUP2 ADD SUB ADD SWAP1 LOG3 STOP JUMPDEST DUP1 PUSH2 0x58A PUSH1 0x1 SWAP3 DUP6 DUP8 PUSH2 0x120C JUMP JUMPDEST CALLDATALOAD PUSH1 0x0 MSTORE DUP3 PUSH1 0x20 MSTORE PUSH1 0x40 PUSH1 0x0 KECCAK256 PUSH2 0x5A1 DUP2 SLOAD PUSH2 0x11C3 JUMP JUMPDEST SWAP1 SSTORE ADD PUSH2 0x519 JUMP JUMPDEST PUSH1 0x1 SWAP1 PUSH1 0x20 DUP4 CALLDATALOAD SWAP4 ADD SWAP3 DUP2 DUP6 ADD SSTORE ADD PUSH2 0x509 JUMP JUMPDEST PUSH2 0x5D5 SWAP1 DUP3 PUSH1 0x0 MSTORE DUP5 PUSH1 0x20 PUSH1 0x0 KECCAK256 SWAP2 DUP3 ADD SWAP2 ADD PUSH2 0x11F5 JUMP JUMPDEST DUP6 PUSH2 0x4FA JUMP JUMPDEST PUSH4 0x4E487B71 PUSH1 0xE0 SHL PUSH1 0x0 MSTORE PUSH1 0x41 PUSH1 0x4 MSTORE PUSH1 0x24 PUSH1 0x0 REVERT JUMPDEST DUP2 PUSH2 0x5FD DUP3 DUP8 DUP10 PUSH2 0x120C JUMP JUMPDEST CALLDATALOAD LT ISZERO PUSH2 0x60C JUMPI PUSH1 0x1 ADD PUSH2 0x4BA JUMP JUMPDEST PUSH1 0x40 MLOAD PUSH3 0x461BCD PUSH1 0xE5 SHL DUP2 MSTORE PUSH1 0x20 PUSH1 0x4 DUP3 ADD MSTORE PUSH1 0x11 PUSH1 0x24 DUP3 ADD MSTORE PUSH17 0x125B9D985B1A5908185B9CDDD95C881251 PUSH1 0x7A SHL PUSH1 0x44 DUP3 ADD MSTORE PUSH1 0x64 SWAP1 REVERT JUMPDEST PUSH1 0x1 DUP4 SUB ISZERO PUSH2 0x4B2 JUMPI PUSH1 0x40 MLOAD PUSH3 0x461BCD PUSH1 0xE5 SHL DUP2 MSTORE PUSH1 0x20 PUSH1 0x4 DUP3 ADD MSTORE PUSH1 0x1A PUSH1 0x24 DUP3 ADD MSTORE PUSH32 0x4F6E6C792073696E676C652063686F69636520616C6C6F776564000000000000 PUSH1 0x44 DUP3 ADD MSTORE PUSH1 0x64 SWAP1 REVERT JUMPDEST PUSH1 0x40 MLOAD PUSH3 0x461BCD PUSH1 0xE5 SHL DUP2 MSTORE PUSH1 0x20 PUSH1 0x4 DUP3 ADD MSTORE PUSH1 0x13 PUSH1 0x24 DUP3 ADD MSTORE PUSH19 0x139BC8185B9CDDD95C9CC81CD95B1958DD1959 PUSH1 0x6A SHL PUSH1 0x44 DUP3 ADD MSTORE PUSH1 0x64 SWAP1 REVERT JUMPDEST PUSH1 0x40 MLOAD PUSH3 0x461BCD PUSH1 0xE5 SHL DUP2 MSTORE PUSH1 0x20 PUSH1 0x4 DUP3 ADD MSTORE PUSH1 0xD PUSH1 0x24 DUP3 ADD MSTORE PUSH13 0x105B1C9958591E481D9BDD1959 PUSH1 0x9A SHL PUSH1 0x44 DUP3 ADD MSTORE PUSH1 0x64 SWAP1 REVERT JUMPDEST PUSH1 0x40 MLOAD PUSH3 0x461BCD PUSH1 0xE5 SHL DUP2 MSTORE PUSH1 0x20 PUSH1 0x4 DUP3 ADD MSTORE PUSH1 0xD PUSH1 0x24 DUP3 ADD MSTORE PUSH13 0x141BDB1B0818D85B98D95B1959 PUSH1 0x9A SHL PUSH1 0x44 DUP3 ADD MSTORE PUSH1 0x64 SWAP1 REVERT JUMPDEST PUSH1 0x40 MLOAD PUSH3 0x461BCD PUSH1 0xE5 SHL DUP2 MSTORE PUSH1 0x20 PUSH1 0x4 DUP3 ADD MSTORE PUSH1 0xA PUSH1 0x24 DUP3 ADD MSTORE PUSH10 0x141BDB1B08195B991959 PUSH1 0xB2 SHL PUSH1 0x44 DUP3 ADD MSTORE PUSH1 0x64 SWAP1 REVERT JUMPDEST PUSH1 0x40 MLOAD PUSH3 0x461BCD PUSH1 0xE5 SHL DUP2 MSTORE PUSH1 0x20 PUSH1 0x4 DUP3 ADD MSTORE PUSH1 0x10 PUSH1 0x24 DUP3 ADD MSTORE PUSH16 0x141BDB1B081B9BDD081CDD185C9D1959 PUSH1 0x82 SHL PUSH1 0x44 DUP3 ADD MSTORE PUSH1 0x64 SWAP1 REVERT JUMPDEST CALLVALUE PUSH2 0x16A JUMPI PUSH1 0x0 CALLDATASIZE PUSH1 0x3 NOT ADD SLT PUSH2 0x16A JUMPI PUSH1 0x20 PUSH1 0x6 SLOAD PUSH1 0x40 MLOAD SWAP1 DUP2 MSTORE RETURN JUMPDEST CALLVALUE PUSH2 0x16A JUMPI PUSH1 0x0 CALLDATASIZE PUSH1 0x3 NOT ADD SLT PUSH2 0x16A JUMPI PUSH1 0x20 PUSH1 0x5 SLOAD PUSH1 0x40 MLOAD SWAP1 DUP2 MSTORE RETURN JUMPDEST CALLVALUE PUSH2 0x16A JUMPI PUSH1 0xA0 CALLDATASIZE PUSH1 0x3 NOT ADD SLT PUSH2 0x16A JUMPI PUSH1 0x4 CALLDATALOAD PUSH8 0xFFFFFFFFFFFFFFFF DUP2 GT PUSH2 0x16A JUMPI CALLDATASIZE PUSH1 0x23 DUP3 ADD SLT ISZERO PUSH2 0x16A JUMPI DUP1 PUSH1 0x4 ADD CALLDATALOAD SWAP1 PUSH8 0xFFFFFFFFFFFFFFFF DUP3 GT PUSH2 0x16A JUMPI CALLDATASIZE PUSH1 0x24 DUP4 DUP4 ADD ADD GT PUSH2 0x16A JUMPI PUSH1 0x24 CALLDATALOAD PUSH8 0xFFFFFFFFFFFFFFFF DUP2 GT PUSH2 0x16A JUMPI PUSH2 0x84D SWAP1 CALLDATASIZE SWAP1 PUSH1 0x4 ADD PUSH2 0xEFE JUMP JUMPDEST SWAP2 PUSH1 0x44 CALLDATALOAD SWAP1 DUP2 ISZERO ISZERO DUP1 SWAP3 SUB PUSH2 0x16A JUMPI PUSH1 0x64 CALLDATALOAD SWAP5 PUSH1 0x84 CALLDATALOAD SWAP3 PUSH2 0x86F TIMESTAMP DUP9 GT PUSH2 0x10C3 JUMP JUMPDEST PUSH2 0x87D PUSH1 0x5 SLOAD DUP6 LT ISZERO PUSH2 0x110F JUMP JUMPDEST PUSH2 0x88B PUSH1 0x6 SLOAD DUP6 GT ISZERO PUSH2 0x1150 JUMP JUMPDEST PUSH1 0x3 SLOAD DUP3 GT PUSH2 0xD02 JUMPI PUSH1 0x1 DUP7 GT DUP1 PUSH2 0xCF6 JUMPI JUMPDEST ISZERO PUSH2 0xCB9 JUMPI PUSH1 0x4 SLOAD SWAP6 SWAP7 PUSH1 0x0 JUMPDEST DUP9 DUP2 LT ISZERO PUSH2 0x90F JUMPI DUP8 PUSH2 0x8C3 DUP3 PUSH1 0x5 SHL DUP10 ADD DUP10 PUSH2 0x1190 JUMP JUMPDEST SWAP1 POP GT PUSH2 0x8D2 JUMPI PUSH1 0x1 ADD PUSH2 0x8AB JUMP JUMPDEST PUSH1 0x40 MLOAD PUSH3 0x461BCD PUSH1 0xE5 SHL DUP2 MSTORE PUSH1 0x20 PUSH1 0x4 DUP3 ADD MSTORE PUSH1 0x15 PUSH1 0x24 DUP3 ADD MSTORE PUSH21 0x92DCECC2D8D2C840C2DCE6EECAE440D8CADCCEE8D PUSH1 0x5B SHL PUSH1 0x44 DUP3 ADD MSTORE PUSH1 0x64 SWAP1 REVERT JUMPDEST POP DUP8 PUSH2 0x95C PUSH1 0x1 SLOAD SWAP7 PUSH2 0x921 DUP9 PUSH2 0x11C3 JUMP JUMPDEST PUSH1 0x1 SSTORE DUP8 PUSH1 0x0 MSTORE PUSH1 0x0 PUSH1 0x20 MSTORE PUSH1 0x40 PUSH1 0x0 KECCAK256 SWAP4 DUP9 DUP6 SSTORE PUSH1 0x1 DUP6 ADD CALLER PUSH12 0xFFFFFFFFFFFFFFFFFFFFFFFF PUSH1 0xA0 SHL DUP3 SLOAD AND OR SWAP1 SSTORE DUP1 PUSH1 0x2 DUP7 ADD SSTORE PUSH2 0x11E8 JUMP JUMPDEST PUSH1 0x3 DUP4 ADD SSTORE PUSH1 0x4 DUP3 ADD SWAP7 PUSH1 0x0 SWAP8 PUSH2 0x973 DUP2 SLOAD PUSH2 0xFAB JUMP JUMPDEST PUSH1 0x1F DUP2 GT PUSH2 0xC89 JUMPI JUMPDEST POP DUP9 DUP7 PUSH1 0x1F DUP2 GT PUSH1 0x1 EQ PUSH2 0xC1F JUMPI DUP1 PUSH2 0x9AA SWAP3 DUP13 SWAP2 PUSH2 0xC11 JUMPI JUMPDEST POP DUP2 PUSH1 0x1 SHL SWAP2 PUSH1 0x0 NOT SWAP1 PUSH1 0x3 SHL SHR NOT AND OR SWAP1 JUMP JUMPDEST SWAP1 SSTORE JUMPDEST PUSH1 0x5 DUP4 ADD PUSH1 0x1 PUSH1 0x40 SHL DUP4 GT PUSH2 0xBFD JUMPI DUP1 SLOAD DUP4 DUP3 SSTORE DUP1 DUP5 LT PUSH2 0xB83 JUMPI JUMPDEST POP DUP9 MSTORE PUSH1 0x20 DUP9 KECCAK256 DUP9 SWAP2 DUP1 JUMPDEST DUP5 DUP5 LT PUSH2 0xA4A JUMPI DUP11 DUP11 PUSH32 0xEE8F1CF0B5E1E08A2CC0C92C9BBA00B68E0D89106434196211F0B1E7F4621742 PUSH1 0x24 PUSH1 0x60 DUP14 DUP14 DUP14 PUSH1 0x6 DUP15 ADD SWAP1 PUSH1 0xFF DUP1 NOT DUP4 SLOAD AND SWAP2 AND OR SWAP1 SSTORE DUP1 PUSH1 0x40 MLOAD SWAP5 DUP6 SWAP4 CALLER DUP6 MSTORE PUSH1 0x40 PUSH1 0x20 DUP7 ADD MSTORE DUP3 PUSH1 0x40 DUP7 ADD MSTORE ADD DUP5 DUP5 ADD CALLDATACOPY DUP2 DUP2 ADD DUP4 ADD DUP8 SWAP1 MSTORE PUSH1 0x1F ADD PUSH1 0x1F NOT AND DUP2 ADD SUB ADD SWAP1 LOG2 DUP1 RETURN JUMPDEST PUSH2 0xA54 DUP2 DUP4 PUSH2 0x1190 JUMP JUMPDEST SWAP1 PUSH8 0xFFFFFFFFFFFFFFFF DUP3 GT PUSH2 0xB6F JUMPI DUP13 PUSH2 0xA6F DUP7 SLOAD PUSH2 0xFAB JUMP JUMPDEST PUSH1 0x1F DUP2 GT PUSH2 0xB34 JUMPI JUMPDEST POP SWAP1 DUP14 PUSH1 0x1F DUP5 GT PUSH1 0x1 EQ PUSH2 0xACA JUMPI DUP4 PUSH1 0x1 SWAP6 SWAP3 SWAP5 PUSH1 0x20 SWAP5 DUP8 SWAP7 PUSH2 0xAB0 SWAP5 SWAP3 PUSH2 0xABF JUMPI JUMPDEST POP POP DUP2 PUSH1 0x1 SHL SWAP2 PUSH1 0x0 NOT SWAP1 PUSH1 0x3 SHL SHR NOT AND OR SWAP1 JUMP JUMPDEST DUP7 SSTORE JUMPDEST ADD SWAP4 ADD SWAP4 ADD SWAP3 SWAP2 PUSH2 0x9D4 JUMP JUMPDEST ADD CALLDATALOAD SWAP1 POP CODESIZE DUP1 PUSH2 0xA9B JUMP JUMPDEST SWAP2 PUSH1 0x1F NOT DUP5 AND DUP8 DUP5 MSTORE PUSH1 0x20 DUP5 KECCAK256 SWAP4 JUMPDEST DUP2 DUP2 LT PUSH2 0xB1C JUMPI POP SWAP4 PUSH1 0x20 SWAP4 PUSH1 0x1 SWAP7 SWAP4 DUP8 SWAP7 SWAP4 DUP4 DUP9 SWAP6 LT PUSH2 0xB02 JUMPI JUMPDEST POP POP POP DUP2 SHL ADD DUP7 SSTORE PUSH2 0xAB3 JUMP JUMPDEST ADD CALLDATALOAD PUSH1 0x0 NOT PUSH1 0x3 DUP5 SWAP1 SHL PUSH1 0xF8 AND SHR NOT AND SWAP1 SSTORE CODESIZE DUP1 DUP1 PUSH2 0xAF5 JUMP JUMPDEST SWAP2 SWAP4 PUSH1 0x20 PUSH1 0x1 DUP2 SWAP3 DUP8 DUP8 ADD CALLDATALOAD DUP2 SSTORE ADD SWAP6 ADD SWAP3 ADD PUSH2 0xAD9 JUMP JUMPDEST PUSH1 0x20 DUP3 DUP9 PUSH2 0xB5E SWAP5 MSTORE KECCAK256 PUSH1 0x1F DUP6 ADD PUSH1 0x5 SHR DUP2 ADD SWAP2 PUSH1 0x20 DUP7 LT PUSH2 0xB65 JUMPI JUMPDEST PUSH1 0x1F ADD PUSH1 0x5 SHR ADD SWAP1 PUSH2 0x11F5 JUMP JUMPDEST DUP13 DUP15 PUSH2 0xA78 JUMP JUMPDEST SWAP1 SWAP2 POP DUP2 SWAP1 PUSH2 0xB51 JUMP JUMPDEST PUSH4 0x4E487B71 PUSH1 0xE0 SHL DUP14 MSTORE PUSH1 0x41 PUSH1 0x4 MSTORE PUSH1 0x24 DUP14 REVERT JUMPDEST DUP2 DUP11 MSTORE DUP4 PUSH1 0x20 DUP12 KECCAK256 SWAP2 DUP3 ADD SWAP2 ADD JUMPDEST DUP2 DUP2 LT PUSH2 0xB9E JUMPI POP PUSH2 0x9C9 JUMP JUMPDEST DUP1 DUP12 PUSH2 0xBAC PUSH1 0x1 SWAP4 SLOAD PUSH2 0xFAB JUMP JUMPDEST DUP1 PUSH2 0xBBA JUMPI JUMPDEST POP POP ADD PUSH2 0xB91 JUMP JUMPDEST PUSH1 0x1F DUP2 GT DUP5 EQ PUSH2 0xBD1 JUMPI POP POP DUP12 DUP2 SSTORE JUMPDEST DUP12 DUP14 PUSH2 0xBB2 JUMP JUMPDEST DUP4 PUSH1 0x1F PUSH1 0x20 DUP5 DUP7 PUSH2 0xBEC SWAP7 MSTORE KECCAK256 SWAP3 ADD PUSH1 0x5 SHR DUP3 ADD SWAP2 ADD PUSH2 0x11F5 JUMP JUMPDEST DUP1 DUP13 MSTORE DUP12 PUSH1 0x20 DUP2 KECCAK256 DUP2 DUP4 SSTORE SSTORE PUSH2 0xBCA JUMP JUMPDEST PUSH4 0x4E487B71 PUSH1 0xE0 SHL DUP10 MSTORE PUSH1 0x41 PUSH1 0x4 MSTORE PUSH1 0x24 DUP10 REVERT JUMPDEST PUSH1 0x24 SWAP2 POP DUP11 ADD ADD CALLDATALOAD DUP13 PUSH2 0x996 JUMP JUMPDEST POP DUP2 DUP11 MSTORE PUSH1 0x20 DUP11 KECCAK256 SWAP1 DUP8 PUSH1 0x1F NOT DUP2 AND DUP13 JUMPDEST DUP12 DUP3 DUP3 LT PUSH2 0xC6C JUMPI POP POP LT PUSH2 0xC4F JUMPI JUMPDEST POP POP PUSH1 0x1 DUP7 DUP2 SHL ADD SWAP1 SSTORE PUSH2 0x9AD JUMP JUMPDEST DUP9 ADD PUSH1 0x24 ADD CALLDATALOAD PUSH1 0x0 NOT PUSH1 0x3 DUP10 SWAP1 SHL PUSH1 0xF8 AND SHR NOT AND SWAP1 SSTORE DUP10 DUP1 PUSH2 0xC40 JUMP JUMPDEST DUP5 ADD PUSH1 0x24 ADD CALLDATALOAD DUP6 SSTORE PUSH1 0x1 SWAP1 SWAP5 ADD SWAP4 PUSH1 0x20 SWAP4 DUP5 ADD SWAP4 DUP12 SWAP4 POP ADD PUSH2 0xC30 JUMP JUMPDEST PUSH2 0xCB3 SWAP1 DUP3 DUP12 MSTORE PUSH1 0x20 DUP12 KECCAK256 PUSH1 0x1F DUP10 ADD PUSH1 0x5 SHR DUP2 ADD SWAP2 PUSH1 0x20 DUP11 LT PUSH2 0xB65 JUMPI PUSH1 0x1F ADD PUSH1 0x5 SHR ADD SWAP1 PUSH2 0x11F5 JUMP JUMPDEST DUP10 PUSH2 0x97C JUMP JUMPDEST PUSH1 0x40 MLOAD PUSH3 0x461BCD PUSH1 0xE5 SHL DUP2 MSTORE PUSH1 0x20 PUSH1 0x4 DUP3 ADD MSTORE PUSH1 0x15 PUSH1 0x24 DUP3 ADD MSTORE PUSH21 0x125B9D985B1A5908185B9CDDD95C9CC818DBDD5B9D PUSH1 0x5A SHL PUSH1 0x44 DUP3 ADD MSTORE PUSH1 0x64 SWAP1 REVERT JUMPDEST POP PUSH1 0x2 SLOAD DUP7 GT ISZERO PUSH2 0x89E JUMP JUMPDEST PUSH1 0x40 MLOAD PUSH3 0x461BCD PUSH1 0xE5 SHL DUP2 MSTORE PUSH1 0x20 PUSH1 0x4 DUP3 ADD MSTORE PUSH1 0x17 PUSH1 0x24 DUP3 ADD MSTORE PUSH32 0x496E76616C6964207175657374696F6E206C656E677468000000000000000000 PUSH1 0x44 DUP3 ADD MSTORE PUSH1 0x64 SWAP1 REVERT JUMPDEST CALLVALUE PUSH2 0x16A JUMPI PUSH1 0x20 CALLDATASIZE PUSH1 0x3 NOT ADD SLT PUSH2 0x16A JUMPI PUSH1 0x4 CALLDATALOAD DUP1 PUSH1 0x0 MSTORE PUSH1 0x0 PUSH1 0x20 MSTORE PUSH2 0xD74 PUSH1 0x40 PUSH1 0x0 KECCAK256 SLOAD ISZERO ISZERO PUSH2 0xF69 JUMP JUMPDEST PUSH1 0x0 MSTORE PUSH1 0x0 PUSH1 0x20 MSTORE PUSH1 0x40 PUSH1 0x0 KECCAK256 PUSH1 0x1 DUP1 PUSH1 0xA0 SHL SUB PUSH1 0x1 DUP3 ADD SLOAD AND PUSH1 0x2 DUP3 ADD SLOAD PUSH1 0x3 DUP4 ADD SLOAD SWAP1 PUSH1 0x5 DUP5 ADD SWAP2 PUSH2 0xDAF PUSH1 0x4 PUSH1 0x6 DUP8 ADD SLOAD SWAP7 ADD PUSH2 0x1007 JUMP JUMPDEST SWAP1 DUP4 SLOAD SWAP3 PUSH2 0xDBC DUP5 PUSH2 0x10AB JUMP JUMPDEST SWAP4 PUSH2 0xDCA PUSH1 0x40 MLOAD SWAP6 DUP7 PUSH2 0xFE5 JUMP JUMPDEST DUP1 DUP6 MSTORE PUSH1 0x20 DUP6 ADD DUP1 SWAP7 PUSH1 0x0 MSTORE PUSH1 0x20 PUSH1 0x0 KECCAK256 PUSH1 0x0 SWAP2 JUMPDEST DUP4 DUP4 LT PUSH2 0xE85 JUMPI POP POP POP POP SWAP1 PUSH2 0xE11 SWAP3 SWAP2 PUSH1 0x40 MLOAD SWAP7 DUP8 MSTORE PUSH1 0x20 DUP8 ADD MSTORE PUSH1 0x40 DUP7 ADD MSTORE PUSH1 0xE0 PUSH1 0x60 DUP7 ADD MSTORE PUSH1 0xE0 DUP6 ADD SWAP1 PUSH2 0xEBD JUMP JUMPDEST SWAP1 DUP4 DUP3 SUB PUSH1 0x80 DUP6 ADD MSTORE MLOAD DUP1 DUP3 MSTORE PUSH1 0x20 DUP3 ADD SWAP2 PUSH1 0x20 DUP3 PUSH1 0x5 SHL DUP3 ADD ADD SWAP4 SWAP3 PUSH1 0x0 SWAP2 JUMPDEST DUP4 DUP4 LT PUSH2 0xE58 JUMPI DUP7 DUP1 DUP8 PUSH1 0xFF DUP12 DUP2 DUP2 AND ISZERO ISZERO PUSH1 0xA0 DUP6 ADD MSTORE PUSH1 0x8 SHR AND ISZERO ISZERO PUSH1 0xC0 DUP4 ADD MSTORE SUB SWAP1 RETURN JUMPDEST SWAP1 SWAP2 SWAP3 SWAP4 SWAP5 PUSH1 0x20 DUP1 PUSH2 0xE76 PUSH1 0x1 SWAP4 PUSH1 0x1F NOT DUP7 DUP3 SUB ADD DUP8 MSTORE DUP10 MLOAD PUSH2 0xEBD JUMP JUMPDEST SWAP8 ADD SWAP4 ADD SWAP4 ADD SWAP2 SWAP4 SWAP3 SWAP1 PUSH2 0xE32 JUMP JUMPDEST PUSH1 0x1 PUSH1 0x20 DUP2 SWAP3 PUSH2 0xE94 DUP6 PUSH2 0x1007 JUMP JUMPDEST DUP2 MSTORE ADD SWAP3 ADD SWAP3 ADD SWAP2 SWAP1 PUSH2 0xDDF JUMP JUMPDEST CALLVALUE PUSH2 0x16A JUMPI PUSH1 0x0 CALLDATASIZE PUSH1 0x3 NOT ADD SLT PUSH2 0x16A JUMPI PUSH1 0x20 SWAP1 PUSH1 0x2 SLOAD DUP2 MSTORE RETURN JUMPDEST SWAP2 SWAP1 DUP3 MLOAD SWAP3 DUP4 DUP3 MSTORE PUSH1 0x0 JUMPDEST DUP5 DUP2 LT PUSH2 0xEE9 JUMPI POP POP DUP3 PUSH1 0x0 PUSH1 0x20 DUP1 SWAP5 SWAP6 DUP5 ADD ADD MSTORE PUSH1 0x1F DUP1 NOT SWAP2 ADD AND ADD ADD SWAP1 JUMP JUMPDEST DUP1 PUSH1 0x20 DUP1 SWAP3 DUP5 ADD ADD MLOAD DUP3 DUP3 DUP7 ADD ADD MSTORE ADD PUSH2 0xEC8 JUMP JUMPDEST SWAP2 DUP2 PUSH1 0x1F DUP5 ADD SLT ISZERO PUSH2 0x16A JUMPI DUP3 CALLDATALOAD SWAP2 PUSH8 0xFFFFFFFFFFFFFFFF DUP4 GT PUSH2 0x16A JUMPI PUSH1 0x20 DUP1 DUP6 ADD SWAP5 DUP5 PUSH1 0x5 SHL ADD ADD GT PUSH2 0x16A JUMPI JUMP JUMPDEST PUSH1 0x20 PUSH1 0x40 DUP2 DUP4 ADD SWAP3 DUP3 DUP2 MSTORE DUP5 MLOAD DUP1 SWAP5 MSTORE ADD SWAP3 ADD SWAP1 PUSH1 0x0 JUMPDEST DUP2 DUP2 LT PUSH2 0xF53 JUMPI POP POP POP SWAP1 JUMP JUMPDEST DUP3 MLOAD DUP5 MSTORE PUSH1 0x20 SWAP4 DUP5 ADD SWAP4 SWAP1 SWAP3 ADD SWAP2 PUSH1 0x1 ADD PUSH2 0xF46 JUMP JUMPDEST ISZERO PUSH2 0xF70 JUMPI JUMP JUMPDEST PUSH1 0x40 MLOAD PUSH3 0x461BCD PUSH1 0xE5 SHL DUP2 MSTORE PUSH1 0x20 PUSH1 0x4 DUP3 ADD MSTORE PUSH1 0x13 PUSH1 0x24 DUP3 ADD MSTORE PUSH19 0x141BDB1B08191BD95CC81B9BDD08195E1A5CDD PUSH1 0x6A SHL PUSH1 0x44 DUP3 ADD MSTORE PUSH1 0x64 SWAP1 REVERT JUMPDEST SWAP1 PUSH1 0x1 DUP3 DUP2 SHR SWAP3 AND DUP1 ISZERO PUSH2 0xFDB JUMPI JUMPDEST PUSH1 0x20 DUP4 LT EQ PUSH2 0xFC5 JUMPI JUMP JUMPDEST PUSH4 0x4E487B71 PUSH1 0xE0 SHL PUSH1 0x0 MSTORE PUSH1 0x22 PUSH1 0x4 MSTORE PUSH1 0x24 PUSH1 0x0 REVERT JUMPDEST SWAP2 PUSH1 0x7F AND SWAP2 PUSH2 0xFBA JUMP JUMPDEST SWAP1 PUSH1 0x1F DUP1 NOT SWAP2 ADD AND DUP2 ADD SWAP1 DUP2 LT PUSH8 0xFFFFFFFFFFFFFFFF DUP3 GT OR PUSH2 0x5DB JUMPI PUSH1 0x40 MSTORE JUMP JUMPDEST SWAP1 PUSH1 0x40 MLOAD SWAP2 DUP3 PUSH1 0x0 DUP3 SLOAD SWAP3 PUSH2 0x101B DUP5 PUSH2 0xFAB JUMP JUMPDEST DUP1 DUP5 MSTORE SWAP4 PUSH1 0x1 DUP2 AND SWAP1 DUP2 ISZERO PUSH2 0x1089 JUMPI POP PUSH1 0x1 EQ PUSH2 0x1042 JUMPI JUMPDEST POP PUSH2 0x1040 SWAP3 POP SUB DUP4 PUSH2 0xFE5 JUMP JUMPDEST JUMP JUMPDEST SWAP1 POP PUSH1 0x0 SWAP3 SWAP2 SWAP3 MSTORE PUSH1 0x20 PUSH1 0x0 KECCAK256 SWAP1 PUSH1 0x0 SWAP2 JUMPDEST DUP2 DUP4 LT PUSH2 0x106D JUMPI POP POP SWAP1 PUSH1 0x20 PUSH2 0x1040 SWAP3 DUP3 ADD ADD CODESIZE PUSH2 0x1033 JUMP JUMPDEST PUSH1 0x20 SWAP2 SWAP4 POP DUP1 PUSH1 0x1 SWAP2 SLOAD DUP4 DUP6 DUP10 ADD ADD MSTORE ADD SWAP2 ADD SWAP1 SWAP2 DUP5 SWAP3 PUSH2 0x1054 JUMP JUMPDEST SWAP1 POP PUSH1 0x20 SWAP3 POP PUSH2 0x1040 SWAP5 SWAP2 POP PUSH1 0xFF NOT AND DUP3 DUP5 ADD MSTORE ISZERO ISZERO PUSH1 0x5 SHL DUP3 ADD ADD CODESIZE PUSH2 0x1033 JUMP JUMPDEST PUSH8 0xFFFFFFFFFFFFFFFF DUP2 GT PUSH2 0x5DB JUMPI PUSH1 0x5 SHL PUSH1 0x20 ADD SWAP1 JUMP JUMPDEST ISZERO PUSH2 0x10CA JUMPI JUMP JUMPDEST PUSH1 0x40 MLOAD PUSH3 0x461BCD PUSH1 0xE5 SHL DUP2 MSTORE PUSH1 0x20 PUSH1 0x4 DUP3 ADD MSTORE PUSH1 0x19 PUSH1 0x24 DUP3 ADD MSTORE PUSH32 0x53746172742074696D65206D7573742062652066757475726500000000000000 PUSH1 0x44 DUP3 ADD MSTORE PUSH1 0x64 SWAP1 REVERT JUMPDEST ISZERO PUSH2 0x1116 JUMPI JUMP JUMPDEST PUSH1 0x40 MLOAD PUSH3 0x461BCD PUSH1 0xE5 SHL DUP2 MSTORE PUSH1 0x20 PUSH1 0x4 DUP3 ADD MSTORE PUSH1 0x12 PUSH1 0x24 DUP3 ADD MSTORE PUSH18 0x111D5C985D1A5BDB881D1BDBC81CDA1BDC9D PUSH1 0x72 SHL PUSH1 0x44 DUP3 ADD MSTORE PUSH1 0x64 SWAP1 REVERT JUMPDEST ISZERO PUSH2 0x1157 JUMPI JUMP JUMPDEST PUSH1 0x40 MLOAD PUSH3 0x461BCD PUSH1 0xE5 SHL DUP2 MSTORE PUSH1 0x20 PUSH1 0x4 DUP3 ADD MSTORE PUSH1 0x11 PUSH1 0x24 DUP3 ADD MSTORE PUSH17 0x4475726174696F6E20746F6F206C6F6E67 PUSH1 0x78 SHL PUSH1 0x44 DUP3 ADD MSTORE PUSH1 0x64 SWAP1 REVERT JUMPDEST SWAP1 CALLDATALOAD SWAP1 PUSH1 0x1E NOT DUP2 CALLDATASIZE SUB ADD DUP3 SLT ISZERO PUSH2 0x16A JUMPI ADD DUP1 CALLDATALOAD SWAP1 PUSH8 0xFFFFFFFFFFFFFFFF DUP3 GT PUSH2 0x16A JUMPI PUSH1 0x20 ADD SWAP2 DUP2 CALLDATASIZE SUB DUP4 SGT PUSH2 0x16A JUMPI JUMP JUMPDEST PUSH1 0x0 NOT DUP2 EQ PUSH2 0x11D2 JUMPI PUSH1 0x1 ADD SWAP1 JUMP JUMPDEST PUSH4 0x4E487B71 PUSH1 0xE0 SHL PUSH1 0x0 MSTORE PUSH1 0x11 PUSH1 0x4 MSTORE PUSH1 0x24 PUSH1 0x0 REVERT JUMPDEST SWAP2 SWAP1 DUP3 ADD DUP1 SWAP3 GT PUSH2 0x11D2 JUMPI JUMP JUMPDEST DUP2 DUP2 LT PUSH2 0x1200 JUMPI POP POP JUMP JUMPDEST PUSH1 0x0 DUP2 SSTORE PUSH1 0x1 ADD PUSH2 0x11F5 JUMP JUMPDEST SWAP2 SWAP1 DUP2 LT ISZERO PUSH2 0x3F6 JUMPI PUSH1 0x5 SHL ADD SWAP1 JUMP JUMPDEST ISZERO PUSH2 0x1223 JUMPI JUMP JUMPDEST PUSH1 0x40 MLOAD PUSH3 0x461BCD PUSH1 0xE5 SHL DUP2 MSTORE PUSH1 0x20 PUSH1 0x4 DUP3 ADD MSTORE PUSH1 0xB PUSH1 0x24 DUP3 ADD MSTORE PUSH11 0x2737BA1031B932B0BA37B9 PUSH1 0xA9 SHL PUSH1 0x44 DUP3 ADD MSTORE PUSH1 0x64 SWAP1 REVERT JUMPDEST ISZERO PUSH2 0x125D JUMPI JUMP JUMPDEST PUSH1 0x40 MLOAD PUSH3 0x461BCD PUSH1 0xE5 SHL DUP2 MSTORE PUSH1 0x20 PUSH1 0x4 DUP3 ADD MSTORE PUSH1 0xF PUSH1 0x24 DUP3 ADD MSTORE PUSH15 0x105B1C9958591E481CDD185C9D1959 PUSH1 0x8A SHL PUSH1 0x44 DUP3 ADD MSTORE PUSH1 0x64 SWAP1 REVERT INVALID LOG2 PUSH5 0x6970667358 0x22 SLT KECCAK256 0xC7 SSTORE SWAP14 0xAD PUSH7 0xCC83CB52218916 PUSH14 0xAB9CEEF0FE49DBC373B5D09E405F GASLIMIT LOG2 PUSH24 0x42C964736F6C634300081C00330000000000000000000000 "},"methodIdentifiers":{"cancelPoll(uint256)":"d0ec1607","createPoll(bytes,bytes[],bool,uint256,uint256)":"3d5c5697","getPollInfo(uint256)":"29b8f44a","getResults(uint256)":"81a60c0d","getUserVotes(uint256,address)":"e8abfd94","maxAnswerLength()":"824c1579","maxAnswers()":"0e7b80ee","maxDuration()":"6db5c8fd","maxQuestionLength()":"df0ff1c6","minDuration()":"56715761","nextPollID()":"b04e283e","updatePollSchedule(uint256,uint256,uint256)":"e2af4507","vote(uint256,uint256[])":"7055d368"}}}}}